{
  "contractName": "SUFriendVote",
  "abi": [
    {
      "inputs": [],
      "stateMutability": "nonpayable",
      "type": "constructor"
    },
    {
      "anonymous": false,
      "inputs": [
        {
          "indexed": true,
          "internalType": "address",
          "name": "owner",
          "type": "address"
        },
        {
          "indexed": true,
          "internalType": "address",
          "name": "spender",
          "type": "address"
        },
        {
          "indexed": false,
          "internalType": "uint256",
          "name": "value",
          "type": "uint256"
        }
      ],
      "name": "Approval",
      "type": "event"
    },
    {
      "anonymous": false,
      "inputs": [
        {
          "indexed": true,
          "internalType": "address",
          "name": "delegator",
          "type": "address"
        },
        {
          "indexed": true,
          "internalType": "address",
          "name": "fromDelegate",
          "type": "address"
        },
        {
          "indexed": true,
          "internalType": "address",
          "name": "toDelegate",
          "type": "address"
        }
      ],
      "name": "DelegateChanged",
      "type": "event"
    },
    {
      "anonymous": false,
      "inputs": [
        {
          "indexed": true,
          "internalType": "address",
          "name": "delegate",
          "type": "address"
        },
        {
          "indexed": false,
          "internalType": "uint256",
          "name": "previousBalance",
          "type": "uint256"
        },
        {
          "indexed": false,
          "internalType": "uint256",
          "name": "newBalance",
          "type": "uint256"
        }
      ],
      "name": "DelegateVotesChanged",
      "type": "event"
    },
    {
      "anonymous": false,
      "inputs": [
        {
          "indexed": true,
          "internalType": "address",
          "name": "previousOwner",
          "type": "address"
        },
        {
          "indexed": true,
          "internalType": "address",
          "name": "newOwner",
          "type": "address"
        }
      ],
      "name": "OwnershipTransferred",
      "type": "event"
    },
    {
      "anonymous": false,
      "inputs": [
        {
          "indexed": true,
          "internalType": "address",
          "name": "from",
          "type": "address"
        },
        {
          "indexed": true,
          "internalType": "address",
          "name": "to",
          "type": "address"
        },
        {
          "indexed": false,
          "internalType": "uint256",
          "name": "value",
          "type": "uint256"
        }
      ],
      "name": "Transfer",
      "type": "event"
    },
    {
      "inputs": [],
      "name": "DOMAIN_SEPARATOR",
      "outputs": [
        {
          "internalType": "bytes32",
          "name": "",
          "type": "bytes32"
        }
      ],
      "stateMutability": "view",
      "type": "function",
      "constant": true
    },
    {
      "inputs": [
        {
          "internalType": "address",
          "name": "owner",
          "type": "address"
        },
        {
          "internalType": "address",
          "name": "spender",
          "type": "address"
        }
      ],
      "name": "allowance",
      "outputs": [
        {
          "internalType": "uint256",
          "name": "",
          "type": "uint256"
        }
      ],
      "stateMutability": "view",
      "type": "function",
      "constant": true
    },
    {
      "inputs": [
        {
          "internalType": "address",
          "name": "spender",
          "type": "address"
        },
        {
          "internalType": "uint256",
          "name": "amount",
          "type": "uint256"
        }
      ],
      "name": "approve",
      "outputs": [
        {
          "internalType": "bool",
          "name": "",
          "type": "bool"
        }
      ],
      "stateMutability": "nonpayable",
      "type": "function"
    },
    {
      "inputs": [
        {
          "internalType": "address",
          "name": "account",
          "type": "address"
        }
      ],
      "name": "balanceOf",
      "outputs": [
        {
          "internalType": "uint256",
          "name": "",
          "type": "uint256"
        }
      ],
      "stateMutability": "view",
      "type": "function",
      "constant": true
    },
    {
      "inputs": [
        {
          "internalType": "uint256",
          "name": "amount",
          "type": "uint256"
        }
      ],
      "name": "burn",
      "outputs": [],
      "stateMutability": "nonpayable",
      "type": "function"
    },
    {
      "inputs": [
        {
          "internalType": "address",
          "name": "account",
          "type": "address"
        },
        {
          "internalType": "uint256",
          "name": "amount",
          "type": "uint256"
        }
      ],
      "name": "burnFrom",
      "outputs": [],
      "stateMutability": "nonpayable",
      "type": "function"
    },
    {
      "inputs": [
        {
          "internalType": "address",
          "name": "account",
          "type": "address"
        },
        {
          "internalType": "uint32",
          "name": "pos",
          "type": "uint32"
        }
      ],
      "name": "checkpoints",
      "outputs": [
        {
          "components": [
            {
              "internalType": "uint32",
              "name": "fromBlock",
              "type": "uint32"
            },
            {
              "internalType": "uint224",
              "name": "votes",
              "type": "uint224"
            }
          ],
          "internalType": "struct ERC20Votes.Checkpoint",
          "name": "",
          "type": "tuple"
        }
      ],
      "stateMutability": "view",
      "type": "function",
      "constant": true
    },
    {
      "inputs": [],
      "name": "decimals",
      "outputs": [
        {
          "internalType": "uint8",
          "name": "",
          "type": "uint8"
        }
      ],
      "stateMutability": "view",
      "type": "function",
      "constant": true
    },
    {
      "inputs": [
        {
          "internalType": "address",
          "name": "spender",
          "type": "address"
        },
        {
          "internalType": "uint256",
          "name": "subtractedValue",
          "type": "uint256"
        }
      ],
      "name": "decreaseAllowance",
      "outputs": [
        {
          "internalType": "bool",
          "name": "",
          "type": "bool"
        }
      ],
      "stateMutability": "nonpayable",
      "type": "function"
    },
    {
      "inputs": [
        {
          "internalType": "address",
          "name": "delegatee",
          "type": "address"
        }
      ],
      "name": "delegate",
      "outputs": [],
      "stateMutability": "nonpayable",
      "type": "function"
    },
    {
      "inputs": [
        {
          "internalType": "address",
          "name": "delegatee",
          "type": "address"
        },
        {
          "internalType": "uint256",
          "name": "nonce",
          "type": "uint256"
        },
        {
          "internalType": "uint256",
          "name": "expiry",
          "type": "uint256"
        },
        {
          "internalType": "uint8",
          "name": "v",
          "type": "uint8"
        },
        {
          "internalType": "bytes32",
          "name": "r",
          "type": "bytes32"
        },
        {
          "internalType": "bytes32",
          "name": "s",
          "type": "bytes32"
        }
      ],
      "name": "delegateBySig",
      "outputs": [],
      "stateMutability": "nonpayable",
      "type": "function"
    },
    {
      "inputs": [
        {
          "internalType": "address",
          "name": "account",
          "type": "address"
        }
      ],
      "name": "delegates",
      "outputs": [
        {
          "internalType": "address",
          "name": "",
          "type": "address"
        }
      ],
      "stateMutability": "view",
      "type": "function",
      "constant": true
    },
    {
      "inputs": [
        {
          "internalType": "uint256",
          "name": "blockNumber",
          "type": "uint256"
        }
      ],
      "name": "getPastTotalSupply",
      "outputs": [
        {
          "internalType": "uint256",
          "name": "",
          "type": "uint256"
        }
      ],
      "stateMutability": "view",
      "type": "function",
      "constant": true
    },
    {
      "inputs": [
        {
          "internalType": "address",
          "name": "account",
          "type": "address"
        },
        {
          "internalType": "uint256",
          "name": "blockNumber",
          "type": "uint256"
        }
      ],
      "name": "getPastVotes",
      "outputs": [
        {
          "internalType": "uint256",
          "name": "",
          "type": "uint256"
        }
      ],
      "stateMutability": "view",
      "type": "function",
      "constant": true
    },
    {
      "inputs": [
        {
          "internalType": "address",
          "name": "account",
          "type": "address"
        }
      ],
      "name": "getVotes",
      "outputs": [
        {
          "internalType": "uint256",
          "name": "",
          "type": "uint256"
        }
      ],
      "stateMutability": "view",
      "type": "function",
      "constant": true
    },
    {
      "inputs": [
        {
          "internalType": "address",
          "name": "spender",
          "type": "address"
        },
        {
          "internalType": "uint256",
          "name": "addedValue",
          "type": "uint256"
        }
      ],
      "name": "increaseAllowance",
      "outputs": [
        {
          "internalType": "bool",
          "name": "",
          "type": "bool"
        }
      ],
      "stateMutability": "nonpayable",
      "type": "function"
    },
    {
      "inputs": [],
      "name": "name",
      "outputs": [
        {
          "internalType": "string",
          "name": "",
          "type": "string"
        }
      ],
      "stateMutability": "view",
      "type": "function",
      "constant": true
    },
    {
      "inputs": [
        {
          "internalType": "address",
          "name": "owner",
          "type": "address"
        }
      ],
      "name": "nonces",
      "outputs": [
        {
          "internalType": "uint256",
          "name": "",
          "type": "uint256"
        }
      ],
      "stateMutability": "view",
      "type": "function",
      "constant": true
    },
    {
      "inputs": [
        {
          "internalType": "address",
          "name": "account",
          "type": "address"
        }
      ],
      "name": "numCheckpoints",
      "outputs": [
        {
          "internalType": "uint32",
          "name": "",
          "type": "uint32"
        }
      ],
      "stateMutability": "view",
      "type": "function",
      "constant": true
    },
    {
      "inputs": [],
      "name": "owner",
      "outputs": [
        {
          "internalType": "address",
          "name": "",
          "type": "address"
        }
      ],
      "stateMutability": "view",
      "type": "function",
      "constant": true
    },
    {
      "inputs": [
        {
          "internalType": "address",
          "name": "owner",
          "type": "address"
        },
        {
          "internalType": "address",
          "name": "spender",
          "type": "address"
        },
        {
          "internalType": "uint256",
          "name": "value",
          "type": "uint256"
        },
        {
          "internalType": "uint256",
          "name": "deadline",
          "type": "uint256"
        },
        {
          "internalType": "uint8",
          "name": "v",
          "type": "uint8"
        },
        {
          "internalType": "bytes32",
          "name": "r",
          "type": "bytes32"
        },
        {
          "internalType": "bytes32",
          "name": "s",
          "type": "bytes32"
        }
      ],
      "name": "permit",
      "outputs": [],
      "stateMutability": "nonpayable",
      "type": "function"
    },
    {
      "inputs": [],
      "name": "renounceOwnership",
      "outputs": [],
      "stateMutability": "nonpayable",
      "type": "function"
    },
    {
      "inputs": [],
      "name": "symbol",
      "outputs": [
        {
          "internalType": "string",
          "name": "",
          "type": "string"
        }
      ],
      "stateMutability": "view",
      "type": "function",
      "constant": true
    },
    {
      "inputs": [],
      "name": "totalSupply",
      "outputs": [
        {
          "internalType": "uint256",
          "name": "",
          "type": "uint256"
        }
      ],
      "stateMutability": "view",
      "type": "function",
      "constant": true
    },
    {
      "inputs": [
        {
          "internalType": "address",
          "name": "to",
          "type": "address"
        },
        {
          "internalType": "uint256",
          "name": "amount",
          "type": "uint256"
        }
      ],
      "name": "transfer",
      "outputs": [
        {
          "internalType": "bool",
          "name": "",
          "type": "bool"
        }
      ],
      "stateMutability": "nonpayable",
      "type": "function"
    },
    {
      "inputs": [
        {
          "internalType": "address",
          "name": "from",
          "type": "address"
        },
        {
          "internalType": "address",
          "name": "to",
          "type": "address"
        },
        {
          "internalType": "uint256",
          "name": "amount",
          "type": "uint256"
        }
      ],
      "name": "transferFrom",
      "outputs": [
        {
          "internalType": "bool",
          "name": "",
          "type": "bool"
        }
      ],
      "stateMutability": "nonpayable",
      "type": "function"
    },
    {
      "inputs": [
        {
          "internalType": "address",
          "name": "newOwner",
          "type": "address"
        }
      ],
      "name": "transferOwnership",
      "outputs": [],
      "stateMutability": "nonpayable",
      "type": "function"
    },
    {
      "inputs": [
        {
          "internalType": "address",
          "name": "to",
          "type": "address"
        },
        {
          "internalType": "uint256",
          "name": "amount",
          "type": "uint256"
        }
      ],
      "name": "mint",
      "outputs": [],
      "stateMutability": "nonpayable",
      "type": "function"
    }
  ],
  "bytecode": "0x6101406040523480156200001257600080fd5b506040518060400160405280600c81526020017f5355467269656e64566f74650000000000000000000000000000000000000000815250806040518060400160405280600181526020017f31000000000000000000000000000000000000000000000000000000000000008152506040518060400160405280600c81526020017f5355467269656e64566f746500000000000000000000000000000000000000008152506040518060400160405280600481526020017f535546560000000000000000000000000000000000000000000000000000000081525081600390805190602001906200010492919062000cd7565b5080600490805190602001906200011d92919062000cd7565b50505062000140620001346200023660201b60201c565b6200023e60201b60201c565b60008280519060200120905060008280519060200120905060007f8b73c3c69bb8fe3d512ecc4cf759cc79239f7b179b0ffacaa9a75d522b39400f90508260e081815250508161010081815250504660a08181525050620001a98184846200030460201b60201c565b608081815250503073ffffffffffffffffffffffffffffffffffffffff1660c08173ffffffffffffffffffffffffffffffffffffffff16815250508061012081815250505050505050506200023033620002086200034060201b60201c565b600a62000216919062000f21565b606462000224919062000f72565b6200034960201b60201c565b62001433565b600033905090565b6000600560009054906101000a900473ffffffffffffffffffffffffffffffffffffffff16905081600560006101000a81548173ffffffffffffffffffffffffffffffffffffffff021916908373ffffffffffffffffffffffffffffffffffffffff1602179055508173ffffffffffffffffffffffffffffffffffffffff168173ffffffffffffffffffffffffffffffffffffffff167f8be0079c531659141344cd1fd0a4f28419497f9722a3daafe3b4186f6b6457e060405160405180910390a35050565b600083838346306040516020016200032195949392919062001044565b6040516020818303038152906040528051906020012090509392505050565b60006012905090565b6200036082826200036460201b620010a11760201c565b5050565b6200037b82826200042260201b6200112e1760201c565b6200038b6200059060201b60201c565b7bffffffffffffffffffffffffffffffffffffffffffffffffffffffff16620003b9620005b460201b60201c565b1115620003fd576040517f08c379a0000000000000000000000000000000000000000000000000000000008152600401620003f49062001128565b60405180910390fd5b6200041c600a620005be60201b620012851783620005d660201b60201c565b50505050565b600073ffffffffffffffffffffffffffffffffffffffff168273ffffffffffffffffffffffffffffffffffffffff16141562000495576040517f08c379a00000000000000000000000000000000000000000000000000000000081526004016200048c906200119a565b60405180910390fd5b620004a960008383620008e360201b60201c565b8060026000828254620004bd9190620011bc565b92505081905550806000808473ffffffffffffffffffffffffffffffffffffffff1673ffffffffffffffffffffffffffffffffffffffff168152602001908152602001600020600082825401925050819055508173ffffffffffffffffffffffffffffffffffffffff16600073ffffffffffffffffffffffffffffffffffffffff167fddf252ad1be2c89b69c2b068fc378daa952ba7f163c4a11628f55a4df523b3ef8360405162000570919062001219565b60405180910390a36200058c60008383620008e860201b60201c565b5050565b60007bffffffffffffffffffffffffffffffffffffffffffffffffffffffff905090565b6000600254905090565b60008183620005ce9190620011bc565b905092915050565b6000806000858054905090506000808214620006b1576200060c8760018462000600919062001236565b6200090560201b60201c565b6040518060400160405290816000820160009054906101000a900463ffffffff1663ffffffff1663ffffffff1681526020016000820160049054906101000a90047bffffffffffffffffffffffffffffffffffffffffffffffffffffffff167bffffffffffffffffffffffffffffffffffffffffffffffffffffffff167bffffffffffffffffffffffffffffffffffffffffffffffffffffffff1681525050620006ed565b6040518060400160405280600063ffffffff16815260200160007bffffffffffffffffffffffffffffffffffffffffffffffffffffffff168152505b905080602001517bffffffffffffffffffffffffffffffffffffffffffffffffffffffff1693506200072084868860201c565b92506000821180156200073c575043816000015163ffffffff16145b15620007cf5762000758836200091a60201b6200129b1760201c565b62000778886001856200076c919062001236565b6200090560201b60201c565b60000160046101000a8154817bffffffffffffffffffffffffffffffffffffffffffffffffffffffff02191690837bffffffffffffffffffffffffffffffffffffffffffffffffffffffff160217905550620008d9565b866040518060400160405280620007f1436200098860201b620013061760201c565b63ffffffff16815260200162000812866200091a60201b6200129b1760201c565b7bffffffffffffffffffffffffffffffffffffffffffffffffffffffff168152509080600181540180825580915050600190039060005260206000200160009091909190915060008201518160000160006101000a81548163ffffffff021916908363ffffffff16021790555060208201518160000160046101000a8154817bffffffffffffffffffffffffffffffffffffffffffffffffffffffff02191690837bffffffffffffffffffffffffffffffffffffffffffffffffffffffff16021790555050505b5050935093915050565b505050565b62000900838383620009de60201b620013591760201c565b505050565b60008260005281602060002001905092915050565b60007bffffffffffffffffffffffffffffffffffffffffffffffffffffffff801682111562000980576040517f08c379a00000000000000000000000000000000000000000000000000000000081526004016200097790620012e7565b60405180910390fd5b819050919050565b600063ffffffff8016821115620009d6576040517f08c379a0000000000000000000000000000000000000000000000000000000008152600401620009cd906200137f565b60405180910390fd5b819050919050565b620009f683838362000a2e60201b620013841760201c565b62000a2962000a0b8462000a3360201b60201c565b62000a1c8462000a3360201b60201c565b8362000a9c60201b60201c565b505050565b505050565b6000600860008373ffffffffffffffffffffffffffffffffffffffff1673ffffffffffffffffffffffffffffffffffffffff16815260200190815260200160002060009054906101000a900473ffffffffffffffffffffffffffffffffffffffff169050919050565b8173ffffffffffffffffffffffffffffffffffffffff168373ffffffffffffffffffffffffffffffffffffffff161415801562000ad95750600081115b1562000cba57600073ffffffffffffffffffffffffffffffffffffffff168373ffffffffffffffffffffffffffffffffffffffff161462000bcc5760008062000b73600960008773ffffffffffffffffffffffffffffffffffffffff1673ffffffffffffffffffffffffffffffffffffffff16815260200190815260200160002062000cbf60201b620013891785620005d660201b60201c565b915091508473ffffffffffffffffffffffffffffffffffffffff167fdec2bacdd2f05b59de34da9b523dff8be42e5e38e818c82fdb0bae774387a724838360405162000bc1929190620013a1565b60405180910390a250505b600073ffffffffffffffffffffffffffffffffffffffff168273ffffffffffffffffffffffffffffffffffffffff161462000cb95760008062000c60600960008673ffffffffffffffffffffffffffffffffffffffff1673ffffffffffffffffffffffffffffffffffffffff168152602001908152602001600020620005be60201b620012851785620005d660201b60201c565b915091508373ffffffffffffffffffffffffffffffffffffffff167fdec2bacdd2f05b59de34da9b523dff8be42e5e38e818c82fdb0bae774387a724838360405162000cae929190620013a1565b60405180910390a250505b5b505050565b6000818362000ccf919062001236565b905092915050565b82805462000ce590620013fd565b90600052602060002090601f01602090048101928262000d09576000855562000d55565b82601f1062000d2457805160ff191683800117855562000d55565b8280016001018555821562000d55579182015b8281111562000d5457825182559160200191906001019062000d37565b5b50905062000d64919062000d68565b5090565b5b8082111562000d8357600081600090555060010162000d69565b5090565b7f4e487b7100000000000000000000000000000000000000000000000000000000600052601160045260246000fd5b60008160011c9050919050565b6000808291508390505b600185111562000e155780860481111562000ded5762000dec62000d87565b5b600185161562000dfd5780820291505b808102905062000e0d8562000db6565b945062000dcd565b94509492505050565b60008262000e30576001905062000f03565b8162000e40576000905062000f03565b816001811462000e59576002811462000e645762000e9a565b600191505062000f03565b60ff84111562000e795762000e7862000d87565b5b8360020a91508482111562000e935762000e9262000d87565b5b5062000f03565b5060208310610133831016604e8410600b841016171562000ed45782820a90508381111562000ece5762000ecd62000d87565b5b62000f03565b62000ee3848484600162000dc3565b9250905081840481111562000efd5762000efc62000d87565b5b81810290505b9392505050565b6000819050919050565b600060ff82169050919050565b600062000f2e8262000f0a565b915062000f3b8362000f14565b925062000f6a7fffffffffffffffffffffffffffffffffffffffffffffffffffffffffffffffff848462000e1e565b905092915050565b600062000f7f8262000f0a565b915062000f8c8362000f0a565b9250817fffffffffffffffffffffffffffffffffffffffffffffffffffffffffffffffff048311821515161562000fc85762000fc762000d87565b5b828202905092915050565b6000819050919050565b62000fe88162000fd3565b82525050565b62000ff98162000f0a565b82525050565b600073ffffffffffffffffffffffffffffffffffffffff82169050919050565b60006200102c8262000fff565b9050919050565b6200103e816200101f565b82525050565b600060a0820190506200105b600083018862000fdd565b6200106a602083018762000fdd565b62001079604083018662000fdd565b62001088606083018562000fee565b62001097608083018462001033565b9695505050505050565b600082825260208201905092915050565b7f4552433230566f7465733a20746f74616c20737570706c79207269736b73206f60008201527f766572666c6f77696e6720766f74657300000000000000000000000000000000602082015250565b600062001110603083620010a1565b91506200111d82620010b2565b604082019050919050565b60006020820190508181036000830152620011438162001101565b9050919050565b7f45524332303a206d696e7420746f20746865207a65726f206164647265737300600082015250565b600062001182601f83620010a1565b91506200118f826200114a565b602082019050919050565b60006020820190508181036000830152620011b58162001173565b9050919050565b6000620011c98262000f0a565b9150620011d68362000f0a565b9250827fffffffffffffffffffffffffffffffffffffffffffffffffffffffffffffffff038211156200120e576200120d62000d87565b5b828201905092915050565b600060208201905062001230600083018462000fee565b92915050565b6000620012438262000f0a565b9150620012508362000f0a565b92508282101562001266576200126562000d87565b5b828203905092915050565b7f53616665436173743a2076616c756520646f65736e27742066697420696e203260008201527f3234206269747300000000000000000000000000000000000000000000000000602082015250565b6000620012cf602783620010a1565b9150620012dc8262001271565b604082019050919050565b600060208201905081810360008301526200130281620012c0565b9050919050565b7f53616665436173743a2076616c756520646f65736e27742066697420696e203360008201527f3220626974730000000000000000000000000000000000000000000000000000602082015250565b600062001367602683620010a1565b9150620013748262001309565b604082019050919050565b600060208201905081810360008301526200139a8162001358565b9050919050565b6000604082019050620013b8600083018562000fee565b620013c7602083018462000fee565b9392505050565b7f4e487b7100000000000000000000000000000000000000000000000000000000600052602260045260246000fd5b600060028204905060018216806200141657607f821691505b602082108114156200142d576200142c620013ce565b5b50919050565b60805160a05160c05160e051610100516101205161403362001483600039600061192401526000611966015260006119450152600061187a015260006118d0015260006118f901526140336000f3fe608060405234801561001057600080fd5b50600436106101c45760003560e01c8063715018a6116100f9578063a457c2d711610097578063d505accf11610071578063d505accf14610553578063dd62ed3e1461056f578063f1127ed81461059f578063f2fde38b146105cf576101c4565b8063a457c2d7146104d7578063a9059cbb14610507578063c3cda52014610537576101c4565b80638da5cb5b116100d35780638da5cb5b1461043b5780638e539e8c1461045957806395d89b41146104895780639ab24eb0146104a7576101c4565b8063715018a6146103e557806379cc6790146103ef5780637ecebe001461040b576101c4565b80633a46b1a811610166578063587cde1e11610140578063587cde1e146103395780635c19a95c146103695780636fcfff451461038557806370a08231146103b5576101c4565b80633a46b1a8146102d157806340c10f191461030157806342966c681461031d576101c4565b806323b872dd116101a257806323b872dd14610235578063313ce567146102655780633644e5151461028357806339509351146102a1576101c4565b806306fdde03146101c9578063095ea7b3146101e757806318160ddd14610217575b600080fd5b6101d16105eb565b6040516101de9190612ad3565b60405180910390f35b61020160048036038101906101fc9190612b8e565b61067d565b60405161020e9190612be9565b60405180910390f35b61021f6106a0565b60405161022c9190612c13565b60405180910390f35b61024f600480360381019061024a9190612c2e565b6106aa565b60405161025c9190612be9565b60405180910390f35b61026d6106d9565b60405161027a9190612c9d565b60405180910390f35b61028b6106e2565b6040516102989190612cd1565b60405180910390f35b6102bb60048036038101906102b69190612b8e565b6106f1565b6040516102c89190612be9565b60405180910390f35b6102eb60048036038101906102e69190612b8e565b610728565b6040516102f89190612c13565b60405180910390f35b61031b60048036038101906103169190612b8e565b6107bc565b005b61033760048036038101906103329190612cec565b6107d2565b005b610353600480360381019061034e9190612d19565b6107e6565b6040516103609190612d55565b60405180910390f35b610383600480360381019061037e9190612d19565b61084f565b005b61039f600480360381019061039a9190612d19565b610863565b6040516103ac9190612d8f565b60405180910390f35b6103cf60048036038101906103ca9190612d19565b6108b7565b6040516103dc9190612c13565b60405180910390f35b6103ed6108ff565b005b61040960048036038101906104049190612b8e565b610913565b005b61042560048036038101906104209190612d19565b610933565b6040516104329190612c13565b60405180910390f35b610443610983565b6040516104509190612d55565b60405180910390f35b610473600480360381019061046e9190612cec565b6109ad565b6040516104809190612c13565b60405180910390f35b610491610a03565b60405161049e9190612ad3565b60405180910390f35b6104c160048036038101906104bc9190612d19565b610a95565b6040516104ce9190612c13565b60405180910390f35b6104f160048036038101906104ec9190612b8e565b610ba6565b6040516104fe9190612be9565b60405180910390f35b610521600480360381019061051c9190612b8e565b610c1d565b60405161052e9190612be9565b60405180910390f35b610551600480360381019061054c9190612e02565b610c40565b005b61056d60048036038101906105689190612e8f565b610d44565b005b61058960048036038101906105849190612f31565b610e86565b6040516105969190612c13565b60405180910390f35b6105b960048036038101906105b49190612f9d565b610f0d565b6040516105c69190613052565b60405180910390f35b6105e960048036038101906105e49190612d19565b61101d565b005b6060600380546105fa9061309c565b80601f01602080910402602001604051908101604052809291908181526020018280546106269061309c565b80156106735780601f1061064857610100808354040283529160200191610673565b820191906000526020600020905b81548152906001019060200180831161065657829003601f168201915b5050505050905090565b60008061068861139f565b90506106958185856113a7565b600191505092915050565b6000600254905090565b6000806106b561139f565b90506106c2858285611572565b6106cd8585856115fe565b60019150509392505050565b60006012905090565b60006106ec611876565b905090565b6000806106fc61139f565b905061071d81858561070e8589610e86565b61071891906130fd565b6113a7565b600191505092915050565b600043821061076c576040517f08c379a00000000000000000000000000000000000000000000000000000000081526004016107639061319f565b60405180910390fd5b6107b4600960008573ffffffffffffffffffffffffffffffffffffffff1673ffffffffffffffffffffffffffffffffffffffff16815260200190815260200160002083611990565b905092915050565b6107c4611ae1565b6107ce8282611b5f565b5050565b6107e36107dd61139f565b82611b6d565b50565b6000600860008373ffffffffffffffffffffffffffffffffffffffff1673ffffffffffffffffffffffffffffffffffffffff16815260200190815260200160002060009054906101000a900473ffffffffffffffffffffffffffffffffffffffff169050919050565b61086061085a61139f565b82611b7b565b50565b60006108b0600960008473ffffffffffffffffffffffffffffffffffffffff1673ffffffffffffffffffffffffffffffffffffffff16815260200190815260200160002080549050611306565b9050919050565b60008060008373ffffffffffffffffffffffffffffffffffffffff1673ffffffffffffffffffffffffffffffffffffffff168152602001908152602001600020549050919050565b610907611ae1565b6109116000611c95565b565b6109258261091f61139f565b83611572565b61092f8282611b6d565b5050565b600061097c600660008473ffffffffffffffffffffffffffffffffffffffff1673ffffffffffffffffffffffffffffffffffffffff168152602001908152602001600020611d5b565b9050919050565b6000600560009054906101000a900473ffffffffffffffffffffffffffffffffffffffff16905090565b60004382106109f1576040517f08c379a00000000000000000000000000000000000000000000000000000000081526004016109e89061319f565b60405180910390fd5b6109fc600a83611990565b9050919050565b606060048054610a129061309c565b80601f0160208091040260200160405190810160405280929190818152602001828054610a3e9061309c565b8015610a8b5780601f10610a6057610100808354040283529160200191610a8b565b820191906000526020600020905b815481529060010190602001808311610a6e57829003601f168201915b5050505050905090565b600080600960008473ffffffffffffffffffffffffffffffffffffffff1673ffffffffffffffffffffffffffffffffffffffff16815260200190815260200160002080549050905060008114610b7d57600960008473ffffffffffffffffffffffffffffffffffffffff1673ffffffffffffffffffffffffffffffffffffffff168152602001908152602001600020600182610b3191906131bf565b81548110610b4257610b416131f3565b5b9060005260206000200160000160049054906101000a90047bffffffffffffffffffffffffffffffffffffffffffffffffffffffff16610b80565b60005b7bffffffffffffffffffffffffffffffffffffffffffffffffffffffff16915050919050565b600080610bb161139f565b90506000610bbf8286610e86565b905083811015610c04576040517f08c379a0000000000000000000000000000000000000000000000000000000008152600401610bfb90613294565b60405180910390fd5b610c1182868684036113a7565b60019250505092915050565b600080610c2861139f565b9050610c358185856115fe565b600191505092915050565b83421115610c83576040517f08c379a0000000000000000000000000000000000000000000000000000000008152600401610c7a90613300565b60405180910390fd5b6000610ce5610cdd7fe48329057bfd03d55e49b547132e39cffd9c1820ad7b9d4c5307691425d15adf898989604051602001610cc29493929190613320565b60405160208183030381529060405280519060200120611d69565b858585611d83565b9050610cf081611dae565b8614610d31576040517f08c379a0000000000000000000000000000000000000000000000000000000008152600401610d28906133b1565b60405180910390fd5b610d3b8188611b7b565b50505050505050565b83421115610d87576040517f08c379a0000000000000000000000000000000000000000000000000000000008152600401610d7e9061341d565b60405180910390fd5b60007f6e71edae12b1b97f4d1f60370fef10105fa2faae0126114a169c64845d6126c9888888610db68c611dae565b89604051602001610dcc9695949392919061343d565b6040516020818303038152906040528051906020012090506000610def82611d69565b90506000610dff82878787611d83565b90508973ffffffffffffffffffffffffffffffffffffffff168173ffffffffffffffffffffffffffffffffffffffff1614610e6f576040517f08c379a0000000000000000000000000000000000000000000000000000000008152600401610e66906134ea565b60405180910390fd5b610e7a8a8a8a6113a7565b50505050505050505050565b6000600160008473ffffffffffffffffffffffffffffffffffffffff1673ffffffffffffffffffffffffffffffffffffffff16815260200190815260200160002060008373ffffffffffffffffffffffffffffffffffffffff1673ffffffffffffffffffffffffffffffffffffffff16815260200190815260200160002054905092915050565b610f156129fc565b600960008473ffffffffffffffffffffffffffffffffffffffff1673ffffffffffffffffffffffffffffffffffffffff1681526020019081526020016000208263ffffffff1681548110610f6c57610f6b6131f3565b5b906000526020600020016040518060400160405290816000820160009054906101000a900463ffffffff1663ffffffff1663ffffffff1681526020016000820160049054906101000a90047bffffffffffffffffffffffffffffffffffffffffffffffffffffffff167bffffffffffffffffffffffffffffffffffffffffffffffffffffffff167bffffffffffffffffffffffffffffffffffffffffffffffffffffffff1681525050905092915050565b611025611ae1565b600073ffffffffffffffffffffffffffffffffffffffff168173ffffffffffffffffffffffffffffffffffffffff161415611095576040517f08c379a000000000000000000000000000000000000000000000000000000000815260040161108c9061357c565b60405180910390fd5b61109e81611c95565b50565b6110ab828261112e565b6110b3611e0c565b7bffffffffffffffffffffffffffffffffffffffffffffffffffffffff166110d96106a0565b111561111a576040517f08c379a00000000000000000000000000000000000000000000000000000000081526004016111119061360e565b60405180910390fd5b611128600a61128583611e30565b50505050565b600073ffffffffffffffffffffffffffffffffffffffff168273ffffffffffffffffffffffffffffffffffffffff16141561119e576040517f08c379a00000000000000000000000000000000000000000000000000000000081526004016111959061367a565b60405180910390fd5b6111aa600083836120ff565b80600260008282546111bc91906130fd565b92505081905550806000808473ffffffffffffffffffffffffffffffffffffffff1673ffffffffffffffffffffffffffffffffffffffff168152602001908152602001600020600082825401925050819055508173ffffffffffffffffffffffffffffffffffffffff16600073ffffffffffffffffffffffffffffffffffffffff167fddf252ad1be2c89b69c2b068fc378daa952ba7f163c4a11628f55a4df523b3ef8360405161126d9190612c13565b60405180910390a361128160008383612104565b5050565b6000818361129391906130fd565b905092915050565b60007bffffffffffffffffffffffffffffffffffffffffffffffffffffffff80168211156112fe576040517f08c379a00000000000000000000000000000000000000000000000000000000081526004016112f59061370c565b60405180910390fd5b819050919050565b600063ffffffff8016821115611351576040517f08c379a00000000000000000000000000000000000000000000000000000000081526004016113489061379e565b60405180910390fd5b819050919050565b611364838383611384565b61137f611370846107e6565b611379846107e6565b83612114565b505050565b505050565b6000818361139791906131bf565b905092915050565b600033905090565b600073ffffffffffffffffffffffffffffffffffffffff168373ffffffffffffffffffffffffffffffffffffffff161415611417576040517f08c379a000000000000000000000000000000000000000000000000000000000815260040161140e90613830565b60405180910390fd5b600073ffffffffffffffffffffffffffffffffffffffff168273ffffffffffffffffffffffffffffffffffffffff161415611487576040517f08c379a000000000000000000000000000000000000000000000000000000000815260040161147e906138c2565b60405180910390fd5b80600160008573ffffffffffffffffffffffffffffffffffffffff1673ffffffffffffffffffffffffffffffffffffffff16815260200190815260200160002060008473ffffffffffffffffffffffffffffffffffffffff1673ffffffffffffffffffffffffffffffffffffffff168152602001908152602001600020819055508173ffffffffffffffffffffffffffffffffffffffff168373ffffffffffffffffffffffffffffffffffffffff167f8c5be1e5ebec7d5bd14f71427d1e84f3dd0314c0f7b2291e5b200ac8c7c3b925836040516115659190612c13565b60405180910390a3505050565b600061157e8484610e86565b90507fffffffffffffffffffffffffffffffffffffffffffffffffffffffffffffffff81146115f857818110156115ea576040517f08c379a00000000000000000000000000000000000000000000000000000000081526004016115e19061392e565b60405180910390fd5b6115f784848484036113a7565b5b50505050565b600073ffffffffffffffffffffffffffffffffffffffff168373ffffffffffffffffffffffffffffffffffffffff16141561166e576040517f08c379a0000000000000000000000000000000000000000000000000000000008152600401611665906139c0565b60405180910390fd5b600073ffffffffffffffffffffffffffffffffffffffff168273ffffffffffffffffffffffffffffffffffffffff1614156116de576040517f08c379a00000000000000000000000000000000000000000000000000000000081526004016116d590613a52565b60405180910390fd5b6116e98383836120ff565b60008060008573ffffffffffffffffffffffffffffffffffffffff1673ffffffffffffffffffffffffffffffffffffffff1681526020019081526020016000205490508181101561176f576040517f08c379a000000000000000000000000000000000000000000000000000000000815260040161176690613ae4565b60405180910390fd5b8181036000808673ffffffffffffffffffffffffffffffffffffffff1673ffffffffffffffffffffffffffffffffffffffff16815260200190815260200160002081905550816000808573ffffffffffffffffffffffffffffffffffffffff1673ffffffffffffffffffffffffffffffffffffffff168152602001908152602001600020600082825401925050819055508273ffffffffffffffffffffffffffffffffffffffff168473ffffffffffffffffffffffffffffffffffffffff167fddf252ad1be2c89b69c2b068fc378daa952ba7f163c4a11628f55a4df523b3ef8460405161185d9190612c13565b60405180910390a3611870848484612104565b50505050565b60007f000000000000000000000000000000000000000000000000000000000000000073ffffffffffffffffffffffffffffffffffffffff163073ffffffffffffffffffffffffffffffffffffffff161480156118f257507f000000000000000000000000000000000000000000000000000000000000000046145b1561191f577f0000000000000000000000000000000000000000000000000000000000000000905061198d565b61198a7f00000000000000000000000000000000000000000000000000000000000000007f00000000000000000000000000000000000000000000000000000000000000007f000000000000000000000000000000000000000000000000000000000000000061230d565b90505b90565b600080838054905090506000808290506005831115611a065760006119b484612347565b846119bf91906131bf565b9050856119cc8883612441565b60000160009054906101000a900463ffffffff1663ffffffff1611156119f457809150611a04565b600181611a0191906130fd565b92505b505b5b80821015611a66576000611a1b8383612456565b905085611a288883612441565b60000160009054906101000a900463ffffffff1663ffffffff161115611a5057809150611a60565b600181611a5d91906130fd565b92505b50611a07565b60008114611ab557611a8486600183611a7f91906131bf565b612441565b60000160049054906101000a90047bffffffffffffffffffffffffffffffffffffffffffffffffffffffff16611ab8565b60005b7bffffffffffffffffffffffffffffffffffffffffffffffffffffffff16935050505092915050565b611ae961139f565b73ffffffffffffffffffffffffffffffffffffffff16611b07610983565b73ffffffffffffffffffffffffffffffffffffffff1614611b5d576040517f08c379a0000000000000000000000000000000000000000000000000000000008152600401611b5490613b50565b60405180910390fd5b565b611b6982826110a1565b5050565b611b77828261247c565b5050565b6000611b86836107e6565b90506000611b93846108b7565b905082600860008673ffffffffffffffffffffffffffffffffffffffff1673ffffffffffffffffffffffffffffffffffffffff16815260200190815260200160002060006101000a81548173ffffffffffffffffffffffffffffffffffffffff021916908373ffffffffffffffffffffffffffffffffffffffff1602179055508273ffffffffffffffffffffffffffffffffffffffff168273ffffffffffffffffffffffffffffffffffffffff168573ffffffffffffffffffffffffffffffffffffffff167f3134e8a2e6d97e929a7e54011ea5485d7d196dd5f0ba4d4ef95803e8e3fc257f60405160405180910390a4611c8f828483612114565b50505050565b6000600560009054906101000a900473ffffffffffffffffffffffffffffffffffffffff16905081600560006101000a81548173ffffffffffffffffffffffffffffffffffffffff021916908373ffffffffffffffffffffffffffffffffffffffff1602179055508173ffffffffffffffffffffffffffffffffffffffff168173ffffffffffffffffffffffffffffffffffffffff167f8be0079c531659141344cd1fd0a4f28419497f9722a3daafe3b4186f6b6457e060405160405180910390a35050565b600081600001549050919050565b6000611d7c611d76611876565b8361249a565b9050919050565b6000806000611d94878787876124cd565b91509150611da1816125b0565b8192505050949350505050565b600080600660008473ffffffffffffffffffffffffffffffffffffffff1673ffffffffffffffffffffffffffffffffffffffff1681526020019081526020016000209050611dfb81611d5b565b9150611e068161271e565b50919050565b60007bffffffffffffffffffffffffffffffffffffffffffffffffffffffff905090565b6000806000858054905090506000808214611eff57611e5b87600184611e5691906131bf565b612441565b6040518060400160405290816000820160009054906101000a900463ffffffff1663ffffffff1663ffffffff1681526020016000820160049054906101000a90047bffffffffffffffffffffffffffffffffffffffffffffffffffffffff167bffffffffffffffffffffffffffffffffffffffffffffffffffffffff167bffffffffffffffffffffffffffffffffffffffffffffffffffffffff1681525050611f3b565b6040518060400160405280600063ffffffff16815260200160007bffffffffffffffffffffffffffffffffffffffffffffffffffffffff168152505b905080602001517bffffffffffffffffffffffffffffffffffffffffffffffffffffffff169350611f7084868863ffffffff16565b9250600082118015611f8b575043816000015163ffffffff16145b1561200557611f998361129b565b611faf88600185611faa91906131bf565b612441565b60000160046101000a8154817bffffffffffffffffffffffffffffffffffffffffffffffffffffffff02191690837bffffffffffffffffffffffffffffffffffffffffffffffffffffffff1602179055506120f5565b86604051806040016040528061201a43611306565b63ffffffff16815260200161202e8661129b565b7bffffffffffffffffffffffffffffffffffffffffffffffffffffffff168152509080600181540180825580915050600190039060005260206000200160009091909190915060008201518160000160006101000a81548163ffffffff021916908363ffffffff16021790555060208201518160000160046101000a8154817bffffffffffffffffffffffffffffffffffffffffffffffffffffffff02191690837bffffffffffffffffffffffffffffffffffffffffffffffffffffffff16021790555050505b5050935093915050565b505050565b61210f838383611359565b505050565b8173ffffffffffffffffffffffffffffffffffffffff168373ffffffffffffffffffffffffffffffffffffffff16141580156121505750600081115b1561230857600073ffffffffffffffffffffffffffffffffffffffff168373ffffffffffffffffffffffffffffffffffffffff161461222e576000806121d7600960008773ffffffffffffffffffffffffffffffffffffffff1673ffffffffffffffffffffffffffffffffffffffff16815260200190815260200160002061138985611e30565b915091508473ffffffffffffffffffffffffffffffffffffffff167fdec2bacdd2f05b59de34da9b523dff8be42e5e38e818c82fdb0bae774387a7248383604051612223929190613b70565b60405180910390a250505b600073ffffffffffffffffffffffffffffffffffffffff168273ffffffffffffffffffffffffffffffffffffffff1614612307576000806122b0600960008673ffffffffffffffffffffffffffffffffffffffff1673ffffffffffffffffffffffffffffffffffffffff16815260200190815260200160002061128585611e30565b915091508373ffffffffffffffffffffffffffffffffffffffff167fdec2bacdd2f05b59de34da9b523dff8be42e5e38e818c82fdb0bae774387a72483836040516122fc929190613b70565b60405180910390a250505b5b505050565b60008383834630604051602001612328959493929190613b99565b6040516020818303038152906040528051906020012090509392505050565b60008082141561235a576000905061243c565b6000600161236784612734565b901c6001901b9050600181848161238157612380613bec565b5b048201901c9050600181848161239a57612399613bec565b5b048201901c905060018184816123b3576123b2613bec565b5b048201901c905060018184816123cc576123cb613bec565b5b048201901c905060018184816123e5576123e4613bec565b5b048201901c905060018184816123fe576123fd613bec565b5b048201901c9050600181848161241757612416613bec565b5b048201901c90506124388182858161243257612431613bec565b5b04612815565b9150505b919050565b60008260005281602060002001905092915050565b600060028284186124679190613c1b565b82841661247491906130fd565b905092915050565b612486828261282e565b612494600a61138983611e30565b50505050565b600082826040516020016124af929190613cc4565b60405160208183030381529060405280519060200120905092915050565b6000807f7fffffffffffffffffffffffffffffff5d576e7357a4501ddfe92f46681b20a08360001c11156125085760006003915091506125a7565b60006001878787876040516000815260200160405260405161252d9493929190613cfb565b6020604051602081039080840390855afa15801561254f573d6000803e3d6000fd5b505050602060405103519050600073ffffffffffffffffffffffffffffffffffffffff168173ffffffffffffffffffffffffffffffffffffffff16141561259e576000600192509250506125a7565b80600092509250505b94509492505050565b600060048111156125c4576125c3613d40565b5b8160048111156125d7576125d6613d40565b5b14156125e25761271b565b600160048111156125f6576125f5613d40565b5b81600481111561260957612608613d40565b5b141561264a576040517f08c379a000000000000000000000000000000000000000000000000000000000815260040161264190613dbb565b60405180910390fd5b6002600481111561265e5761265d613d40565b5b81600481111561267157612670613d40565b5b14156126b2576040517f08c379a00000000000000000000000000000000000000000000000000000000081526004016126a990613e27565b60405180910390fd5b600360048111156126c6576126c5613d40565b5b8160048111156126d9576126d8613d40565b5b141561271a576040517f08c379a000000000000000000000000000000000000000000000000000000000815260040161271190613eb9565b60405180910390fd5b5b50565b6001816000016000828254019250508190555050565b600080600090506000608084901c111561275657608083901c92506080810190505b6000604084901c111561277157604083901c92506040810190505b6000602084901c111561278c57602083901c92506020810190505b6000601084901c11156127a757601083901c92506010810190505b6000600884901c11156127c257600883901c92506008810190505b6000600484901c11156127dd57600483901c92506004810190505b6000600284901c11156127f857600283901c92506002810190505b6000600184901c111561280c576001810190505b80915050919050565b60008183106128245781612826565b825b905092915050565b600073ffffffffffffffffffffffffffffffffffffffff168273ffffffffffffffffffffffffffffffffffffffff16141561289e576040517f08c379a000000000000000000000000000000000000000000000000000000000815260040161289590613f4b565b60405180910390fd5b6128aa826000836120ff565b60008060008473ffffffffffffffffffffffffffffffffffffffff1673ffffffffffffffffffffffffffffffffffffffff16815260200190815260200160002054905081811015612930576040517f08c379a000000000000000000000000000000000000000000000000000000000815260040161292790613fdd565b60405180910390fd5b8181036000808573ffffffffffffffffffffffffffffffffffffffff1673ffffffffffffffffffffffffffffffffffffffff1681526020019081526020016000208190555081600260008282540392505081905550600073ffffffffffffffffffffffffffffffffffffffff168373ffffffffffffffffffffffffffffffffffffffff167fddf252ad1be2c89b69c2b068fc378daa952ba7f163c4a11628f55a4df523b3ef846040516129e39190612c13565b60405180910390a36129f783600084612104565b505050565b6040518060400160405280600063ffffffff16815260200160007bffffffffffffffffffffffffffffffffffffffffffffffffffffffff1681525090565b600081519050919050565b600082825260208201905092915050565b60005b83811015612a74578082015181840152602081019050612a59565b83811115612a83576000848401525b50505050565b6000601f19601f8301169050919050565b6000612aa582612a3a565b612aaf8185612a45565b9350612abf818560208601612a56565b612ac881612a89565b840191505092915050565b60006020820190508181036000830152612aed8184612a9a565b905092915050565b600080fd5b600073ffffffffffffffffffffffffffffffffffffffff82169050919050565b6000612b2582612afa565b9050919050565b612b3581612b1a565b8114612b4057600080fd5b50565b600081359050612b5281612b2c565b92915050565b6000819050919050565b612b6b81612b58565b8114612b7657600080fd5b50565b600081359050612b8881612b62565b92915050565b60008060408385031215612ba557612ba4612af5565b5b6000612bb385828601612b43565b9250506020612bc485828601612b79565b9150509250929050565b60008115159050919050565b612be381612bce565b82525050565b6000602082019050612bfe6000830184612bda565b92915050565b612c0d81612b58565b82525050565b6000602082019050612c286000830184612c04565b92915050565b600080600060608486031215612c4757612c46612af5565b5b6000612c5586828701612b43565b9350506020612c6686828701612b43565b9250506040612c7786828701612b79565b9150509250925092565b600060ff82169050919050565b612c9781612c81565b82525050565b6000602082019050612cb26000830184612c8e565b92915050565b6000819050919050565b612ccb81612cb8565b82525050565b6000602082019050612ce66000830184612cc2565b92915050565b600060208284031215612d0257612d01612af5565b5b6000612d1084828501612b79565b91505092915050565b600060208284031215612d2f57612d2e612af5565b5b6000612d3d84828501612b43565b91505092915050565b612d4f81612b1a565b82525050565b6000602082019050612d6a6000830184612d46565b92915050565b600063ffffffff82169050919050565b612d8981612d70565b82525050565b6000602082019050612da46000830184612d80565b92915050565b612db381612c81565b8114612dbe57600080fd5b50565b600081359050612dd081612daa565b92915050565b612ddf81612cb8565b8114612dea57600080fd5b50565b600081359050612dfc81612dd6565b92915050565b60008060008060008060c08789031215612e1f57612e1e612af5565b5b6000612e2d89828a01612b43565b9650506020612e3e89828a01612b79565b9550506040612e4f89828a01612b79565b9450506060612e6089828a01612dc1565b9350506080612e7189828a01612ded565b92505060a0612e8289828a01612ded565b9150509295509295509295565b600080600080600080600060e0888a031215612eae57612ead612af5565b5b6000612ebc8a828b01612b43565b9750506020612ecd8a828b01612b43565b9650506040612ede8a828b01612b79565b9550506060612eef8a828b01612b79565b9450506080612f008a828b01612dc1565b93505060a0612f118a828b01612ded565b92505060c0612f228a828b01612ded565b91505092959891949750929550565b60008060408385031215612f4857612f47612af5565b5b6000612f5685828601612b43565b9250506020612f6785828601612b43565b9150509250929050565b612f7a81612d70565b8114612f8557600080fd5b50565b600081359050612f9781612f71565b92915050565b60008060408385031215612fb457612fb3612af5565b5b6000612fc285828601612b43565b9250506020612fd385828601612f88565b9150509250929050565b612fe681612d70565b82525050565b60007bffffffffffffffffffffffffffffffffffffffffffffffffffffffff82169050919050565b61301d81612fec565b82525050565b6040820160008201516130396000850182612fdd565b50602082015161304c6020850182613014565b50505050565b60006040820190506130676000830184613023565b92915050565b7f4e487b7100000000000000000000000000000000000000000000000000000000600052602260045260246000fd5b600060028204905060018216806130b457607f821691505b602082108114156130c8576130c761306d565b5b50919050565b7f4e487b7100000000000000000000000000000000000000000000000000000000600052601160045260246000fd5b600061310882612b58565b915061311383612b58565b9250827fffffffffffffffffffffffffffffffffffffffffffffffffffffffffffffffff03821115613148576131476130ce565b5b828201905092915050565b7f4552433230566f7465733a20626c6f636b206e6f7420796574206d696e656400600082015250565b6000613189601f83612a45565b915061319482613153565b602082019050919050565b600060208201905081810360008301526131b88161317c565b9050919050565b60006131ca82612b58565b91506131d583612b58565b9250828210156131e8576131e76130ce565b5b828203905092915050565b7f4e487b7100000000000000000000000000000000000000000000000000000000600052603260045260246000fd5b7f45524332303a2064656372656173656420616c6c6f77616e63652062656c6f7760008201527f207a65726f000000000000000000000000000000000000000000000000000000602082015250565b600061327e602583612a45565b915061328982613222565b604082019050919050565b600060208201905081810360008301526132ad81613271565b9050919050565b7f4552433230566f7465733a207369676e61747572652065787069726564000000600082015250565b60006132ea601d83612a45565b91506132f5826132b4565b602082019050919050565b60006020820190508181036000830152613319816132dd565b9050919050565b60006080820190506133356000830187612cc2565b6133426020830186612d46565b61334f6040830185612c04565b61335c6060830184612c04565b95945050505050565b7f4552433230566f7465733a20696e76616c6964206e6f6e636500000000000000600082015250565b600061339b601983612a45565b91506133a682613365565b602082019050919050565b600060208201905081810360008301526133ca8161338e565b9050919050565b7f45524332305065726d69743a206578706972656420646561646c696e65000000600082015250565b6000613407601d83612a45565b9150613412826133d1565b602082019050919050565b60006020820190508181036000830152613436816133fa565b9050919050565b600060c0820190506134526000830189612cc2565b61345f6020830188612d46565b61346c6040830187612d46565b6134796060830186612c04565b6134866080830185612c04565b61349360a0830184612c04565b979650505050505050565b7f45524332305065726d69743a20696e76616c6964207369676e61747572650000600082015250565b60006134d4601e83612a45565b91506134df8261349e565b602082019050919050565b60006020820190508181036000830152613503816134c7565b9050919050565b7f4f776e61626c653a206e6577206f776e657220697320746865207a65726f206160008201527f6464726573730000000000000000000000000000000000000000000000000000602082015250565b6000613566602683612a45565b91506135718261350a565b604082019050919050565b6000602082019050818103600083015261359581613559565b9050919050565b7f4552433230566f7465733a20746f74616c20737570706c79207269736b73206f60008201527f766572666c6f77696e6720766f74657300000000000000000000000000000000602082015250565b60006135f8603083612a45565b91506136038261359c565b604082019050919050565b60006020820190508181036000830152613627816135eb565b9050919050565b7f45524332303a206d696e7420746f20746865207a65726f206164647265737300600082015250565b6000613664601f83612a45565b915061366f8261362e565b602082019050919050565b6000602082019050818103600083015261369381613657565b9050919050565b7f53616665436173743a2076616c756520646f65736e27742066697420696e203260008201527f3234206269747300000000000000000000000000000000000000000000000000602082015250565b60006136f6602783612a45565b91506137018261369a565b604082019050919050565b60006020820190508181036000830152613725816136e9565b9050919050565b7f53616665436173743a2076616c756520646f65736e27742066697420696e203360008201527f3220626974730000000000000000000000000000000000000000000000000000602082015250565b6000613788602683612a45565b91506137938261372c565b604082019050919050565b600060208201905081810360008301526137b78161377b565b9050919050565b7f45524332303a20617070726f76652066726f6d20746865207a65726f2061646460008201527f7265737300000000000000000000000000000000000000000000000000000000602082015250565b600061381a602483612a45565b9150613825826137be565b604082019050919050565b600060208201905081810360008301526138498161380d565b9050919050565b7f45524332303a20617070726f766520746f20746865207a65726f20616464726560008201527f7373000000000000000000000000000000000000000000000000000000000000602082015250565b60006138ac602283612a45565b91506138b782613850565b604082019050919050565b600060208201905081810360008301526138db8161389f565b9050919050565b7f45524332303a20696e73756666696369656e7420616c6c6f77616e6365000000600082015250565b6000613918601d83612a45565b9150613923826138e2565b602082019050919050565b600060208201905081810360008301526139478161390b565b9050919050565b7f45524332303a207472616e736665722066726f6d20746865207a65726f20616460008201527f6472657373000000000000000000000000000000000000000000000000000000602082015250565b60006139aa602583612a45565b91506139b58261394e565b604082019050919050565b600060208201905081810360008301526139d98161399d565b9050919050565b7f45524332303a207472616e7366657220746f20746865207a65726f206164647260008201527f6573730000000000000000000000000000000000000000000000000000000000602082015250565b6000613a3c602383612a45565b9150613a47826139e0565b604082019050919050565b60006020820190508181036000830152613a6b81613a2f565b9050919050565b7f45524332303a207472616e7366657220616d6f756e742065786365656473206260008201527f616c616e63650000000000000000000000000000000000000000000000000000602082015250565b6000613ace602683612a45565b9150613ad982613a72565b604082019050919050565b60006020820190508181036000830152613afd81613ac1565b9050919050565b7f4f776e61626c653a2063616c6c6572206973206e6f7420746865206f776e6572600082015250565b6000613b3a602083612a45565b9150613b4582613b04565b602082019050919050565b60006020820190508181036000830152613b6981613b2d565b9050919050565b6000604082019050613b856000830185612c04565b613b926020830184612c04565b9392505050565b600060a082019050613bae6000830188612cc2565b613bbb6020830187612cc2565b613bc86040830186612cc2565b613bd56060830185612c04565b613be26080830184612d46565b9695505050505050565b7f4e487b7100000000000000000000000000000000000000000000000000000000600052601260045260246000fd5b6000613c2682612b58565b9150613c3183612b58565b925082613c4157613c40613bec565b5b828204905092915050565b600081905092915050565b7f1901000000000000000000000000000000000000000000000000000000000000600082015250565b6000613c8d600283613c4c565b9150613c9882613c57565b600282019050919050565b6000819050919050565b613cbe613cb982612cb8565b613ca3565b82525050565b6000613ccf82613c80565b9150613cdb8285613cad565b602082019150613ceb8284613cad565b6020820191508190509392505050565b6000608082019050613d106000830187612cc2565b613d1d6020830186612c8e565b613d2a6040830185612cc2565b613d376060830184612cc2565b95945050505050565b7f4e487b7100000000000000000000000000000000000000000000000000000000600052602160045260246000fd5b7f45434453413a20696e76616c6964207369676e61747572650000000000000000600082015250565b6000613da5601883612a45565b9150613db082613d6f565b602082019050919050565b60006020820190508181036000830152613dd481613d98565b9050919050565b7f45434453413a20696e76616c6964207369676e6174757265206c656e67746800600082015250565b6000613e11601f83612a45565b9150613e1c82613ddb565b602082019050919050565b60006020820190508181036000830152613e4081613e04565b9050919050565b7f45434453413a20696e76616c6964207369676e6174757265202773272076616c60008201527f7565000000000000000000000000000000000000000000000000000000000000602082015250565b6000613ea3602283612a45565b9150613eae82613e47565b604082019050919050565b60006020820190508181036000830152613ed281613e96565b9050919050565b7f45524332303a206275726e2066726f6d20746865207a65726f2061646472657360008201527f7300000000000000000000000000000000000000000000000000000000000000602082015250565b6000613f35602183612a45565b9150613f4082613ed9565b604082019050919050565b60006020820190508181036000830152613f6481613f28565b9050919050565b7f45524332303a206275726e20616d6f756e7420657863656564732062616c616e60008201527f6365000000000000000000000000000000000000000000000000000000000000602082015250565b6000613fc7602283612a45565b9150613fd282613f6b565b604082019050919050565b60006020820190508181036000830152613ff681613fba565b905091905056fea26469706673582212207cb9aa28db8de24ad61c6140bfbbbc15e8207c6319e68f611b8e32896ed478c064736f6c63430008090033",
  "immutableReferences": {
    "2468": [
      {
        "length": 32,
        "start": 6393
      }
    ],
    "2470": [
      {
        "length": 32,
        "start": 6352
      }
    ],
    "2472": [
      {
        "length": 32,
        "start": 6266
      }
    ],
    "2474": [
      {
        "length": 32,
        "start": 6469
      }
    ],
    "2476": [
      {
        "length": 32,
        "start": 6502
      }
    ],
    "2478": [
      {
        "length": 32,
        "start": 6436
      }
    ]
  },
  "source": "// SPDX-License-Identifier: MIT\npragma solidity ^0.8.9;\n\nimport \"@openzeppelin/contracts/token/ERC20/ERC20.sol\";\nimport \"@openzeppelin/contracts/token/ERC20/extensions/ERC20Burnable.sol\";\nimport \"@openzeppelin/contracts/access/Ownable.sol\";\nimport \"@openzeppelin/contracts/token/ERC20/extensions/draft-ERC20Permit.sol\";\nimport \"@openzeppelin/contracts/token/ERC20/extensions/ERC20Votes.sol\";\n\ncontract SUFriendVote is ERC20, ERC20Burnable, Ownable, ERC20Permit, ERC20Votes {\n    constructor() ERC20(\"SUFriendVote\", \"SUFV\") ERC20Permit(\"SUFriendVote\") {\n        _mint(msg.sender, 100 * 10 ** decimals());\n    }\n\n    function mint(address to, uint256 amount) public onlyOwner {\n        _mint(to, amount);\n    }\n\n    // The following functions are overrides required by Solidity.\n\n    function _afterTokenTransfer(address from, address to, uint256 amount)\n        internal\n        override(ERC20, ERC20Votes)\n    {\n        super._afterTokenTransfer(from, to, amount);\n    }\n\n    function _mint(address to, uint256 amount)\n        internal\n        override(ERC20, ERC20Votes)\n    {\n        super._mint(to, amount);\n    }\n\n    function _burn(address account, uint256 amount)\n        internal\n        override(ERC20, ERC20Votes)\n    {\n        super._burn(account, amount);\n    }\n}\n",
  "sourcePath": "/Users/ykc/Documents/Worksplace/Fall2022/CS48001/Project/demo/contracts/SUFriendVote.sol",
  "compiler": {
    "name": "solc",
    "version": "0.8.9+commit.e5eed63a.Emscripten.clang"
  },
  "schemaVersion": "3.4.10",
  "updatedAt": "2023-01-16T11:59:21.235Z",
  "networkType": "ethereum",
  "devdoc": {
    "kind": "dev",
    "methods": {
      "DOMAIN_SEPARATOR()": {
        "details": "See {IERC20Permit-DOMAIN_SEPARATOR}."
      },
      "allowance(address,address)": {
        "details": "See {IERC20-allowance}."
      },
      "approve(address,uint256)": {
        "details": "See {IERC20-approve}. NOTE: If `amount` is the maximum `uint256`, the allowance is not updated on `transferFrom`. This is semantically equivalent to an infinite approval. Requirements: - `spender` cannot be the zero address."
      },
      "balanceOf(address)": {
        "details": "See {IERC20-balanceOf}."
      },
      "burn(uint256)": {
        "details": "Destroys `amount` tokens from the caller. See {ERC20-_burn}."
      },
      "burnFrom(address,uint256)": {
        "details": "Destroys `amount` tokens from `account`, deducting from the caller's allowance. See {ERC20-_burn} and {ERC20-allowance}. Requirements: - the caller must have allowance for ``accounts``'s tokens of at least `amount`."
      },
      "checkpoints(address,uint32)": {
        "details": "Get the `pos`-th checkpoint for `account`."
      },
      "decimals()": {
        "details": "Returns the number of decimals used to get its user representation. For example, if `decimals` equals `2`, a balance of `505` tokens should be displayed to a user as `5.05` (`505 / 10 ** 2`). Tokens usually opt for a value of 18, imitating the relationship between Ether and Wei. This is the value {ERC20} uses, unless this function is overridden; NOTE: This information is only used for _display_ purposes: it in no way affects any of the arithmetic of the contract, including {IERC20-balanceOf} and {IERC20-transfer}."
      },
      "decreaseAllowance(address,uint256)": {
        "details": "Atomically decreases the allowance granted to `spender` by the caller. This is an alternative to {approve} that can be used as a mitigation for problems described in {IERC20-approve}. Emits an {Approval} event indicating the updated allowance. Requirements: - `spender` cannot be the zero address. - `spender` must have allowance for the caller of at least `subtractedValue`."
      },
      "delegate(address)": {
        "details": "Delegate votes from the sender to `delegatee`."
      },
      "delegateBySig(address,uint256,uint256,uint8,bytes32,bytes32)": {
        "details": "Delegates votes from signer to `delegatee`"
      },
      "delegates(address)": {
        "details": "Get the address `account` is currently delegating to."
      },
      "getPastTotalSupply(uint256)": {
        "details": "Retrieve the `totalSupply` at the end of `blockNumber`. Note, this value is the sum of all balances. It is but NOT the sum of all the delegated votes! Requirements: - `blockNumber` must have been already mined"
      },
      "getPastVotes(address,uint256)": {
        "details": "Retrieve the number of votes for `account` at the end of `blockNumber`. Requirements: - `blockNumber` must have been already mined"
      },
      "getVotes(address)": {
        "details": "Gets the current votes balance for `account`"
      },
      "increaseAllowance(address,uint256)": {
        "details": "Atomically increases the allowance granted to `spender` by the caller. This is an alternative to {approve} that can be used as a mitigation for problems described in {IERC20-approve}. Emits an {Approval} event indicating the updated allowance. Requirements: - `spender` cannot be the zero address."
      },
      "name()": {
        "details": "Returns the name of the token."
      },
      "nonces(address)": {
        "details": "See {IERC20Permit-nonces}."
      },
      "numCheckpoints(address)": {
        "details": "Get number of checkpoints for `account`."
      },
      "owner()": {
        "details": "Returns the address of the current owner."
      },
      "permit(address,address,uint256,uint256,uint8,bytes32,bytes32)": {
        "details": "See {IERC20Permit-permit}."
      },
      "renounceOwnership()": {
        "details": "Leaves the contract without owner. It will not be possible to call `onlyOwner` functions anymore. Can only be called by the current owner. NOTE: Renouncing ownership will leave the contract without an owner, thereby removing any functionality that is only available to the owner."
      },
      "symbol()": {
        "details": "Returns the symbol of the token, usually a shorter version of the name."
      },
      "totalSupply()": {
        "details": "See {IERC20-totalSupply}."
      },
      "transfer(address,uint256)": {
        "details": "See {IERC20-transfer}. Requirements: - `to` cannot be the zero address. - the caller must have a balance of at least `amount`."
      },
      "transferFrom(address,address,uint256)": {
        "details": "See {IERC20-transferFrom}. Emits an {Approval} event indicating the updated allowance. This is not required by the EIP. See the note at the beginning of {ERC20}. NOTE: Does not update the allowance if the current allowance is the maximum `uint256`. Requirements: - `from` and `to` cannot be the zero address. - `from` must have a balance of at least `amount`. - the caller must have allowance for ``from``'s tokens of at least `amount`."
      },
      "transferOwnership(address)": {
        "details": "Transfers ownership of the contract to a new account (`newOwner`). Can only be called by the current owner."
      }
    },
    "version": 1
  },
  "userdoc": {
    "kind": "user",
    "methods": {},
    "version": 1
  }
}