{
  "contractName": "Auth",
  "abi": [
    {
      "inputs": [
        {
          "internalType": "address",
          "name": "deployer",
          "type": "address"
        }
      ],
      "stateMutability": "nonpayable",
      "type": "constructor"
    },
    {
      "inputs": [
        {
          "internalType": "address",
          "name": "user",
          "type": "address"
        }
      ],
      "name": "isAdministrator",
      "outputs": [
        {
          "internalType": "bool",
          "name": "",
          "type": "bool"
        }
      ],
      "stateMutability": "view",
      "type": "function"
    }
  ],
  "bytecode": "0x608060405234801561001057600080fd5b506040516102cc3803806102cc833981810160405281019061003291906100db565b806000806101000a81548173ffffffffffffffffffffffffffffffffffffffff021916908373ffffffffffffffffffffffffffffffffffffffff16021790555050610108565b600080fd5b600073ffffffffffffffffffffffffffffffffffffffff82169050919050565b60006100a88261007d565b9050919050565b6100b88161009d565b81146100c357600080fd5b50565b6000815190506100d5816100af565b92915050565b6000602082840312156100f1576100f0610078565b5b60006100ff848285016100c6565b91505092915050565b6101b5806101176000396000f3fe608060405234801561001057600080fd5b506004361061002b5760003560e01c80630a2eb30114610030575b600080fd5b61004a6004803603810190610045919061011c565b610060565b6040516100579190610164565b60405180910390f35b60008060009054906101000a900473ffffffffffffffffffffffffffffffffffffffff1673ffffffffffffffffffffffffffffffffffffffff168273ffffffffffffffffffffffffffffffffffffffff16149050919050565b600080fd5b600073ffffffffffffffffffffffffffffffffffffffff82169050919050565b60006100e9826100be565b9050919050565b6100f9816100de565b811461010457600080fd5b50565b600081359050610116816100f0565b92915050565b600060208284031215610132576101316100b9565b5b600061014084828501610107565b91505092915050565b60008115159050919050565b61015e81610149565b82525050565b60006020820190506101796000830184610155565b9291505056fea2646970667358221220886c6d003a62d46000cac53506aca422032164e3fa4b49fcb560e6a0e84bae0064736f6c63430008110033",
  "immutableReferences": {},
  "source": "// contracts/access-control/Auth.sol\n// SPDX-License-Identifier: MIT\npragma solidity ^0.8.0;\n\ncontract Auth {\n    address private _administrator;\n\n    constructor(address deployer) {\n        // Make the deployer of the contract the administrator\n        _administrator = deployer;\n    }\n\n    function isAdministrator(address user) public view returns (bool) {\n        return user == _administrator;\n    }\n}",
  "sourcePath": "/Users/ykc/Documents/Worksplace/Fall2022/CS48001/Project/SUFriends/contracts/Auth.sol",
  "compiler": {
    "name": "solc",
    "version": "0.8.17+commit.8df45f5f.Emscripten.clang"
  },
  "schemaVersion": "3.4.10",
  "updatedAt": "2022-12-03T16:59:35.789Z",
  "devdoc": {
    "kind": "dev",
    "methods": {},
    "version": 1
  },
  "userdoc": {
    "kind": "user",
    "methods": {},
    "version": 1
  }
}