{
  "contractName": "GovernerContract",
  "abi": [
    {
      "inputs": [
        {
          "internalType": "contract IVotes",
          "name": "_token",
          "type": "address"
        },
        {
          "internalType": "contract TimelockController",
          "name": "_timelock",
          "type": "address"
        },
        {
          "internalType": "uint256",
          "name": "_votingDelay",
          "type": "uint256"
        },
        {
          "internalType": "uint256",
          "name": "_votingPeriod",
          "type": "uint256"
        },
        {
          "internalType": "uint256",
          "name": "_quorumPercentage",
          "type": "uint256"
        }
      ],
      "stateMutability": "nonpayable",
      "type": "constructor"
    },
    {
      "inputs": [],
      "name": "Empty",
      "type": "error"
    },
    {
      "anonymous": false,
      "inputs": [
        {
          "indexed": false,
          "internalType": "uint256",
          "name": "proposalId",
          "type": "uint256"
        }
      ],
      "name": "ProposalCanceled",
      "type": "event"
    },
    {
      "anonymous": false,
      "inputs": [
        {
          "indexed": false,
          "internalType": "uint256",
          "name": "proposalId",
          "type": "uint256"
        },
        {
          "indexed": false,
          "internalType": "address",
          "name": "proposer",
          "type": "address"
        },
        {
          "indexed": false,
          "internalType": "address[]",
          "name": "targets",
          "type": "address[]"
        },
        {
          "indexed": false,
          "internalType": "uint256[]",
          "name": "values",
          "type": "uint256[]"
        },
        {
          "indexed": false,
          "internalType": "string[]",
          "name": "signatures",
          "type": "string[]"
        },
        {
          "indexed": false,
          "internalType": "bytes[]",
          "name": "calldatas",
          "type": "bytes[]"
        },
        {
          "indexed": false,
          "internalType": "uint256",
          "name": "startBlock",
          "type": "uint256"
        },
        {
          "indexed": false,
          "internalType": "uint256",
          "name": "endBlock",
          "type": "uint256"
        },
        {
          "indexed": false,
          "internalType": "string",
          "name": "description",
          "type": "string"
        }
      ],
      "name": "ProposalCreated",
      "type": "event"
    },
    {
      "anonymous": false,
      "inputs": [
        {
          "indexed": false,
          "internalType": "uint256",
          "name": "proposalId",
          "type": "uint256"
        }
      ],
      "name": "ProposalExecuted",
      "type": "event"
    },
    {
      "anonymous": false,
      "inputs": [
        {
          "indexed": false,
          "internalType": "uint256",
          "name": "proposalId",
          "type": "uint256"
        },
        {
          "indexed": false,
          "internalType": "uint256",
          "name": "eta",
          "type": "uint256"
        }
      ],
      "name": "ProposalQueued",
      "type": "event"
    },
    {
      "anonymous": false,
      "inputs": [
        {
          "indexed": false,
          "internalType": "uint256",
          "name": "oldProposalThreshold",
          "type": "uint256"
        },
        {
          "indexed": false,
          "internalType": "uint256",
          "name": "newProposalThreshold",
          "type": "uint256"
        }
      ],
      "name": "ProposalThresholdSet",
      "type": "event"
    },
    {
      "anonymous": false,
      "inputs": [
        {
          "indexed": false,
          "internalType": "uint256",
          "name": "oldQuorumNumerator",
          "type": "uint256"
        },
        {
          "indexed": false,
          "internalType": "uint256",
          "name": "newQuorumNumerator",
          "type": "uint256"
        }
      ],
      "name": "QuorumNumeratorUpdated",
      "type": "event"
    },
    {
      "anonymous": false,
      "inputs": [
        {
          "indexed": false,
          "internalType": "address",
          "name": "oldTimelock",
          "type": "address"
        },
        {
          "indexed": false,
          "internalType": "address",
          "name": "newTimelock",
          "type": "address"
        }
      ],
      "name": "TimelockChange",
      "type": "event"
    },
    {
      "anonymous": false,
      "inputs": [
        {
          "indexed": true,
          "internalType": "address",
          "name": "voter",
          "type": "address"
        },
        {
          "indexed": false,
          "internalType": "uint256",
          "name": "proposalId",
          "type": "uint256"
        },
        {
          "indexed": false,
          "internalType": "uint8",
          "name": "support",
          "type": "uint8"
        },
        {
          "indexed": false,
          "internalType": "uint256",
          "name": "weight",
          "type": "uint256"
        },
        {
          "indexed": false,
          "internalType": "string",
          "name": "reason",
          "type": "string"
        }
      ],
      "name": "VoteCast",
      "type": "event"
    },
    {
      "anonymous": false,
      "inputs": [
        {
          "indexed": true,
          "internalType": "address",
          "name": "voter",
          "type": "address"
        },
        {
          "indexed": false,
          "internalType": "uint256",
          "name": "proposalId",
          "type": "uint256"
        },
        {
          "indexed": false,
          "internalType": "uint8",
          "name": "support",
          "type": "uint8"
        },
        {
          "indexed": false,
          "internalType": "uint256",
          "name": "weight",
          "type": "uint256"
        },
        {
          "indexed": false,
          "internalType": "string",
          "name": "reason",
          "type": "string"
        },
        {
          "indexed": false,
          "internalType": "bytes",
          "name": "params",
          "type": "bytes"
        }
      ],
      "name": "VoteCastWithParams",
      "type": "event"
    },
    {
      "anonymous": false,
      "inputs": [
        {
          "indexed": false,
          "internalType": "uint256",
          "name": "oldVotingDelay",
          "type": "uint256"
        },
        {
          "indexed": false,
          "internalType": "uint256",
          "name": "newVotingDelay",
          "type": "uint256"
        }
      ],
      "name": "VotingDelaySet",
      "type": "event"
    },
    {
      "anonymous": false,
      "inputs": [
        {
          "indexed": false,
          "internalType": "uint256",
          "name": "oldVotingPeriod",
          "type": "uint256"
        },
        {
          "indexed": false,
          "internalType": "uint256",
          "name": "newVotingPeriod",
          "type": "uint256"
        }
      ],
      "name": "VotingPeriodSet",
      "type": "event"
    },
    {
      "inputs": [],
      "name": "BALLOT_TYPEHASH",
      "outputs": [
        {
          "internalType": "bytes32",
          "name": "",
          "type": "bytes32"
        }
      ],
      "stateMutability": "view",
      "type": "function"
    },
    {
      "inputs": [],
      "name": "COUNTING_MODE",
      "outputs": [
        {
          "internalType": "string",
          "name": "",
          "type": "string"
        }
      ],
      "stateMutability": "pure",
      "type": "function"
    },
    {
      "inputs": [],
      "name": "EXTENDED_BALLOT_TYPEHASH",
      "outputs": [
        {
          "internalType": "bytes32",
          "name": "",
          "type": "bytes32"
        }
      ],
      "stateMutability": "view",
      "type": "function"
    },
    {
      "inputs": [
        {
          "internalType": "uint256",
          "name": "proposalId",
          "type": "uint256"
        },
        {
          "internalType": "uint8",
          "name": "support",
          "type": "uint8"
        }
      ],
      "name": "castVote",
      "outputs": [
        {
          "internalType": "uint256",
          "name": "",
          "type": "uint256"
        }
      ],
      "stateMutability": "nonpayable",
      "type": "function"
    },
    {
      "inputs": [
        {
          "internalType": "uint256",
          "name": "proposalId",
          "type": "uint256"
        },
        {
          "internalType": "uint8",
          "name": "support",
          "type": "uint8"
        },
        {
          "internalType": "uint8",
          "name": "v",
          "type": "uint8"
        },
        {
          "internalType": "bytes32",
          "name": "r",
          "type": "bytes32"
        },
        {
          "internalType": "bytes32",
          "name": "s",
          "type": "bytes32"
        }
      ],
      "name": "castVoteBySig",
      "outputs": [
        {
          "internalType": "uint256",
          "name": "",
          "type": "uint256"
        }
      ],
      "stateMutability": "nonpayable",
      "type": "function"
    },
    {
      "inputs": [
        {
          "internalType": "uint256",
          "name": "proposalId",
          "type": "uint256"
        },
        {
          "internalType": "uint8",
          "name": "support",
          "type": "uint8"
        },
        {
          "internalType": "string",
          "name": "reason",
          "type": "string"
        }
      ],
      "name": "castVoteWithReason",
      "outputs": [
        {
          "internalType": "uint256",
          "name": "",
          "type": "uint256"
        }
      ],
      "stateMutability": "nonpayable",
      "type": "function"
    },
    {
      "inputs": [
        {
          "internalType": "uint256",
          "name": "proposalId",
          "type": "uint256"
        },
        {
          "internalType": "uint8",
          "name": "support",
          "type": "uint8"
        },
        {
          "internalType": "string",
          "name": "reason",
          "type": "string"
        },
        {
          "internalType": "bytes",
          "name": "params",
          "type": "bytes"
        }
      ],
      "name": "castVoteWithReasonAndParams",
      "outputs": [
        {
          "internalType": "uint256",
          "name": "",
          "type": "uint256"
        }
      ],
      "stateMutability": "nonpayable",
      "type": "function"
    },
    {
      "inputs": [
        {
          "internalType": "uint256",
          "name": "proposalId",
          "type": "uint256"
        },
        {
          "internalType": "uint8",
          "name": "support",
          "type": "uint8"
        },
        {
          "internalType": "string",
          "name": "reason",
          "type": "string"
        },
        {
          "internalType": "bytes",
          "name": "params",
          "type": "bytes"
        },
        {
          "internalType": "uint8",
          "name": "v",
          "type": "uint8"
        },
        {
          "internalType": "bytes32",
          "name": "r",
          "type": "bytes32"
        },
        {
          "internalType": "bytes32",
          "name": "s",
          "type": "bytes32"
        }
      ],
      "name": "castVoteWithReasonAndParamsBySig",
      "outputs": [
        {
          "internalType": "uint256",
          "name": "",
          "type": "uint256"
        }
      ],
      "stateMutability": "nonpayable",
      "type": "function"
    },
    {
      "inputs": [
        {
          "internalType": "address[]",
          "name": "targets",
          "type": "address[]"
        },
        {
          "internalType": "uint256[]",
          "name": "values",
          "type": "uint256[]"
        },
        {
          "internalType": "bytes[]",
          "name": "calldatas",
          "type": "bytes[]"
        },
        {
          "internalType": "bytes32",
          "name": "descriptionHash",
          "type": "bytes32"
        }
      ],
      "name": "execute",
      "outputs": [
        {
          "internalType": "uint256",
          "name": "",
          "type": "uint256"
        }
      ],
      "stateMutability": "payable",
      "type": "function"
    },
    {
      "inputs": [
        {
          "internalType": "address",
          "name": "account",
          "type": "address"
        },
        {
          "internalType": "uint256",
          "name": "blockNumber",
          "type": "uint256"
        }
      ],
      "name": "getVotes",
      "outputs": [
        {
          "internalType": "uint256",
          "name": "",
          "type": "uint256"
        }
      ],
      "stateMutability": "view",
      "type": "function"
    },
    {
      "inputs": [
        {
          "internalType": "address",
          "name": "account",
          "type": "address"
        },
        {
          "internalType": "uint256",
          "name": "blockNumber",
          "type": "uint256"
        },
        {
          "internalType": "bytes",
          "name": "params",
          "type": "bytes"
        }
      ],
      "name": "getVotesWithParams",
      "outputs": [
        {
          "internalType": "uint256",
          "name": "",
          "type": "uint256"
        }
      ],
      "stateMutability": "view",
      "type": "function"
    },
    {
      "inputs": [
        {
          "internalType": "uint256",
          "name": "proposalId",
          "type": "uint256"
        },
        {
          "internalType": "address",
          "name": "account",
          "type": "address"
        }
      ],
      "name": "hasVoted",
      "outputs": [
        {
          "internalType": "bool",
          "name": "",
          "type": "bool"
        }
      ],
      "stateMutability": "view",
      "type": "function"
    },
    {
      "inputs": [
        {
          "internalType": "address[]",
          "name": "targets",
          "type": "address[]"
        },
        {
          "internalType": "uint256[]",
          "name": "values",
          "type": "uint256[]"
        },
        {
          "internalType": "bytes[]",
          "name": "calldatas",
          "type": "bytes[]"
        },
        {
          "internalType": "bytes32",
          "name": "descriptionHash",
          "type": "bytes32"
        }
      ],
      "name": "hashProposal",
      "outputs": [
        {
          "internalType": "uint256",
          "name": "",
          "type": "uint256"
        }
      ],
      "stateMutability": "pure",
      "type": "function"
    },
    {
      "inputs": [],
      "name": "name",
      "outputs": [
        {
          "internalType": "string",
          "name": "",
          "type": "string"
        }
      ],
      "stateMutability": "view",
      "type": "function"
    },
    {
      "inputs": [
        {
          "internalType": "address",
          "name": "",
          "type": "address"
        },
        {
          "internalType": "address",
          "name": "",
          "type": "address"
        },
        {
          "internalType": "uint256[]",
          "name": "",
          "type": "uint256[]"
        },
        {
          "internalType": "uint256[]",
          "name": "",
          "type": "uint256[]"
        },
        {
          "internalType": "bytes",
          "name": "",
          "type": "bytes"
        }
      ],
      "name": "onERC1155BatchReceived",
      "outputs": [
        {
          "internalType": "bytes4",
          "name": "",
          "type": "bytes4"
        }
      ],
      "stateMutability": "nonpayable",
      "type": "function"
    },
    {
      "inputs": [
        {
          "internalType": "address",
          "name": "",
          "type": "address"
        },
        {
          "internalType": "address",
          "name": "",
          "type": "address"
        },
        {
          "internalType": "uint256",
          "name": "",
          "type": "uint256"
        },
        {
          "internalType": "uint256",
          "name": "",
          "type": "uint256"
        },
        {
          "internalType": "bytes",
          "name": "",
          "type": "bytes"
        }
      ],
      "name": "onERC1155Received",
      "outputs": [
        {
          "internalType": "bytes4",
          "name": "",
          "type": "bytes4"
        }
      ],
      "stateMutability": "nonpayable",
      "type": "function"
    },
    {
      "inputs": [
        {
          "internalType": "address",
          "name": "",
          "type": "address"
        },
        {
          "internalType": "address",
          "name": "",
          "type": "address"
        },
        {
          "internalType": "uint256",
          "name": "",
          "type": "uint256"
        },
        {
          "internalType": "bytes",
          "name": "",
          "type": "bytes"
        }
      ],
      "name": "onERC721Received",
      "outputs": [
        {
          "internalType": "bytes4",
          "name": "",
          "type": "bytes4"
        }
      ],
      "stateMutability": "nonpayable",
      "type": "function"
    },
    {
      "inputs": [
        {
          "internalType": "uint256",
          "name": "proposalId",
          "type": "uint256"
        }
      ],
      "name": "proposalDeadline",
      "outputs": [
        {
          "internalType": "uint256",
          "name": "",
          "type": "uint256"
        }
      ],
      "stateMutability": "view",
      "type": "function"
    },
    {
      "inputs": [
        {
          "internalType": "uint256",
          "name": "proposalId",
          "type": "uint256"
        }
      ],
      "name": "proposalEta",
      "outputs": [
        {
          "internalType": "uint256",
          "name": "",
          "type": "uint256"
        }
      ],
      "stateMutability": "view",
      "type": "function"
    },
    {
      "inputs": [
        {
          "internalType": "uint256",
          "name": "proposalId",
          "type": "uint256"
        }
      ],
      "name": "proposalSnapshot",
      "outputs": [
        {
          "internalType": "uint256",
          "name": "",
          "type": "uint256"
        }
      ],
      "stateMutability": "view",
      "type": "function"
    },
    {
      "inputs": [
        {
          "internalType": "uint256",
          "name": "proposalId",
          "type": "uint256"
        }
      ],
      "name": "proposalVotes",
      "outputs": [
        {
          "internalType": "uint256",
          "name": "againstVotes",
          "type": "uint256"
        },
        {
          "internalType": "uint256",
          "name": "forVotes",
          "type": "uint256"
        },
        {
          "internalType": "uint256",
          "name": "abstainVotes",
          "type": "uint256"
        }
      ],
      "stateMutability": "view",
      "type": "function"
    },
    {
      "inputs": [
        {
          "internalType": "address[]",
          "name": "targets",
          "type": "address[]"
        },
        {
          "internalType": "uint256[]",
          "name": "values",
          "type": "uint256[]"
        },
        {
          "internalType": "bytes[]",
          "name": "calldatas",
          "type": "bytes[]"
        },
        {
          "internalType": "bytes32",
          "name": "descriptionHash",
          "type": "bytes32"
        }
      ],
      "name": "queue",
      "outputs": [
        {
          "internalType": "uint256",
          "name": "",
          "type": "uint256"
        }
      ],
      "stateMutability": "nonpayable",
      "type": "function"
    },
    {
      "inputs": [],
      "name": "quorumDenominator",
      "outputs": [
        {
          "internalType": "uint256",
          "name": "",
          "type": "uint256"
        }
      ],
      "stateMutability": "view",
      "type": "function"
    },
    {
      "inputs": [
        {
          "internalType": "uint256",
          "name": "blockNumber",
          "type": "uint256"
        }
      ],
      "name": "quorumNumerator",
      "outputs": [
        {
          "internalType": "uint256",
          "name": "",
          "type": "uint256"
        }
      ],
      "stateMutability": "view",
      "type": "function"
    },
    {
      "inputs": [],
      "name": "quorumNumerator",
      "outputs": [
        {
          "internalType": "uint256",
          "name": "",
          "type": "uint256"
        }
      ],
      "stateMutability": "view",
      "type": "function"
    },
    {
      "inputs": [
        {
          "internalType": "address",
          "name": "target",
          "type": "address"
        },
        {
          "internalType": "uint256",
          "name": "value",
          "type": "uint256"
        },
        {
          "internalType": "bytes",
          "name": "data",
          "type": "bytes"
        }
      ],
      "name": "relay",
      "outputs": [],
      "stateMutability": "payable",
      "type": "function"
    },
    {
      "inputs": [
        {
          "internalType": "uint256",
          "name": "newProposalThreshold",
          "type": "uint256"
        }
      ],
      "name": "setProposalThreshold",
      "outputs": [],
      "stateMutability": "nonpayable",
      "type": "function"
    },
    {
      "inputs": [
        {
          "internalType": "uint256",
          "name": "newVotingDelay",
          "type": "uint256"
        }
      ],
      "name": "setVotingDelay",
      "outputs": [],
      "stateMutability": "nonpayable",
      "type": "function"
    },
    {
      "inputs": [
        {
          "internalType": "uint256",
          "name": "newVotingPeriod",
          "type": "uint256"
        }
      ],
      "name": "setVotingPeriod",
      "outputs": [],
      "stateMutability": "nonpayable",
      "type": "function"
    },
    {
      "inputs": [],
      "name": "timelock",
      "outputs": [
        {
          "internalType": "address",
          "name": "",
          "type": "address"
        }
      ],
      "stateMutability": "view",
      "type": "function"
    },
    {
      "inputs": [],
      "name": "token",
      "outputs": [
        {
          "internalType": "contract IVotes",
          "name": "",
          "type": "address"
        }
      ],
      "stateMutability": "view",
      "type": "function"
    },
    {
      "inputs": [
        {
          "internalType": "uint256",
          "name": "newQuorumNumerator",
          "type": "uint256"
        }
      ],
      "name": "updateQuorumNumerator",
      "outputs": [],
      "stateMutability": "nonpayable",
      "type": "function"
    },
    {
      "inputs": [
        {
          "internalType": "contract TimelockController",
          "name": "newTimelock",
          "type": "address"
        }
      ],
      "name": "updateTimelock",
      "outputs": [],
      "stateMutability": "nonpayable",
      "type": "function"
    },
    {
      "inputs": [],
      "name": "version",
      "outputs": [
        {
          "internalType": "string",
          "name": "",
          "type": "string"
        }
      ],
      "stateMutability": "view",
      "type": "function"
    },
    {
      "stateMutability": "payable",
      "type": "receive"
    },
    {
      "inputs": [],
      "name": "votingDelay",
      "outputs": [
        {
          "internalType": "uint256",
          "name": "",
          "type": "uint256"
        }
      ],
      "stateMutability": "view",
      "type": "function"
    },
    {
      "inputs": [],
      "name": "votingPeriod",
      "outputs": [
        {
          "internalType": "uint256",
          "name": "",
          "type": "uint256"
        }
      ],
      "stateMutability": "view",
      "type": "function"
    },
    {
      "inputs": [
        {
          "internalType": "uint256",
          "name": "blockNumber",
          "type": "uint256"
        }
      ],
      "name": "quorum",
      "outputs": [
        {
          "internalType": "uint256",
          "name": "",
          "type": "uint256"
        }
      ],
      "stateMutability": "view",
      "type": "function"
    },
    {
      "inputs": [
        {
          "internalType": "uint256",
          "name": "proposalId",
          "type": "uint256"
        }
      ],
      "name": "state",
      "outputs": [
        {
          "internalType": "enum IGovernor.ProposalState",
          "name": "",
          "type": "uint8"
        }
      ],
      "stateMutability": "view",
      "type": "function"
    },
    {
      "inputs": [
        {
          "internalType": "address[]",
          "name": "targets",
          "type": "address[]"
        },
        {
          "internalType": "uint256[]",
          "name": "values",
          "type": "uint256[]"
        },
        {
          "internalType": "bytes[]",
          "name": "calldatas",
          "type": "bytes[]"
        },
        {
          "internalType": "string",
          "name": "description",
          "type": "string"
        }
      ],
      "name": "propose",
      "outputs": [
        {
          "internalType": "uint256",
          "name": "",
          "type": "uint256"
        }
      ],
      "stateMutability": "nonpayable",
      "type": "function"
    },
    {
      "inputs": [],
      "name": "proposalThreshold",
      "outputs": [
        {
          "internalType": "uint256",
          "name": "",
          "type": "uint256"
        }
      ],
      "stateMutability": "view",
      "type": "function"
    },
    {
      "inputs": [
        {
          "internalType": "bytes4",
          "name": "interfaceId",
          "type": "bytes4"
        }
      ],
      "name": "supportsInterface",
      "outputs": [
        {
          "internalType": "bool",
          "name": "",
          "type": "bool"
        }
      ],
      "stateMutability": "view",
      "type": "function"
    }
  ],
  "bytecode": "0x6101606040523480156200001257600080fd5b5060405162007f3138038062007f31833981810160405281019062000038919062000cea565b8381868585856040518060400160405280601081526020017f476f7665726e6572436f6e7472616374000000000000000000000000000000008152508062000085620001e560201b60201c565b60008280519060200120905060008280519060200120905060007f8b73c3c69bb8fe3d512ecc4cf759cc79239f7b179b0ffacaa9a75d522b39400f90508260e081815250508161010081815250504660a08181525050620000ee8184846200022260201b60201c565b608081815250503073ffffffffffffffffffffffffffffffffffffffff1660c08173ffffffffffffffffffffffffffffffffffffffff16815250508061012081815250505050505050806000908162000148919062000fe2565b50506200015b836200025e60201b60201c565b6200016c82620002a560201b60201c565b6200017d816200033260201b60201c565b5050508073ffffffffffffffffffffffffffffffffffffffff166101408173ffffffffffffffffffffffffffffffffffffffff168152505050620001c7816200037960201b60201c565b50620001d9816200055860201b60201c565b50505050505062001530565b60606040518060400160405280600181526020017f3100000000000000000000000000000000000000000000000000000000000000815250905090565b600083838346306040516020016200023f95949392919062001106565b6040516020818303038152906040528051906020012090509392505050565b7fc565b045403dc03c2eea82b81a0465edad9e2e7fc4d97e11421c209da93d7a93600454826040516200029392919062001163565b60405180910390a18060048190555050565b60008111620002eb576040517f08c379a0000000000000000000000000000000000000000000000000000000008152600401620002e29062001217565b60405180910390fd5b7f7e3f7f0708a84de9203036abaa450dccc85ad5ff52f78c170f3edb55cf5e8828600554826040516200032092919062001163565b60405180910390a18060058190555050565b7fccb45da8d5717e6c4544694297c4ba5cf151d455c9bb0ed4fc7a38411bc05461600654826040516200036792919062001163565b60405180910390a18060068190555050565b62000389620005f960201b60201c565b811115620003ce576040517f08c379a0000000000000000000000000000000000000000000000000000000008152600401620003c590620012d5565b60405180910390fd5b6000620003e06200060260201b60201c565b905060008114158015620003fc57506000600960000180549050145b15620004fc5760096000016040518060400160405280600063ffffffff16815260200162000435846200065860201b62001e871760201c565b7bffffffffffffffffffffffffffffffffffffffffffffffffffffffff168152509080600181540180825580915050600190039060005260206000200160009091909190915060008201518160000160006101000a81548163ffffffff021916908363ffffffff16021790555060208201518160000160046101000a8154817bffffffffffffffffffffffffffffffffffffffffffffffffffffffff02191690837bffffffffffffffffffffffffffffffffffffffffffffffffffffffff16021790555050505b62000517826009620006c660201b62001ef21790919060201c565b50507f0553476bf02ef2726e8ce5ced78d63e26e602e4a2257b1f559418e24b463399781836040516200054c92919062001163565b60405180910390a15050565b7f08f74ea46ef7894f65eabfb5e6e695de773a000b47c529ab559178069b226401600a60009054906101000a900473ffffffffffffffffffffffffffffffffffffffff1682604051620005ad929190620012f7565b60405180910390a180600a60006101000a81548173ffffffffffffffffffffffffffffffffffffffff021916908373ffffffffffffffffffffffffffffffffffffffff16021790555050565b60006064905090565b600080600960000180549050146200064f576200062b60096200075660201b62001f601760201c565b7bffffffffffffffffffffffffffffffffffffffffffffffffffffffff1662000653565b6008545b905090565b60007bffffffffffffffffffffffffffffffffffffffffffffffffffffffff8016821115620006be576040517f08c379a0000000000000000000000000000000000000000000000000000000008152600401620006b5906200139a565b60405180910390fd5b819050919050565b6000806200070984600001620006e743620007cc60201b62001fca1760201c565b620006fd866200065860201b62001e871760201c565b6200082260201b60201c565b817bffffffffffffffffffffffffffffffffffffffffffffffffffffffff169150807bffffffffffffffffffffffffffffffffffffffffffffffffffffffff169050915091509250929050565b6000808260000180549050905060008114620007c1576200078f83600001600183620007839190620013eb565b62000bc360201b60201c565b60000160049054906101000a90047bffffffffffffffffffffffffffffffffffffffffffffffffffffffff16620007c4565b60005b915050919050565b600063ffffffff80168211156200081a576040517f08c379a000000000000000000000000000000000000000000000000000000000815260040162000811906200149c565b60405180910390fd5b819050919050565b600080600085805490509050600081111562000ad35760006200085a876001846200084e9190620013eb565b62000bc360201b60201c565b6040518060400160405290816000820160009054906101000a900463ffffffff1663ffffffff1663ffffffff1681526020016000820160049054906101000a90047bffffffffffffffffffffffffffffffffffffffffffffffffffffffff167bffffffffffffffffffffffffffffffffffffffffffffffffffffffff167bffffffffffffffffffffffffffffffffffffffffffffffffffffffff168152505090508563ffffffff16816000015163ffffffff16111562000951576040517f08c379a000000000000000000000000000000000000000000000000000000000815260040162000948906200150e565b60405180910390fd5b8563ffffffff16816000015163ffffffff1603620009e157846200098a886001856200097e9190620013eb565b62000bc360201b60201c565b60000160046101000a8154817bffffffffffffffffffffffffffffffffffffffffffffffffffffffff02191690837bffffffffffffffffffffffffffffffffffffffffffffffffffffffff16021790555062000ac1565b8660405180604001604052808863ffffffff168152602001877bffffffffffffffffffffffffffffffffffffffffffffffffffffffff168152509080600181540180825580915050600190039060005260206000200160009091909190915060008201518160000160006101000a81548163ffffffff021916908363ffffffff16021790555060208201518160000160046101000a8154817bffffffffffffffffffffffffffffffffffffffffffffffffffffffff02191690837bffffffffffffffffffffffffffffffffffffffffffffffffffffffff16021790555050505b80602001518593509350505062000bbb565b8560405180604001604052808763ffffffff168152602001867bffffffffffffffffffffffffffffffffffffffffffffffffffffffff168152509080600181540180825580915050600190039060005260206000200160009091909190915060008201518160000160006101000a81548163ffffffff021916908363ffffffff16021790555060208201518160000160046101000a8154817bffffffffffffffffffffffffffffffffffffffffffffffffffffffff02191690837bffffffffffffffffffffffffffffffffffffffffffffffffffffffff160217905550505060008492509250505b935093915050565b60008260005281602060002001905092915050565b600080fd5b600073ffffffffffffffffffffffffffffffffffffffff82169050919050565b600062000c0a8262000bdd565b9050919050565b600062000c1e8262000bfd565b9050919050565b62000c308162000c11565b811462000c3c57600080fd5b50565b60008151905062000c508162000c25565b92915050565b600062000c638262000bdd565b9050919050565b600062000c778262000c56565b9050919050565b62000c898162000c6a565b811462000c9557600080fd5b50565b60008151905062000ca98162000c7e565b92915050565b6000819050919050565b62000cc48162000caf565b811462000cd057600080fd5b50565b60008151905062000ce48162000cb9565b92915050565b600080600080600060a0868803121562000d095762000d0862000bd8565b5b600062000d198882890162000c3f565b955050602062000d2c8882890162000c98565b945050604062000d3f8882890162000cd3565b935050606062000d528882890162000cd3565b925050608062000d658882890162000cd3565b9150509295509295909350565b600081519050919050565b7f4e487b7100000000000000000000000000000000000000000000000000000000600052604160045260246000fd5b7f4e487b7100000000000000000000000000000000000000000000000000000000600052602260045260246000fd5b6000600282049050600182168062000df457607f821691505b60208210810362000e0a5762000e0962000dac565b5b50919050565b60008190508160005260206000209050919050565b60006020601f8301049050919050565b600082821b905092915050565b60006008830262000e747fffffffffffffffffffffffffffffffffffffffffffffffffffffffffffffffff8262000e35565b62000e80868362000e35565b95508019841693508086168417925050509392505050565b6000819050919050565b600062000ec362000ebd62000eb78462000caf565b62000e98565b62000caf565b9050919050565b6000819050919050565b62000edf8362000ea2565b62000ef762000eee8262000eca565b84845462000e42565b825550505050565b600090565b62000f0e62000eff565b62000f1b81848462000ed4565b505050565b5b8181101562000f435762000f3760008262000f04565b60018101905062000f21565b5050565b601f82111562000f925762000f5c8162000e10565b62000f678462000e25565b8101602085101562000f77578190505b62000f8f62000f868562000e25565b83018262000f20565b50505b505050565b600082821c905092915050565b600062000fb76000198460080262000f97565b1980831691505092915050565b600062000fd2838362000fa4565b9150826002028217905092915050565b62000fed8262000d72565b67ffffffffffffffff81111562001009576200100862000d7d565b5b62001015825462000ddb565b6200102282828562000f47565b600060209050601f8311600181146200105a576000841562001045578287015190505b62001051858262000fc4565b865550620010c1565b601f1984166200106a8662000e10565b60005b8281101562001094578489015182556001820191506020850194506020810190506200106d565b86831015620010b45784890151620010b0601f89168262000fa4565b8355505b6001600288020188555050505b505050505050565b6000819050919050565b620010de81620010c9565b82525050565b620010ef8162000caf565b82525050565b620011008162000bfd565b82525050565b600060a0820190506200111d6000830188620010d3565b6200112c6020830187620010d3565b6200113b6040830186620010d3565b6200114a6060830185620010e4565b620011596080830184620010f5565b9695505050505050565b60006040820190506200117a6000830185620010e4565b620011896020830184620010e4565b9392505050565b600082825260208201905092915050565b7f476f7665726e6f7253657474696e67733a20766f74696e6720706572696f642060008201527f746f6f206c6f7700000000000000000000000000000000000000000000000000602082015250565b6000620011ff60278362001190565b91506200120c82620011a1565b604082019050919050565b600060208201905081810360008301526200123281620011f0565b9050919050565b7f476f7665726e6f72566f74657351756f72756d4672616374696f6e3a2071756f60008201527f72756d4e756d657261746f72206f7665722071756f72756d44656e6f6d696e6160208201527f746f720000000000000000000000000000000000000000000000000000000000604082015250565b6000620012bd60438362001190565b9150620012ca8262001239565b606082019050919050565b60006020820190508181036000830152620012f081620012ae565b9050919050565b60006040820190506200130e6000830185620010f5565b6200131d6020830184620010f5565b9392505050565b7f53616665436173743a2076616c756520646f65736e27742066697420696e203260008201527f3234206269747300000000000000000000000000000000000000000000000000602082015250565b60006200138260278362001190565b91506200138f8262001324565b604082019050919050565b60006020820190508181036000830152620013b58162001373565b9050919050565b7f4e487b7100000000000000000000000000000000000000000000000000000000600052601160045260246000fd5b6000620013f88262000caf565b9150620014058362000caf565b925082820390508181111562001420576200141f620013bc565b5b92915050565b7f53616665436173743a2076616c756520646f65736e27742066697420696e203360008201527f3220626974730000000000000000000000000000000000000000000000000000602082015250565b60006200148460268362001190565b9150620014918262001426565b604082019050919050565b60006020820190508181036000830152620014b78162001475565b9050919050565b7f436865636b706f696e743a20696e76616c6964206b6579000000000000000000600082015250565b6000620014f660178362001190565b91506200150382620014be565b602082019050919050565b600060208201905081810360008301526200152981620014e7565b9050919050565b60805160a05160c05160e0516101005161012051610140516169986200159960003960008181611e6501528181612d0d0152612f74015260006135d501526000613617015260006135f60152600061352b01526000613581015260006135aa01526169986000f3fe60806040526004361061024a5760003560e01c80637b3c71d311610139578063c28bc2fa116100b6578063ea0217cf1161007a578063ea0217cf146109be578063eb9019d4146109e7578063ece40cc114610a24578063f23a6e6114610a4d578063f8ce560a14610a8a578063fc0c546a14610ac757610290565b8063c28bc2fa146108e4578063c59057e414610900578063d33219b41461093d578063dd4e2ba514610968578063deaaa7cc1461099357610290565b8063a890c910116100fd578063a890c910146107d9578063ab58fb8e14610802578063b58131b01461083f578063bc197c811461086a578063c01f9e37146108a757610290565b80637b3c71d3146106cc5780637d5e81e21461070957806397c3d334146107465780639a802a6d14610771578063a7713a70146107ae57610290565b80633932abb1116101c757806354fd4d501161018b57806354fd4d50146105c157806356781388146105ec5780635f398a141461062957806360c4247f1461066657806370b0f660146106a357610290565b80633932abb1146104a05780633bccf4fd146104cb5780633e4f49e6146105085780634385963214610545578063544ffc9c1461058257610290565b8063150b7a021161020e578063150b7a021461038e578063160cbed7146103cb5780632656227d146104085780632d63f693146104385780632fe3e2611461047557610290565b806301ffc9a71461029557806302a251a3146102d257806303420181146102fd57806306f3f9e61461033a57806306fdde031461036357610290565b36610290573073ffffffffffffffffffffffffffffffffffffffff1661026e610af2565b73ffffffffffffffffffffffffffffffffffffffff161461028e57600080fd5b005b600080fd5b3480156102a157600080fd5b506102bc60048036038101906102b791906140af565b610b01565b6040516102c991906140f7565b60405180910390f35b3480156102de57600080fd5b506102e7610b13565b6040516102f4919061412b565b60405180910390f35b34801561030957600080fd5b50610324600480360381019061031f9190614387565b610b22565b604051610331919061412b565b60405180910390f35b34801561034657600080fd5b50610361600480360381019061035c9190614465565b610c07565b005b34801561036f57600080fd5b50610378610cfe565b6040516103859190614511565b60405180910390f35b34801561039a57600080fd5b506103b560048036038101906103b09190614591565b610d90565b6040516103c29190614623565b60405180910390f35b3480156103d757600080fd5b506103f260048036038101906103ed91906148a5565b610da4565b6040516103ff919061412b565b60405180910390f35b610422600480360381019061041d91906148a5565b61105e565b60405161042f919061412b565b60405180910390f35b34801561044457600080fd5b5061045f600480360381019061045a9190614465565b6111ab565b60405161046c919061412b565b60405180910390f35b34801561048157600080fd5b5061048a611219565b604051610497919061496f565b60405180910390f35b3480156104ac57600080fd5b506104b561123d565b6040516104c2919061412b565b60405180910390f35b3480156104d757600080fd5b506104f260048036038101906104ed919061498a565b61124c565b6040516104ff919061412b565b60405180910390f35b34801561051457600080fd5b5061052f600480360381019061052a9190614465565b6112d6565b60405161053c9190614a7c565b60405180910390f35b34801561055157600080fd5b5061056c60048036038101906105679190614a97565b6112e8565b60405161057991906140f7565b60405180910390f35b34801561058e57600080fd5b506105a960048036038101906105a49190614465565b611353565b6040516105b893929190614ad7565b60405180910390f35b3480156105cd57600080fd5b506105d661138b565b6040516105e39190614511565b60405180910390f35b3480156105f857600080fd5b50610613600480360381019061060e9190614b0e565b6113c8565b604051610620919061412b565b60405180910390f35b34801561063557600080fd5b50610650600480360381019061064b9190614b4e565b6113f9565b60405161065d919061412b565b60405180910390f35b34801561067257600080fd5b5061068d60048036038101906106889190614465565b611463565b60405161069a919061412b565b60405180910390f35b3480156106af57600080fd5b506106ca60048036038101906106c59190614465565b6115af565b005b3480156106d857600080fd5b506106f360048036038101906106ee9190614bf2565b6116a6565b604051610700919061412b565b60405180910390f35b34801561071557600080fd5b50610730600480360381019061072b9190614d07565b61170e565b60405161073d919061412b565b60405180910390f35b34801561075257600080fd5b5061075b611726565b604051610768919061412b565b60405180910390f35b34801561077d57600080fd5b5061079860048036038101906107939190614dde565b61172f565b6040516107a5919061412b565b60405180910390f35b3480156107ba57600080fd5b506107c3611745565b6040516107d0919061412b565b60405180910390f35b3480156107e557600080fd5b5061080060048036038101906107fb9190614e9d565b61178c565b005b34801561080e57600080fd5b5061082960048036038101906108249190614465565b611883565b604051610836919061412b565b60405180910390f35b34801561084b57600080fd5b50610854611950565b604051610861919061412b565b60405180910390f35b34801561087657600080fd5b50610891600480360381019061088c9190614eca565b61195f565b60405161089e9190614623565b60405180910390f35b3480156108b357600080fd5b506108ce60048036038101906108c99190614465565b611974565b6040516108db919061412b565b60405180910390f35b6108fe60048036038101906108f99190614fef565b6119e2565b005b34801561090c57600080fd5b50610927600480360381019061092291906148a5565b611b6b565b604051610934919061412b565b60405180910390f35b34801561094957600080fd5b50610952611ba7565b60405161095f9190615072565b60405180910390f35b34801561097457600080fd5b5061097d611bd1565b60405161098a9190614511565b60405180910390f35b34801561099f57600080fd5b506109a8611c0e565b6040516109b5919061496f565b60405180910390f35b3480156109ca57600080fd5b506109e560048036038101906109e09190614465565b611c32565b005b3480156109f357600080fd5b50610a0e6004803603810190610a09919061508d565b611d29565b604051610a1b919061412b565b60405180910390f35b348015610a3057600080fd5b50610a4b6004803603810190610a469190614465565b611d45565b005b348015610a5957600080fd5b50610a746004803603810190610a6f91906150cd565b611e3c565b604051610a819190614623565b60405180910390f35b348015610a9657600080fd5b50610ab16004803603810190610aac9190614465565b611e51565b604051610abe919061412b565b60405180910390f35b348015610ad357600080fd5b50610adc611e63565b604051610ae991906151c3565b60405180910390f35b6000610afc61201d565b905090565b6000610b0c82612047565b9050919050565b6000610b1d6120c1565b905090565b600080610ba5610b9d7fb3b3f3b703cd84ce352197dcff232b1b5d3cfb2025ce47cf04742d0651f1af888c8c8c8c604051610b5e92919061520e565b60405180910390208b80519060200120604051602001610b82959493929190615236565b604051602081830303815290604052805190602001206120cb565b8686866120e5565b9050610bf88a828b8b8b8080601f016020809104026020016040519081016040528093929190818152602001838380828437600081840152601f19601f820116905080830192505050505050508a612110565b91505098975050505050505050565b610c0f610af2565b73ffffffffffffffffffffffffffffffffffffffff16610c2d6122cc565b73ffffffffffffffffffffffffffffffffffffffff1614610c83576040517f08c379a0000000000000000000000000000000000000000000000000000000008152600401610c7a906152d5565b60405180910390fd5b3073ffffffffffffffffffffffffffffffffffffffff16610ca2610af2565b73ffffffffffffffffffffffffffffffffffffffff1614610cf2576000610cc76122d4565b604051610cd592919061520e565b604051809103902090505b80610ceb60026122e1565b03610ce057505b610cfb816123bd565b50565b606060008054610d0d90615324565b80601f0160208091040260200160405190810160405280929190818152602001828054610d3990615324565b8015610d865780601f10610d5b57610100808354040283529160200191610d86565b820191906000526020600020905b815481529060010190602001808311610d6957829003601f168201915b5050505050905090565b600063150b7a0260e01b9050949350505050565b600080610db386868686611b6b565b905060046007811115610dc957610dc8614a05565b5b610dd2826112d6565b6007811115610de457610de3614a05565b5b14610e24576040517f08c379a0000000000000000000000000000000000000000000000000000000008152600401610e1b906153c7565b60405180910390fd5b6000600a60009054906101000a900473ffffffffffffffffffffffffffffffffffffffff1673ffffffffffffffffffffffffffffffffffffffff1663f27a0c926040518163ffffffff1660e01b8152600401602060405180830381865afa158015610e93573d6000803e3d6000fd5b505050506040513d601f19601f82011682018060405250810190610eb791906153fc565b9050600a60009054906101000a900473ffffffffffffffffffffffffffffffffffffffff1673ffffffffffffffffffffffffffffffffffffffff1663b1c5f4278888886000896040518663ffffffff1660e01b8152600401610f1d959493929190615704565b602060405180830381865afa158015610f3a573d6000803e3d6000fd5b505050506040513d601f19601f82011682018060405250810190610f5e9190615781565b600b600084815260200190815260200160002081905550600a60009054906101000a900473ffffffffffffffffffffffffffffffffffffffff1673ffffffffffffffffffffffffffffffffffffffff16638f2a0bb0888888600089876040518763ffffffff1660e01b8152600401610fdb969594939291906157ae565b600060405180830381600087803b158015610ff557600080fd5b505af1158015611009573d6000803e3d6000fd5b505050507f9a2e42fd6722813d69113e7d0079d3d940171428df7373df9c7f7617cfda289282824261103b9190615853565b604051611049929190615887565b60405180910390a18192505050949350505050565b60008061106d86868686611b6b565b9050600061107a826112d6565b9050600460078111156110905761108f614a05565b5b8160078111156110a3576110a2614a05565b5b14806110d35750600560078111156110be576110bd614a05565b5b8160078111156110d1576110d0614a05565b5b145b611112576040517f08c379a0000000000000000000000000000000000000000000000000000000008152600401611109906153c7565b60405180910390fd5b600180600084815260200190815260200160002060020160006101000a81548160ff0219169083151502179055507f712ae1383f79ac853f8d882153778e0260ef8f03b504e2866e0593e04d2b291f8260405161116f919061412b565b60405180910390a16111848288888888612571565b6111918288888888612654565b61119e8288888888612668565b8192505050949350505050565b6000611208600160008481526020019081526020016000206000016040518060200160405290816000820160009054906101000a900467ffffffffffffffff1667ffffffffffffffff1667ffffffffffffffff16815250506126c3565b67ffffffffffffffff169050919050565b7fb3b3f3b703cd84ce352197dcff232b1b5d3cfb2025ce47cf04742d0651f1af8881565b60006112476126d1565b905090565b6000806112ad6112a57f150214d74d59b7d1e90c73fc22ef3d991dd0a76b046543d4d80ab92d2a50328f898960405160200161128a939291906158b0565b604051602081830303815290604052805190602001206120cb565b8686866120e5565b90506112ca878288604051806020016040528060008152506126db565b91505095945050505050565b60006112e1826126fb565b9050919050565b60006007600084815260200190815260200160002060030160008373ffffffffffffffffffffffffffffffffffffffff1673ffffffffffffffffffffffffffffffffffffffff16815260200190815260200160002060009054906101000a900460ff16905092915050565b600080600080600760008681526020019081526020016000209050806000015481600101548260020154935093509350509193909250565b60606040518060400160405280600181526020017f3100000000000000000000000000000000000000000000000000000000000000815250905090565b6000806113d36122cc565b90506113f0848285604051806020016040528060008152506126db565b91505092915050565b6000806114046122cc565b905061145787828888888080601f016020809104026020016040519081016040528093929190818152602001838380828437600081840152601f19601f8201169050808301925050505050505087612110565b91505095945050505050565b600080600960000180549050905060008103611484576008549150506115aa565b6000600960000160018361149891906158e7565b815481106114a9576114a861591b565b5b906000526020600020016040518060400160405290816000820160009054906101000a900463ffffffff1663ffffffff1663ffffffff1681526020016000820160049054906101000a90047bffffffffffffffffffffffffffffffffffffffffffffffffffffffff167bffffffffffffffffffffffffffffffffffffffffffffffffffffffff167bffffffffffffffffffffffffffffffffffffffffffffffffffffffff1681525050905083816000015163ffffffff16116115915780602001517bffffffffffffffffffffffffffffffffffffffffffffffffffffffff16925050506115aa565b6115a58460096128ce90919063ffffffff16565b925050505b919050565b6115b7610af2565b73ffffffffffffffffffffffffffffffffffffffff166115d56122cc565b73ffffffffffffffffffffffffffffffffffffffff161461162b576040517f08c379a0000000000000000000000000000000000000000000000000000000008152600401611622906152d5565b60405180910390fd5b3073ffffffffffffffffffffffffffffffffffffffff1661164a610af2565b73ffffffffffffffffffffffffffffffffffffffff161461169a57600061166f6122d4565b60405161167d92919061520e565b604051809103902090505b8061169360026122e1565b0361168857505b6116a3816129bd565b50565b6000806116b16122cc565b905061170386828787878080601f016020809104026020016040519081016040528093929190818152602001838380828437600081840152601f19601f820116905080830192505050505050506126db565b915050949350505050565b600061171c85858585612a02565b9050949350505050565b60006064905090565b600061173c848484612d09565b90509392505050565b60008060096000018054905014611783576117606009611f60565b7bffffffffffffffffffffffffffffffffffffffffffffffffffffffff16611787565b6008545b905090565b611794610af2565b73ffffffffffffffffffffffffffffffffffffffff166117b26122cc565b73ffffffffffffffffffffffffffffffffffffffff1614611808576040517f08c379a00000000000000000000000000000000000000000000000000000000081526004016117ff906152d5565b60405180910390fd5b3073ffffffffffffffffffffffffffffffffffffffff16611827610af2565b73ffffffffffffffffffffffffffffffffffffffff161461187757600061184c6122d4565b60405161185a92919061520e565b604051809103902090505b8061187060026122e1565b0361186557505b61188081612db0565b50565b600080600a60009054906101000a900473ffffffffffffffffffffffffffffffffffffffff1673ffffffffffffffffffffffffffffffffffffffff1663d45c4435600b6000868152602001908152602001600020546040518263ffffffff1660e01b81526004016118f4919061496f565b602060405180830381865afa158015611911573d6000803e3d6000fd5b505050506040513d601f19601f8201168201806040525081019061193591906153fc565b9050600181146119455780611948565b60005b915050919050565b600061195a612e4f565b905090565b600063bc197c8160e01b905095945050505050565b60006119d1600160008481526020019081526020016000206001016040518060200160405290816000820160009054906101000a900467ffffffffffffffff1667ffffffffffffffff1667ffffffffffffffff16815250506126c3565b67ffffffffffffffff169050919050565b6119ea610af2565b73ffffffffffffffffffffffffffffffffffffffff16611a086122cc565b73ffffffffffffffffffffffffffffffffffffffff1614611a5e576040517f08c379a0000000000000000000000000000000000000000000000000000000008152600401611a55906152d5565b60405180910390fd5b3073ffffffffffffffffffffffffffffffffffffffff16611a7d610af2565b73ffffffffffffffffffffffffffffffffffffffff1614611acd576000611aa26122d4565b604051611ab092919061520e565b604051809103902090505b80611ac660026122e1565b03611abb57505b6000808573ffffffffffffffffffffffffffffffffffffffff16858585604051611af892919061520e565b60006040518083038185875af1925050503d8060008114611b35576040519150601f19603f3d011682016040523d82523d6000602084013e611b3a565b606091505b5091509150611b62828260405180606001604052806028815260200161693b60289139612e59565b50505050505050565b600084848484604051602001611b84949392919061594a565b6040516020818303038152906040528051906020012060001c9050949350505050565b6000600a60009054906101000a900473ffffffffffffffffffffffffffffffffffffffff16905090565b60606040518060400160405280602081526020017f737570706f72743d627261766f2671756f72756d3d666f722c6162737461696e815250905090565b7f150214d74d59b7d1e90c73fc22ef3d991dd0a76b046543d4d80ab92d2a50328f81565b611c3a610af2565b73ffffffffffffffffffffffffffffffffffffffff16611c586122cc565b73ffffffffffffffffffffffffffffffffffffffff1614611cae576040517f08c379a0000000000000000000000000000000000000000000000000000000008152600401611ca5906152d5565b60405180910390fd5b3073ffffffffffffffffffffffffffffffffffffffff16611ccd610af2565b73ffffffffffffffffffffffffffffffffffffffff1614611d1d576000611cf26122d4565b604051611d0092919061520e565b604051809103902090505b80611d1660026122e1565b03611d0b57505b611d2681612e7b565b50565b6000611d3d8383611d38612f03565b612d09565b905092915050565b611d4d610af2565b73ffffffffffffffffffffffffffffffffffffffff16611d6b6122cc565b73ffffffffffffffffffffffffffffffffffffffff1614611dc1576040517f08c379a0000000000000000000000000000000000000000000000000000000008152600401611db8906152d5565b60405180910390fd5b3073ffffffffffffffffffffffffffffffffffffffff16611de0610af2565b73ffffffffffffffffffffffffffffffffffffffff1614611e30576000611e056122d4565b604051611e1392919061520e565b604051809103902090505b80611e2960026122e1565b03611e1e57505b611e3981612f1a565b50565b600063f23a6e6160e01b905095945050505050565b6000611e5c82612f5f565b9050919050565b7f000000000000000000000000000000000000000000000000000000000000000081565b60007bffffffffffffffffffffffffffffffffffffffffffffffffffffffff8016821115611eea576040517f08c379a0000000000000000000000000000000000000000000000000000000008152600401611ee190615a16565b60405180910390fd5b819050919050565b600080611f1384600001611f0543611fca565b611f0e86611e87565b613027565b817bffffffffffffffffffffffffffffffffffffffffffffffffffffffff169150807bffffffffffffffffffffffffffffffffffffffffffffffffffffffff169050915091509250929050565b6000808260000180549050905060008114611fbf57611f8e83600001600183611f8991906158e7565b6133ad565b60000160049054906101000a90047bffffffffffffffffffffffffffffffffffffffffffffffffffffffff16611fc2565b60005b915050919050565b600063ffffffff8016821115612015576040517f08c379a000000000000000000000000000000000000000000000000000000000815260040161200c90615aa8565b60405180910390fd5b819050919050565b6000600a60009054906101000a900473ffffffffffffffffffffffffffffffffffffffff16905090565b60007f6e665ced000000000000000000000000000000000000000000000000000000007bffffffffffffffffffffffffffffffffffffffffffffffffffffffff1916827bffffffffffffffffffffffffffffffffffffffffffffffffffffffff191614806120ba57506120b9826133c2565b5b9050919050565b6000600554905090565b60006120de6120d8613527565b83613641565b9050919050565b60008060006120f687878787613674565b9150915061210381613756565b8192505050949350505050565b6000806001600088815260200190815260200160002090506001600781111561213c5761213b614a05565b5b612145886112d6565b600781111561215757612156614a05565b5b14612197576040517f08c379a000000000000000000000000000000000000000000000000000000000815260040161218e90615b3a565b60405180910390fd5b60006121f6876121e6846000016040518060200160405290816000820160009054906101000a900467ffffffffffffffff1667ffffffffffffffff1667ffffffffffffffff16815250506126c3565b67ffffffffffffffff1686612d09565b905061220588888884886138bc565b6000845103612267578673ffffffffffffffffffffffffffffffffffffffff167fb8e138887d0aa13bab447e82de9d5c1777041ecd21ca36ba824ff1e6c07ddda48988848960405161225a9493929190615b5a565b60405180910390a26122be565b8673ffffffffffffffffffffffffffffffffffffffff167fe2babfbac5889a709b63bb7f598b324e08bc5a4fb9ec647fb3cbc9ec07eb871289888489896040516122b5959493929190615bf0565b60405180910390a25b809250505095945050505050565b600033905090565b3660008036915091509091565b60006122ec82613ac0565b15612323576040517f3db2a12a00000000000000000000000000000000000000000000000000000000815260040160405180910390fd5b60008260000160009054906101000a9004600f0b905082600101600082600f0b600f0b815260200190815260200160002054915082600101600082600f0b600f0b815260200190815260200160002060009055600181018360000160006101000a8154816fffffffffffffffffffffffffffffffff0219169083600f0b6fffffffffffffffffffffffffffffffff16021790555050919050565b6123c5611726565b811115612407576040517f08c379a00000000000000000000000000000000000000000000000000000000081526004016123fe90615ce9565b60405180910390fd5b6000612411611745565b90506000811415801561242c57506000600960000180549050145b1561251e5760096000016040518060400160405280600063ffffffff16815260200161245784611e87565b7bffffffffffffffffffffffffffffffffffffffffffffffffffffffff168152509080600181540180825580915050600190039060005260206000200160009091909190915060008201518160000160006101000a81548163ffffffff021916908363ffffffff16021790555060208201518160000160046101000a8154817bffffffffffffffffffffffffffffffffffffffffffffffffffffffff02191690837bffffffffffffffffffffffffffffffffffffffffffffffffffffffff16021790555050505b612532826009611ef290919063ffffffff16565b50507f0553476bf02ef2726e8ce5ced78d63e26e602e4a2257b1f559418e24b46339978183604051612565929190615887565b60405180910390a15050565b3073ffffffffffffffffffffffffffffffffffffffff16612590610af2565b73ffffffffffffffffffffffffffffffffffffffff161461264d5760005b845181101561264b573073ffffffffffffffffffffffffffffffffffffffff168582815181106125e1576125e061591b565b5b602002602001015173ffffffffffffffffffffffffffffffffffffffff160361263a5761263983828151811061261a5761261961591b565b5b6020026020010151805190602001206002613af590919063ffffffff16565b5b8061264490615d09565b90506125ae565b505b5050505050565b6126618585858585613b71565b5050505050565b3073ffffffffffffffffffffffffffffffffffffffff16612687610af2565b73ffffffffffffffffffffffffffffffffffffffff16146126bc576126ac6002613ac0565b6126bb576126ba6002613c0f565b5b5b5050505050565b600081600001519050919050565b6000600454905090565b60006126f1858585856126ec612f03565b612110565b9050949350505050565b60008061270783613c90565b90506004600781111561271d5761271c614a05565b5b8160078111156127305761272f614a05565b5b1461273e57809150506128c9565b6000600b60008581526020019081526020016000205490506000801b810361276a5781925050506128c9565b600a60009054906101000a900473ffffffffffffffffffffffffffffffffffffffff1673ffffffffffffffffffffffffffffffffffffffff16632ab0f529826040518263ffffffff1660e01b81526004016127c5919061496f565b602060405180830381865afa1580156127e2573d6000803e3d6000fd5b505050506040513d601f19601f820116820180604052508101906128069190615d7d565b15612816576007925050506128c9565b600a60009054906101000a900473ffffffffffffffffffffffffffffffffffffffff1673ffffffffffffffffffffffffffffffffffffffff1663584b153e826040518263ffffffff1660e01b8152600401612871919061496f565b602060405180830381865afa15801561288e573d6000803e3d6000fd5b505050506040513d601f19601f820116820180604052508101906128b29190615d7d565b156128c2576005925050506128c9565b6002925050505b919050565b6000438210612912576040517f08c379a000000000000000000000000000000000000000000000000000000000815260040161290990615df6565b60405180910390fd5b600061291d83611fca565b9050600084600001805490509050600061293d8660000184600085613da4565b905060008114612991576129608660000160018361295b91906158e7565b6133ad565b60000160049054906101000a90047bffffffffffffffffffffffffffffffffffffffffffffffffffffffff16612994565b60005b7bffffffffffffffffffffffffffffffffffffffffffffffffffffffff16935050505092915050565b7fc565b045403dc03c2eea82b81a0465edad9e2e7fc4d97e11421c209da93d7a93600454826040516129f0929190615887565b60405180910390a18060048190555050565b6000612a0c611950565b612a29612a176122cc565b600143612a2491906158e7565b611d29565b1015612a6a576040517f08c379a0000000000000000000000000000000000000000000000000000000008152600401612a6190615e88565b60405180910390fd5b6000612a7f8686868680519060200120611b6b565b90508451865114612ac5576040517f08c379a0000000000000000000000000000000000000000000000000000000008152600401612abc90615f1a565b60405180910390fd5b8351865114612b09576040517f08c379a0000000000000000000000000000000000000000000000000000000008152600401612b0090615f1a565b60405180910390fd5b6000865111612b4d576040517f08c379a0000000000000000000000000000000000000000000000000000000008152600401612b4490615f86565b60405180910390fd5b6000600160008381526020019081526020016000209050612bad816000016040518060200160405290816000820160009054906101000a900467ffffffffffffffff1667ffffffffffffffff1667ffffffffffffffff1681525050613e17565b612bec576040517f08c379a0000000000000000000000000000000000000000000000000000000008152600401612be390616018565b60405180910390fd5b6000612bfe612bf961123d565b613e31565b612c0743613e31565b612c11919061604c565b90506000612c25612c20610b13565b613e31565b82612c30919061604c565b9050612c488284600001613e8890919063ffffffff16565b612c5e8184600101613e8890919063ffffffff16565b7f7d84a6263ae0d98d3329bd7b46bb4e8d6f98cd35a7adb45c274c8b7fd5ebd5e084612c886122cc565b8b8b8d5167ffffffffffffffff811115612ca557612ca4614226565b5b604051908082528060200260200182016040528015612cd857816020015b6060815260200190600190039081612cc35790505b508c88888e604051612cf2999897969594939291906161c5565b60405180910390a183945050505050949350505050565b60007f000000000000000000000000000000000000000000000000000000000000000073ffffffffffffffffffffffffffffffffffffffff16633a46b1a885856040518363ffffffff1660e01b8152600401612d66929190616275565b602060405180830381865afa158015612d83573d6000803e3d6000fd5b505050506040513d601f19601f82011682018060405250810190612da791906153fc565b90509392505050565b7f08f74ea46ef7894f65eabfb5e6e695de773a000b47c529ab559178069b226401600a60009054906101000a900473ffffffffffffffffffffffffffffffffffffffff1682604051612e0392919061629e565b60405180910390a180600a60006101000a81548173ffffffffffffffffffffffffffffffffffffffff021916908373ffffffffffffffffffffffffffffffffffffffff16021790555050565b6000600654905090565b60608315612e6957829050612e74565b612e738383613eb7565b5b9392505050565b60008111612ebe576040517f08c379a0000000000000000000000000000000000000000000000000000000008152600401612eb590616339565b60405180910390fd5b7f7e3f7f0708a84de9203036abaa450dccc85ad5ff52f78c170f3edb55cf5e882860055482604051612ef1929190615887565b60405180910390a18060058190555050565b606060405180602001604052806000815250905090565b7fccb45da8d5717e6c4544694297c4ba5cf151d455c9bb0ed4fc7a38411bc0546160065482604051612f4d929190615887565b60405180910390a18060068190555050565b6000612f69611726565b612f7283611463565b7f000000000000000000000000000000000000000000000000000000000000000073ffffffffffffffffffffffffffffffffffffffff16638e539e8c856040518263ffffffff1660e01b8152600401612fcb919061412b565b602060405180830381865afa158015612fe8573d6000803e3d6000fd5b505050506040513d601f19601f8201168201806040525081019061300c91906153fc565b6130169190616359565b61302091906163ca565b9050919050565b60008060008580549050905060008111156132bd5760006130548760018461304f91906158e7565b6133ad565b6040518060400160405290816000820160009054906101000a900463ffffffff1663ffffffff1663ffffffff1681526020016000820160049054906101000a90047bffffffffffffffffffffffffffffffffffffffffffffffffffffffff167bffffffffffffffffffffffffffffffffffffffffffffffffffffffff167bffffffffffffffffffffffffffffffffffffffffffffffffffffffff168152505090508563ffffffff16816000015163ffffffff161115613148576040517f08c379a000000000000000000000000000000000000000000000000000000000815260040161313f90616447565b60405180910390fd5b8563ffffffff16816000015163ffffffff16036131cc57846131768860018561317191906158e7565b6133ad565b60000160046101000a8154817bffffffffffffffffffffffffffffffffffffffffffffffffffffffff02191690837bffffffffffffffffffffffffffffffffffffffffffffffffffffffff1602179055506132ac565b8660405180604001604052808863ffffffff168152602001877bffffffffffffffffffffffffffffffffffffffffffffffffffffffff168152509080600181540180825580915050600190039060005260206000200160009091909190915060008201518160000160006101000a81548163ffffffff021916908363ffffffff16021790555060208201518160000160046101000a8154817bffffffffffffffffffffffffffffffffffffffffffffffffffffffff02191690837bffffffffffffffffffffffffffffffffffffffffffffffffffffffff16021790555050505b8060200151859350935050506133a5565b8560405180604001604052808763ffffffff168152602001867bffffffffffffffffffffffffffffffffffffffffffffffffffffffff168152509080600181540180825580915050600190039060005260206000200160009091909190915060008201518160000160006101000a81548163ffffffff021916908363ffffffff16021790555060208201518160000160046101000a8154817bffffffffffffffffffffffffffffffffffffffffffffffffffffffff02191690837bffffffffffffffffffffffffffffffffffffffffffffffffffffffff160217905550505060008492509250505b935093915050565b60008260005281602060002001905092915050565b6000639a802a6d60e01b630342018160e01b635f398a1460e01b7f79dd796f000000000000000000000000000000000000000000000000000000001818187bffffffffffffffffffffffffffffffffffffffffffffffffffffffff1916827bffffffffffffffffffffffffffffffffffffffffffffffffffffffff191614806134a857507f79dd796f000000000000000000000000000000000000000000000000000000007bffffffffffffffffffffffffffffffffffffffffffffffffffffffff1916827bffffffffffffffffffffffffffffffffffffffffffffffffffffffff1916145b8061351057507f4e2312e0000000000000000000000000000000000000000000000000000000007bffffffffffffffffffffffffffffffffffffffffffffffffffffffff1916827bffffffffffffffffffffffffffffffffffffffffffffffffffffffff1916145b80613520575061351f82613f07565b5b9050919050565b60007f000000000000000000000000000000000000000000000000000000000000000073ffffffffffffffffffffffffffffffffffffffff163073ffffffffffffffffffffffffffffffffffffffff161480156135a357507f000000000000000000000000000000000000000000000000000000000000000046145b156135d0577f0000000000000000000000000000000000000000000000000000000000000000905061363e565b61363b7f00000000000000000000000000000000000000000000000000000000000000007f00000000000000000000000000000000000000000000000000000000000000007f0000000000000000000000000000000000000000000000000000000000000000613f71565b90505b90565b600082826040516020016136569291906164df565b60405160208183030381529060405280519060200120905092915050565b6000807f7fffffffffffffffffffffffffffffff5d576e7357a4501ddfe92f46681b20a08360001c11156136af57600060039150915061374d565b6000600187878787604051600081526020016040526040516136d49493929190616516565b6020604051602081039080840390855afa1580156136f6573d6000803e3d6000fd5b505050602060405103519050600073ffffffffffffffffffffffffffffffffffffffff168173ffffffffffffffffffffffffffffffffffffffff16036137445760006001925092505061374d565b80600092509250505b94509492505050565b6000600481111561376a57613769614a05565b5b81600481111561377d5761377c614a05565b5b03156138b9576001600481111561379757613796614a05565b5b8160048111156137aa576137a9614a05565b5b036137ea576040517f08c379a00000000000000000000000000000000000000000000000000000000081526004016137e1906165a7565b60405180910390fd5b600260048111156137fe576137fd614a05565b5b81600481111561381157613810614a05565b5b03613851576040517f08c379a000000000000000000000000000000000000000000000000000000000815260040161384890616613565b60405180910390fd5b6003600481111561386557613864614a05565b5b81600481111561387857613877614a05565b5b036138b8576040517f08c379a00000000000000000000000000000000000000000000000000000000081526004016138af906166a5565b60405180910390fd5b5b50565b60006007600087815260200190815260200160002090508060030160008673ffffffffffffffffffffffffffffffffffffffff1673ffffffffffffffffffffffffffffffffffffffff16815260200190815260200160002060009054906101000a900460ff1615613962576040517f08c379a000000000000000000000000000000000000000000000000000000000815260040161395990616737565b60405180910390fd5b60018160030160008773ffffffffffffffffffffffffffffffffffffffff1673ffffffffffffffffffffffffffffffffffffffff16815260200190815260200160002060006101000a81548160ff021916908315150217905550600060028111156139d0576139cf614a05565b5b60ff168460ff16036139fc57828160000160008282546139f09190615853565b92505081905550613ab8565b60016002811115613a1057613a0f614a05565b5b60ff168460ff1603613a3c5782816001016000828254613a309190615853565b92505081905550613ab7565b600280811115613a4f57613a4e614a05565b5b60ff168460ff1603613a7b5782816002016000828254613a6f9190615853565b92505081905550613ab6565b6040517f08c379a0000000000000000000000000000000000000000000000000000000008152600401613aad906167c9565b60405180910390fd5b5b5b505050505050565b60008160000160009054906101000a9004600f0b600f0b8260000160109054906101000a9004600f0b600f0b13159050919050565b60008260000160109054906101000a9004600f0b90508183600101600083600f0b600f0b815260200190815260200160002081905550600181018360000160106101000a8154816fffffffffffffffffffffffffffffffff0219169083600f0b6fffffffffffffffffffffffffffffffff160217905550505050565b600a60009054906101000a900473ffffffffffffffffffffffffffffffffffffffff1673ffffffffffffffffffffffffffffffffffffffff1663e38335e5348686866000876040518763ffffffff1660e01b8152600401613bd6959493929190615704565b6000604051808303818588803b158015613bef57600080fd5b505af1158015613c03573d6000803e3d6000fd5b50505050505050505050565b60008160000160006101000a8154816fffffffffffffffffffffffffffffffff0219169083600f0b6fffffffffffffffffffffffffffffffff16021790555060008160000160106101000a8154816fffffffffffffffffffffffffffffffff0219169083600f0b6fffffffffffffffffffffffffffffffff16021790555050565b6000806001600084815260200190815260200160002090508060020160009054906101000a900460ff1615613cc9576007915050613d9f565b8060020160019054906101000a900460ff1615613cea576002915050613d9f565b6000613cf5846111ab565b905060008103613d3a576040517f08c379a0000000000000000000000000000000000000000000000000000000008152600401613d3190616835565b60405180910390fd5b438110613d4c57600092505050613d9f565b6000613d5785611974565b9050438110613d6c5760019350505050613d9f565b613d7585613fab565b8015613d865750613d8585613ff2565b5b15613d975760049350505050613d9f565b600393505050505b919050565b60005b81831015613e0c576000613dbb848461401d565b90508463ffffffff16613dce87836133ad565b60000160009054906101000a900463ffffffff1663ffffffff161115613df657809250613e06565b600181613e039190615853565b93505b50613da7565b819050949350505050565b600080826000015167ffffffffffffffff16149050919050565b600067ffffffffffffffff8016821115613e80576040517f08c379a0000000000000000000000000000000000000000000000000000000008152600401613e77906168c7565b60405180910390fd5b819050919050565b808260000160006101000a81548167ffffffffffffffff021916908367ffffffffffffffff1602179055505050565b600082511115613eca5781518083602001fd5b806040517f08c379a0000000000000000000000000000000000000000000000000000000008152600401613efe9190614511565b60405180910390fd5b60007f01ffc9a7000000000000000000000000000000000000000000000000000000007bffffffffffffffffffffffffffffffffffffffffffffffffffffffff1916827bffffffffffffffffffffffffffffffffffffffffffffffffffffffff1916149050919050565b60008383834630604051602001613f8c9594939291906168e7565b6040516020818303038152906040528051906020012090509392505050565b60008060076000848152602001908152602001600020905080600201548160010154613fd79190615853565b613fe8613fe3856111ab565b611e51565b1115915050919050565b6000806007600084815260200190815260200160002090508060000154816001015411915050919050565b6000600282841861402e91906163ca565b82841661403b9190615853565b905092915050565b6000604051905090565b600080fd5b600080fd5b60007fffffffff0000000000000000000000000000000000000000000000000000000082169050919050565b61408c81614057565b811461409757600080fd5b50565b6000813590506140a981614083565b92915050565b6000602082840312156140c5576140c461404d565b5b60006140d38482850161409a565b91505092915050565b60008115159050919050565b6140f1816140dc565b82525050565b600060208201905061410c60008301846140e8565b92915050565b6000819050919050565b61412581614112565b82525050565b6000602082019050614140600083018461411c565b92915050565b61414f81614112565b811461415a57600080fd5b50565b60008135905061416c81614146565b92915050565b600060ff82169050919050565b61418881614172565b811461419357600080fd5b50565b6000813590506141a58161417f565b92915050565b600080fd5b600080fd5b600080fd5b60008083601f8401126141d0576141cf6141ab565b5b8235905067ffffffffffffffff8111156141ed576141ec6141b0565b5b602083019150836001820283011115614209576142086141b5565b5b9250929050565b600080fd5b6000601f19601f8301169050919050565b7f4e487b7100000000000000000000000000000000000000000000000000000000600052604160045260246000fd5b61425e82614215565b810181811067ffffffffffffffff8211171561427d5761427c614226565b5b80604052505050565b6000614290614043565b905061429c8282614255565b919050565b600067ffffffffffffffff8211156142bc576142bb614226565b5b6142c582614215565b9050602081019050919050565b82818337600083830152505050565b60006142f46142ef846142a1565b614286565b9050828152602081018484840111156143105761430f614210565b5b61431b8482856142d2565b509392505050565b600082601f830112614338576143376141ab565b5b81356143488482602086016142e1565b91505092915050565b6000819050919050565b61436481614351565b811461436f57600080fd5b50565b6000813590506143818161435b565b92915050565b60008060008060008060008060e0898b0312156143a7576143a661404d565b5b60006143b58b828c0161415d565b98505060206143c68b828c01614196565b975050604089013567ffffffffffffffff8111156143e7576143e6614052565b5b6143f38b828c016141ba565b9650965050606089013567ffffffffffffffff81111561441657614415614052565b5b6144228b828c01614323565b94505060806144338b828c01614196565b93505060a06144448b828c01614372565b92505060c06144558b828c01614372565b9150509295985092959890939650565b60006020828403121561447b5761447a61404d565b5b60006144898482850161415d565b91505092915050565b600081519050919050565b600082825260208201905092915050565b60005b838110156144cc5780820151818401526020810190506144b1565b60008484015250505050565b60006144e382614492565b6144ed818561449d565b93506144fd8185602086016144ae565b61450681614215565b840191505092915050565b6000602082019050818103600083015261452b81846144d8565b905092915050565b600073ffffffffffffffffffffffffffffffffffffffff82169050919050565b600061455e82614533565b9050919050565b61456e81614553565b811461457957600080fd5b50565b60008135905061458b81614565565b92915050565b600080600080608085870312156145ab576145aa61404d565b5b60006145b98782880161457c565b94505060206145ca8782880161457c565b93505060406145db8782880161415d565b925050606085013567ffffffffffffffff8111156145fc576145fb614052565b5b61460887828801614323565b91505092959194509250565b61461d81614057565b82525050565b60006020820190506146386000830184614614565b92915050565b600067ffffffffffffffff82111561465957614658614226565b5b602082029050602081019050919050565b600061467d6146788461463e565b614286565b905080838252602082019050602084028301858111156146a05761469f6141b5565b5b835b818110156146c957806146b5888261457c565b8452602084019350506020810190506146a2565b5050509392505050565b600082601f8301126146e8576146e76141ab565b5b81356146f884826020860161466a565b91505092915050565b600067ffffffffffffffff82111561471c5761471b614226565b5b602082029050602081019050919050565b600061474061473b84614701565b614286565b90508083825260208201905060208402830185811115614763576147626141b5565b5b835b8181101561478c5780614778888261415d565b845260208401935050602081019050614765565b5050509392505050565b600082601f8301126147ab576147aa6141ab565b5b81356147bb84826020860161472d565b91505092915050565b600067ffffffffffffffff8211156147df576147de614226565b5b602082029050602081019050919050565b60006148036147fe846147c4565b614286565b90508083825260208201905060208402830185811115614826576148256141b5565b5b835b8181101561486d57803567ffffffffffffffff81111561484b5761484a6141ab565b5b8086016148588982614323565b85526020850194505050602081019050614828565b5050509392505050565b600082601f83011261488c5761488b6141ab565b5b813561489c8482602086016147f0565b91505092915050565b600080600080608085870312156148bf576148be61404d565b5b600085013567ffffffffffffffff8111156148dd576148dc614052565b5b6148e9878288016146d3565b945050602085013567ffffffffffffffff81111561490a57614909614052565b5b61491687828801614796565b935050604085013567ffffffffffffffff81111561493757614936614052565b5b61494387828801614877565b925050606061495487828801614372565b91505092959194509250565b61496981614351565b82525050565b60006020820190506149846000830184614960565b92915050565b600080600080600060a086880312156149a6576149a561404d565b5b60006149b48882890161415d565b95505060206149c588828901614196565b94505060406149d688828901614196565b93505060606149e788828901614372565b92505060806149f888828901614372565b9150509295509295909350565b7f4e487b7100000000000000000000000000000000000000000000000000000000600052602160045260246000fd5b60088110614a4557614a44614a05565b5b50565b6000819050614a5682614a34565b919050565b6000614a6682614a48565b9050919050565b614a7681614a5b565b82525050565b6000602082019050614a916000830184614a6d565b92915050565b60008060408385031215614aae57614aad61404d565b5b6000614abc8582860161415d565b9250506020614acd8582860161457c565b9150509250929050565b6000606082019050614aec600083018661411c565b614af9602083018561411c565b614b06604083018461411c565b949350505050565b60008060408385031215614b2557614b2461404d565b5b6000614b338582860161415d565b9250506020614b4485828601614196565b9150509250929050565b600080600080600060808688031215614b6a57614b6961404d565b5b6000614b788882890161415d565b9550506020614b8988828901614196565b945050604086013567ffffffffffffffff811115614baa57614ba9614052565b5b614bb6888289016141ba565b9350935050606086013567ffffffffffffffff811115614bd957614bd8614052565b5b614be588828901614323565b9150509295509295909350565b60008060008060608587031215614c0c57614c0b61404d565b5b6000614c1a8782880161415d565b9450506020614c2b87828801614196565b935050604085013567ffffffffffffffff811115614c4c57614c4b614052565b5b614c58878288016141ba565b925092505092959194509250565b600067ffffffffffffffff821115614c8157614c80614226565b5b614c8a82614215565b9050602081019050919050565b6000614caa614ca584614c66565b614286565b905082815260208101848484011115614cc657614cc5614210565b5b614cd18482856142d2565b509392505050565b600082601f830112614cee57614ced6141ab565b5b8135614cfe848260208601614c97565b91505092915050565b60008060008060808587031215614d2157614d2061404d565b5b600085013567ffffffffffffffff811115614d3f57614d3e614052565b5b614d4b878288016146d3565b945050602085013567ffffffffffffffff811115614d6c57614d6b614052565b5b614d7887828801614796565b935050604085013567ffffffffffffffff811115614d9957614d98614052565b5b614da587828801614877565b925050606085013567ffffffffffffffff811115614dc657614dc5614052565b5b614dd287828801614cd9565b91505092959194509250565b600080600060608486031215614df757614df661404d565b5b6000614e058682870161457c565b9350506020614e168682870161415d565b925050604084013567ffffffffffffffff811115614e3757614e36614052565b5b614e4386828701614323565b9150509250925092565b6000614e5882614533565b9050919050565b6000614e6a82614e4d565b9050919050565b614e7a81614e5f565b8114614e8557600080fd5b50565b600081359050614e9781614e71565b92915050565b600060208284031215614eb357614eb261404d565b5b6000614ec184828501614e88565b91505092915050565b600080600080600060a08688031215614ee657614ee561404d565b5b6000614ef48882890161457c565b9550506020614f058882890161457c565b945050604086013567ffffffffffffffff811115614f2657614f25614052565b5b614f3288828901614796565b935050606086013567ffffffffffffffff811115614f5357614f52614052565b5b614f5f88828901614796565b925050608086013567ffffffffffffffff811115614f8057614f7f614052565b5b614f8c88828901614323565b9150509295509295909350565b60008083601f840112614faf57614fae6141ab565b5b8235905067ffffffffffffffff811115614fcc57614fcb6141b0565b5b602083019150836001820283011115614fe857614fe76141b5565b5b9250929050565b600080600080606085870312156150095761500861404d565b5b60006150178782880161457c565b94505060206150288782880161415d565b935050604085013567ffffffffffffffff81111561504957615048614052565b5b61505587828801614f99565b925092505092959194509250565b61506c81614553565b82525050565b60006020820190506150876000830184615063565b92915050565b600080604083850312156150a4576150a361404d565b5b60006150b28582860161457c565b92505060206150c38582860161415d565b9150509250929050565b600080600080600060a086880312156150e9576150e861404d565b5b60006150f78882890161457c565b95505060206151088882890161457c565b94505060406151198882890161415d565b935050606061512a8882890161415d565b925050608086013567ffffffffffffffff81111561514b5761514a614052565b5b61515788828901614323565b9150509295509295909350565b6000819050919050565b600061518961518461517f84614533565b615164565b614533565b9050919050565b600061519b8261516e565b9050919050565b60006151ad82615190565b9050919050565b6151bd816151a2565b82525050565b60006020820190506151d860008301846151b4565b92915050565b600081905092915050565b60006151f583856151de565b93506152028385846142d2565b82840190509392505050565b600061521b8284866151e9565b91508190509392505050565b61523081614172565b82525050565b600060a08201905061524b6000830188614960565b615258602083018761411c565b6152656040830186615227565b6152726060830185614960565b61527f6080830184614960565b9695505050505050565b7f476f7665726e6f723a206f6e6c79476f7665726e616e63650000000000000000600082015250565b60006152bf60188361449d565b91506152ca82615289565b602082019050919050565b600060208201905081810360008301526152ee816152b2565b9050919050565b7f4e487b7100000000000000000000000000000000000000000000000000000000600052602260045260246000fd5b6000600282049050600182168061533c57607f821691505b60208210810361534f5761534e6152f5565b5b50919050565b7f476f7665726e6f723a2070726f706f73616c206e6f742073756363657373667560008201527f6c00000000000000000000000000000000000000000000000000000000000000602082015250565b60006153b160218361449d565b91506153bc82615355565b604082019050919050565b600060208201905081810360008301526153e0816153a4565b9050919050565b6000815190506153f681614146565b92915050565b6000602082840312156154125761541161404d565b5b6000615420848285016153e7565b91505092915050565b600081519050919050565b600082825260208201905092915050565b6000819050602082019050919050565b61545e81614553565b82525050565b60006154708383615455565b60208301905092915050565b6000602082019050919050565b600061549482615429565b61549e8185615434565b93506154a983615445565b8060005b838110156154da5781516154c18882615464565b97506154cc8361547c565b9250506001810190506154ad565b5085935050505092915050565b600081519050919050565b600082825260208201905092915050565b6000819050602082019050919050565b61551c81614112565b82525050565b600061552e8383615513565b60208301905092915050565b6000602082019050919050565b6000615552826154e7565b61555c81856154f2565b935061556783615503565b8060005b8381101561559857815161557f8882615522565b975061558a8361553a565b92505060018101905061556b565b5085935050505092915050565b600081519050919050565b600082825260208201905092915050565b6000819050602082019050919050565b600081519050919050565b600082825260208201905092915050565b60006155f8826155d1565b61560281856155dc565b93506156128185602086016144ae565b61561b81614215565b840191505092915050565b600061563283836155ed565b905092915050565b6000602082019050919050565b6000615652826155a5565b61565c81856155b0565b93508360208202850161566e856155c1565b8060005b858110156156aa578484038952815161568b8582615626565b94506156968361563a565b925060208a01995050600181019050615672565b50829750879550505050505092915050565b6000819050919050565b60008160001b9050919050565b60006156ee6156e96156e4846156bc565b6156c6565b614351565b9050919050565b6156fe816156d3565b82525050565b600060a082019050818103600083015261571e8188615489565b905081810360208301526157328187615547565b905081810360408301526157468186615647565b905061575560608301856156f5565b6157626080830184614960565b9695505050505050565b60008151905061577b8161435b565b92915050565b6000602082840312156157975761579661404d565b5b60006157a58482850161576c565b91505092915050565b600060c08201905081810360008301526157c88189615489565b905081810360208301526157dc8188615547565b905081810360408301526157f08187615647565b90506157ff60608301866156f5565b61580c6080830185614960565b61581960a083018461411c565b979650505050505050565b7f4e487b7100000000000000000000000000000000000000000000000000000000600052601160045260246000fd5b600061585e82614112565b915061586983614112565b925082820190508082111561588157615880615824565b5b92915050565b600060408201905061589c600083018561411c565b6158a9602083018461411c565b9392505050565b60006060820190506158c56000830186614960565b6158d2602083018561411c565b6158df6040830184615227565b949350505050565b60006158f282614112565b91506158fd83614112565b925082820390508181111561591557615914615824565b5b92915050565b7f4e487b7100000000000000000000000000000000000000000000000000000000600052603260045260246000fd5b600060808201905081810360008301526159648187615489565b905081810360208301526159788186615547565b9050818103604083015261598c8185615647565b905061599b6060830184614960565b95945050505050565b7f53616665436173743a2076616c756520646f65736e27742066697420696e203260008201527f3234206269747300000000000000000000000000000000000000000000000000602082015250565b6000615a0060278361449d565b9150615a0b826159a4565b604082019050919050565b60006020820190508181036000830152615a2f816159f3565b9050919050565b7f53616665436173743a2076616c756520646f65736e27742066697420696e203360008201527f3220626974730000000000000000000000000000000000000000000000000000602082015250565b6000615a9260268361449d565b9150615a9d82615a36565b604082019050919050565b60006020820190508181036000830152615ac181615a85565b9050919050565b7f476f7665726e6f723a20766f7465206e6f742063757272656e746c792061637460008201527f6976650000000000000000000000000000000000000000000000000000000000602082015250565b6000615b2460238361449d565b9150615b2f82615ac8565b604082019050919050565b60006020820190508181036000830152615b5381615b17565b9050919050565b6000608082019050615b6f600083018761411c565b615b7c6020830186615227565b615b89604083018561411c565b8181036060830152615b9b81846144d8565b905095945050505050565b600082825260208201905092915050565b6000615bc2826155d1565b615bcc8185615ba6565b9350615bdc8185602086016144ae565b615be581614215565b840191505092915050565b600060a082019050615c05600083018861411c565b615c126020830187615227565b615c1f604083018661411c565b8181036060830152615c3181856144d8565b90508181036080830152615c458184615bb7565b90509695505050505050565b7f476f7665726e6f72566f74657351756f72756d4672616374696f6e3a2071756f60008201527f72756d4e756d657261746f72206f7665722071756f72756d44656e6f6d696e6160208201527f746f720000000000000000000000000000000000000000000000000000000000604082015250565b6000615cd360438361449d565b9150615cde82615c51565b606082019050919050565b60006020820190508181036000830152615d0281615cc6565b9050919050565b6000615d1482614112565b91507fffffffffffffffffffffffffffffffffffffffffffffffffffffffffffffffff8203615d4657615d45615824565b5b600182019050919050565b615d5a816140dc565b8114615d6557600080fd5b50565b600081519050615d7781615d51565b92915050565b600060208284031215615d9357615d9261404d565b5b6000615da184828501615d68565b91505092915050565b7f436865636b706f696e74733a20626c6f636b206e6f7420796574206d696e6564600082015250565b6000615de060208361449d565b9150615deb82615daa565b602082019050919050565b60006020820190508181036000830152615e0f81615dd3565b9050919050565b7f476f7665726e6f723a2070726f706f73657220766f7465732062656c6f77207060008201527f726f706f73616c207468726573686f6c64000000000000000000000000000000602082015250565b6000615e7260318361449d565b9150615e7d82615e16565b604082019050919050565b60006020820190508181036000830152615ea181615e65565b9050919050565b7f476f7665726e6f723a20696e76616c69642070726f706f73616c206c656e677460008201527f6800000000000000000000000000000000000000000000000000000000000000602082015250565b6000615f0460218361449d565b9150615f0f82615ea8565b604082019050919050565b60006020820190508181036000830152615f3381615ef7565b9050919050565b7f476f7665726e6f723a20656d7074792070726f706f73616c0000000000000000600082015250565b6000615f7060188361449d565b9150615f7b82615f3a565b602082019050919050565b60006020820190508181036000830152615f9f81615f63565b9050919050565b7f476f7665726e6f723a2070726f706f73616c20616c726561647920657869737460008201527f7300000000000000000000000000000000000000000000000000000000000000602082015250565b600061600260218361449d565b915061600d82615fa6565b604082019050919050565b6000602082019050818103600083015261603181615ff5565b9050919050565b600067ffffffffffffffff82169050919050565b600061605782616038565b915061606283616038565b9250828201905067ffffffffffffffff81111561608257616081615824565b5b92915050565b600081519050919050565b600082825260208201905092915050565b6000819050602082019050919050565b600082825260208201905092915050565b60006160d082614492565b6160da81856160b4565b93506160ea8185602086016144ae565b6160f381614215565b840191505092915050565b600061610a83836160c5565b905092915050565b6000602082019050919050565b600061612a82616088565b6161348185616093565b935083602082028501616146856160a4565b8060005b85811015616182578484038952815161616385826160fe565b945061616e83616112565b925060208a0199505060018101905061614a565b50829750879550505050505092915050565b60006161af6161aa6161a584616038565b615164565b614112565b9050919050565b6161bf81616194565b82525050565b6000610120820190506161db600083018c61411c565b6161e8602083018b615063565b81810360408301526161fa818a615489565b9050818103606083015261620e8189615547565b90508181036080830152616222818861611f565b905081810360a08301526162368187615647565b905061624560c08301866161b6565b61625260e08301856161b6565b81810361010083015261626581846144d8565b90509a9950505050505050505050565b600060408201905061628a6000830185615063565b616297602083018461411c565b9392505050565b60006040820190506162b36000830185615063565b6162c06020830184615063565b9392505050565b7f476f7665726e6f7253657474696e67733a20766f74696e6720706572696f642060008201527f746f6f206c6f7700000000000000000000000000000000000000000000000000602082015250565b600061632360278361449d565b915061632e826162c7565b604082019050919050565b6000602082019050818103600083015261635281616316565b9050919050565b600061636482614112565b915061636f83614112565b925082820261637d81614112565b9150828204841483151761639457616393615824565b5b5092915050565b7f4e487b7100000000000000000000000000000000000000000000000000000000600052601260045260246000fd5b60006163d582614112565b91506163e083614112565b9250826163f0576163ef61639b565b5b828204905092915050565b7f436865636b706f696e743a20696e76616c6964206b6579000000000000000000600082015250565b600061643160178361449d565b915061643c826163fb565b602082019050919050565b6000602082019050818103600083015261646081616424565b9050919050565b600081905092915050565b7f1901000000000000000000000000000000000000000000000000000000000000600082015250565b60006164a8600283616467565b91506164b382616472565b600282019050919050565b6000819050919050565b6164d96164d482614351565b6164be565b82525050565b60006164ea8261649b565b91506164f682856164c8565b60208201915061650682846164c8565b6020820191508190509392505050565b600060808201905061652b6000830187614960565b6165386020830186615227565b6165456040830185614960565b6165526060830184614960565b95945050505050565b7f45434453413a20696e76616c6964207369676e61747572650000000000000000600082015250565b600061659160188361449d565b915061659c8261655b565b602082019050919050565b600060208201905081810360008301526165c081616584565b9050919050565b7f45434453413a20696e76616c6964207369676e6174757265206c656e67746800600082015250565b60006165fd601f8361449d565b9150616608826165c7565b602082019050919050565b6000602082019050818103600083015261662c816165f0565b9050919050565b7f45434453413a20696e76616c6964207369676e6174757265202773272076616c60008201527f7565000000000000000000000000000000000000000000000000000000000000602082015250565b600061668f60228361449d565b915061669a82616633565b604082019050919050565b600060208201905081810360008301526166be81616682565b9050919050565b7f476f7665726e6f72566f74696e6753696d706c653a20766f746520616c72656160008201527f6479206361737400000000000000000000000000000000000000000000000000602082015250565b600061672160278361449d565b915061672c826166c5565b604082019050919050565b6000602082019050818103600083015261675081616714565b9050919050565b7f476f7665726e6f72566f74696e6753696d706c653a20696e76616c696420766160008201527f6c756520666f7220656e756d20566f7465547970650000000000000000000000602082015250565b60006167b360358361449d565b91506167be82616757565b604082019050919050565b600060208201905081810360008301526167e2816167a6565b9050919050565b7f476f7665726e6f723a20756e6b6e6f776e2070726f706f73616c206964000000600082015250565b600061681f601d8361449d565b915061682a826167e9565b602082019050919050565b6000602082019050818103600083015261684e81616812565b9050919050565b7f53616665436173743a2076616c756520646f65736e27742066697420696e203660008201527f3420626974730000000000000000000000000000000000000000000000000000602082015250565b60006168b160268361449d565b91506168bc82616855565b604082019050919050565b600060208201905081810360008301526168e0816168a4565b9050919050565b600060a0820190506168fc6000830188614960565b6169096020830187614960565b6169166040830186614960565b616923606083018561411c565b6169306080830184615063565b969550505050505056fe476f7665726e6f723a2072656c617920726576657274656420776974686f7574206d657373616765a2646970667358221220c2fcd61c02239f9a6250f7c007bc98a4c2d5fb7200d3188705f7c69bdac6b19c64736f6c63430008110033",
  "immutableReferences": {
    "3811": [
      {
        "length": 32,
        "start": 7781
      },
      {
        "length": 32,
        "start": 11533
      },
      {
        "length": 32,
        "start": 12148
      }
    ],
    "8369": [
      {
        "length": 32,
        "start": 13738
      }
    ],
    "8371": [
      {
        "length": 32,
        "start": 13697
      }
    ],
    "8373": [
      {
        "length": 32,
        "start": 13611
      }
    ],
    "8375": [
      {
        "length": 32,
        "start": 13814
      }
    ],
    "8377": [
      {
        "length": 32,
        "start": 13847
      }
    ],
    "8379": [
      {
        "length": 32,
        "start": 13781
      }
    ]
  },
  "source": "// SPDX-License-Identifier: MIT\npragma solidity ^0.8.9;\n\nimport \"@openzeppelin/contracts/governance/Governor.sol\";\nimport \"@openzeppelin/contracts/governance/extensions/GovernorSettings.sol\";\nimport \"@openzeppelin/contracts/governance/extensions/GovernorCountingSimple.sol\";\nimport \"@openzeppelin/contracts/governance/extensions/GovernorVotes.sol\";\nimport \"@openzeppelin/contracts/governance/extensions/GovernorVotesQuorumFraction.sol\";\nimport \"@openzeppelin/contracts/governance/extensions/GovernorTimelockControl.sol\";\n\ncontract GovernerContract is Governor, GovernorSettings, GovernorCountingSimple, GovernorVotes, GovernorVotesQuorumFraction, GovernorTimelockControl {\n    \n    // constructor\n    constructor(\n        IVotes _token, \n        TimelockController _timelock,\n        uint256 _votingDelay,\n        uint256 _votingPeriod,\n        uint256 _quorumPercentage\n    )\n        Governor(\"GovernerContract\")\n        GovernorSettings(\n            _votingDelay /* 1 block */, \n            _votingPeriod /* 1 week */, \n            _quorumPercentage\n        )\n        GovernorVotes(_token)\n        GovernorVotesQuorumFraction(_quorumPercentage)\n        GovernorTimelockControl(_timelock)\n    {\n        \n\n\n    }\n\n    // The following functions are overrides required by Solidity.\n\n    function votingDelay()\n        public\n        view\n        override(IGovernor, GovernorSettings)\n        returns (uint256)\n    {\n        return super.votingDelay(); // imidiate parent contract\n    }\n\n    function votingPeriod()\n        public\n        view\n        override(IGovernor, GovernorSettings)\n        returns (uint256)\n    {\n        return super.votingPeriod();\n    }\n\n    function quorum(uint256 blockNumber)\n        public\n        view\n        override(IGovernor, GovernorVotesQuorumFraction)\n        returns (uint256)\n    {\n        return super.quorum(blockNumber);\n    }\n\n    function state(uint256 proposalId)\n        public\n        view\n        override(Governor, GovernorTimelockControl)\n        returns (ProposalState)\n    {\n        return super.state(proposalId);\n    }\n\n    function propose(address[] memory targets, uint256[] memory values, bytes[] memory calldatas, string memory description)\n        public\n        override(Governor, IGovernor)\n        returns (uint256)\n    {\n        return super.propose(targets, values, calldatas, description);\n    }\n\n    function proposalThreshold()\n        public\n        view\n        override(Governor, GovernorSettings)\n        returns (uint256)\n    {\n        return super.proposalThreshold();\n    }\n\n    function _execute(uint256 proposalId, address[] memory targets, uint256[] memory values, bytes[] memory calldatas, bytes32 descriptionHash)\n        internal\n        override(Governor, GovernorTimelockControl)\n    {\n        super._execute(proposalId, targets, values, calldatas, descriptionHash);\n    }\n\n    function _cancel(address[] memory targets, uint256[] memory values, bytes[] memory calldatas, bytes32 descriptionHash)\n        internal\n        override(Governor, GovernorTimelockControl)\n        returns (uint256)\n    {\n        return super._cancel(targets, values, calldatas, descriptionHash);\n    }\n\n    function _executor()\n        internal\n        view\n        override(Governor, GovernorTimelockControl)\n        returns (address)\n    {\n        return super._executor();\n    }\n\n    function supportsInterface(bytes4 interfaceId)\n        public\n        view\n        override(Governor, GovernorTimelockControl)\n        returns (bool)\n    {\n        return super.supportsInterface(interfaceId);\n    }\n}",
  "sourcePath": "/Users/ykc/Documents/Worksplace/Fall2022/CS48001/Project/SUFriends/contracts/governanceStandart/GovernerContract.sol",
  "compiler": {
    "name": "solc",
    "version": "0.8.17+commit.8df45f5f.Emscripten.clang"
  },
  "schemaVersion": "3.4.10",
  "updatedAt": "2022-12-03T16:59:35.799Z",
  "devdoc": {
    "errors": {
      "Empty()": [
        {
          "details": "An operation (e.g. {front}) couldn't be completed due to the queue being empty."
        }
      ]
    },
    "kind": "dev",
    "methods": {
      "COUNTING_MODE()": {
        "details": "See {IGovernor-COUNTING_MODE}."
      },
      "castVote(uint256,uint8)": {
        "details": "See {IGovernor-castVote}."
      },
      "castVoteBySig(uint256,uint8,uint8,bytes32,bytes32)": {
        "details": "See {IGovernor-castVoteBySig}."
      },
      "castVoteWithReason(uint256,uint8,string)": {
        "details": "See {IGovernor-castVoteWithReason}."
      },
      "castVoteWithReasonAndParams(uint256,uint8,string,bytes)": {
        "details": "See {IGovernor-castVoteWithReasonAndParams}."
      },
      "castVoteWithReasonAndParamsBySig(uint256,uint8,string,bytes,uint8,bytes32,bytes32)": {
        "details": "See {IGovernor-castVoteWithReasonAndParamsBySig}."
      },
      "execute(address[],uint256[],bytes[],bytes32)": {
        "details": "See {IGovernor-execute}."
      },
      "getVotes(address,uint256)": {
        "details": "See {IGovernor-getVotes}."
      },
      "getVotesWithParams(address,uint256,bytes)": {
        "details": "See {IGovernor-getVotesWithParams}."
      },
      "hasVoted(uint256,address)": {
        "details": "See {IGovernor-hasVoted}."
      },
      "hashProposal(address[],uint256[],bytes[],bytes32)": {
        "details": "See {IGovernor-hashProposal}. The proposal id is produced by hashing the ABI encoded `targets` array, the `values` array, the `calldatas` array and the descriptionHash (bytes32 which itself is the keccak256 hash of the description string). This proposal id can be produced from the proposal data which is part of the {ProposalCreated} event. It can even be computed in advance, before the proposal is submitted. Note that the chainId and the governor address are not part of the proposal id computation. Consequently, the same proposal (with same operation and same description) will have the same id if submitted on multiple governors across multiple networks. This also means that in order to execute the same operation twice (on the same governor) the proposer will have to change the description in order to avoid proposal id conflicts."
      },
      "name()": {
        "details": "See {IGovernor-name}."
      },
      "onERC1155BatchReceived(address,address,uint256[],uint256[],bytes)": {
        "details": "See {IERC1155Receiver-onERC1155BatchReceived}."
      },
      "onERC1155Received(address,address,uint256,uint256,bytes)": {
        "details": "See {IERC1155Receiver-onERC1155Received}."
      },
      "onERC721Received(address,address,uint256,bytes)": {
        "details": "See {IERC721Receiver-onERC721Received}."
      },
      "proposalDeadline(uint256)": {
        "details": "See {IGovernor-proposalDeadline}."
      },
      "proposalEta(uint256)": {
        "details": "Public accessor to check the eta of a queued proposal"
      },
      "proposalSnapshot(uint256)": {
        "details": "See {IGovernor-proposalSnapshot}."
      },
      "proposalVotes(uint256)": {
        "details": "Accessor to the internal vote counts."
      },
      "queue(address[],uint256[],bytes[],bytes32)": {
        "details": "Function to queue a proposal to the timelock."
      },
      "quorumDenominator()": {
        "details": "Returns the quorum denominator. Defaults to 100, but may be overridden."
      },
      "quorumNumerator()": {
        "details": "Returns the current quorum numerator. See {quorumDenominator}."
      },
      "quorumNumerator(uint256)": {
        "details": "Returns the quorum numerator at a specific block number. See {quorumDenominator}."
      },
      "relay(address,uint256,bytes)": {
        "details": "Relays a transaction or function call to an arbitrary target. In cases where the governance executor is some contract other than the governor itself, like when using a timelock, this function can be invoked in a governance proposal to recover tokens or Ether that was sent to the governor contract by mistake. Note that if the executor is simply the governor itself, use of `relay` is redundant."
      },
      "setProposalThreshold(uint256)": {
        "details": "Update the proposal threshold. This operation can only be performed through a governance proposal. Emits a {ProposalThresholdSet} event."
      },
      "setVotingDelay(uint256)": {
        "details": "Update the voting delay. This operation can only be performed through a governance proposal. Emits a {VotingDelaySet} event."
      },
      "setVotingPeriod(uint256)": {
        "details": "Update the voting period. This operation can only be performed through a governance proposal. Emits a {VotingPeriodSet} event."
      },
      "timelock()": {
        "details": "Public accessor to check the address of the timelock"
      },
      "updateQuorumNumerator(uint256)": {
        "details": "Changes the quorum numerator. Emits a {QuorumNumeratorUpdated} event. Requirements: - Must be called through a governance proposal. - New numerator must be smaller or equal to the denominator."
      },
      "updateTimelock(address)": {
        "details": "Public endpoint to update the underlying timelock instance. Restricted to the timelock itself, so updates must be proposed, scheduled, and executed through governance proposals. CAUTION: It is not recommended to change the timelock while there are other queued governance proposals."
      },
      "version()": {
        "details": "See {IGovernor-version}."
      }
    },
    "version": 1
  },
  "userdoc": {
    "kind": "user",
    "methods": {},
    "version": 1
  }
}