{
  "contractName": "GovernanceToken",
  "abi": [
    {
      "inputs": [],
      "stateMutability": "nonpayable",
      "type": "constructor"
    },
    {
      "anonymous": false,
      "inputs": [
        {
          "indexed": true,
          "internalType": "address",
          "name": "owner",
          "type": "address"
        },
        {
          "indexed": true,
          "internalType": "address",
          "name": "spender",
          "type": "address"
        },
        {
          "indexed": false,
          "internalType": "uint256",
          "name": "value",
          "type": "uint256"
        }
      ],
      "name": "Approval",
      "type": "event"
    },
    {
      "anonymous": false,
      "inputs": [
        {
          "indexed": true,
          "internalType": "address",
          "name": "delegator",
          "type": "address"
        },
        {
          "indexed": true,
          "internalType": "address",
          "name": "fromDelegate",
          "type": "address"
        },
        {
          "indexed": true,
          "internalType": "address",
          "name": "toDelegate",
          "type": "address"
        }
      ],
      "name": "DelegateChanged",
      "type": "event"
    },
    {
      "anonymous": false,
      "inputs": [
        {
          "indexed": true,
          "internalType": "address",
          "name": "delegate",
          "type": "address"
        },
        {
          "indexed": false,
          "internalType": "uint256",
          "name": "previousBalance",
          "type": "uint256"
        },
        {
          "indexed": false,
          "internalType": "uint256",
          "name": "newBalance",
          "type": "uint256"
        }
      ],
      "name": "DelegateVotesChanged",
      "type": "event"
    },
    {
      "anonymous": false,
      "inputs": [
        {
          "indexed": true,
          "internalType": "address",
          "name": "from",
          "type": "address"
        },
        {
          "indexed": true,
          "internalType": "address",
          "name": "to",
          "type": "address"
        },
        {
          "indexed": false,
          "internalType": "uint256",
          "name": "value",
          "type": "uint256"
        }
      ],
      "name": "Transfer",
      "type": "event"
    },
    {
      "inputs": [],
      "name": "DOMAIN_SEPARATOR",
      "outputs": [
        {
          "internalType": "bytes32",
          "name": "",
          "type": "bytes32"
        }
      ],
      "stateMutability": "view",
      "type": "function"
    },
    {
      "inputs": [
        {
          "internalType": "address",
          "name": "owner",
          "type": "address"
        },
        {
          "internalType": "address",
          "name": "spender",
          "type": "address"
        }
      ],
      "name": "allowance",
      "outputs": [
        {
          "internalType": "uint256",
          "name": "",
          "type": "uint256"
        }
      ],
      "stateMutability": "view",
      "type": "function"
    },
    {
      "inputs": [
        {
          "internalType": "address",
          "name": "spender",
          "type": "address"
        },
        {
          "internalType": "uint256",
          "name": "amount",
          "type": "uint256"
        }
      ],
      "name": "approve",
      "outputs": [
        {
          "internalType": "bool",
          "name": "",
          "type": "bool"
        }
      ],
      "stateMutability": "nonpayable",
      "type": "function"
    },
    {
      "inputs": [
        {
          "internalType": "address",
          "name": "account",
          "type": "address"
        }
      ],
      "name": "balanceOf",
      "outputs": [
        {
          "internalType": "uint256",
          "name": "",
          "type": "uint256"
        }
      ],
      "stateMutability": "view",
      "type": "function"
    },
    {
      "inputs": [
        {
          "internalType": "address",
          "name": "account",
          "type": "address"
        },
        {
          "internalType": "uint32",
          "name": "pos",
          "type": "uint32"
        }
      ],
      "name": "checkpoints",
      "outputs": [
        {
          "components": [
            {
              "internalType": "uint32",
              "name": "fromBlock",
              "type": "uint32"
            },
            {
              "internalType": "uint224",
              "name": "votes",
              "type": "uint224"
            }
          ],
          "internalType": "struct ERC20Votes.Checkpoint",
          "name": "",
          "type": "tuple"
        }
      ],
      "stateMutability": "view",
      "type": "function"
    },
    {
      "inputs": [],
      "name": "decimals",
      "outputs": [
        {
          "internalType": "uint8",
          "name": "",
          "type": "uint8"
        }
      ],
      "stateMutability": "view",
      "type": "function"
    },
    {
      "inputs": [
        {
          "internalType": "address",
          "name": "spender",
          "type": "address"
        },
        {
          "internalType": "uint256",
          "name": "subtractedValue",
          "type": "uint256"
        }
      ],
      "name": "decreaseAllowance",
      "outputs": [
        {
          "internalType": "bool",
          "name": "",
          "type": "bool"
        }
      ],
      "stateMutability": "nonpayable",
      "type": "function"
    },
    {
      "inputs": [
        {
          "internalType": "address",
          "name": "delegatee",
          "type": "address"
        }
      ],
      "name": "delegate",
      "outputs": [],
      "stateMutability": "nonpayable",
      "type": "function"
    },
    {
      "inputs": [
        {
          "internalType": "address",
          "name": "delegatee",
          "type": "address"
        },
        {
          "internalType": "uint256",
          "name": "nonce",
          "type": "uint256"
        },
        {
          "internalType": "uint256",
          "name": "expiry",
          "type": "uint256"
        },
        {
          "internalType": "uint8",
          "name": "v",
          "type": "uint8"
        },
        {
          "internalType": "bytes32",
          "name": "r",
          "type": "bytes32"
        },
        {
          "internalType": "bytes32",
          "name": "s",
          "type": "bytes32"
        }
      ],
      "name": "delegateBySig",
      "outputs": [],
      "stateMutability": "nonpayable",
      "type": "function"
    },
    {
      "inputs": [
        {
          "internalType": "address",
          "name": "account",
          "type": "address"
        }
      ],
      "name": "delegates",
      "outputs": [
        {
          "internalType": "address",
          "name": "",
          "type": "address"
        }
      ],
      "stateMutability": "view",
      "type": "function"
    },
    {
      "inputs": [
        {
          "internalType": "uint256",
          "name": "blockNumber",
          "type": "uint256"
        }
      ],
      "name": "getPastTotalSupply",
      "outputs": [
        {
          "internalType": "uint256",
          "name": "",
          "type": "uint256"
        }
      ],
      "stateMutability": "view",
      "type": "function"
    },
    {
      "inputs": [
        {
          "internalType": "address",
          "name": "account",
          "type": "address"
        },
        {
          "internalType": "uint256",
          "name": "blockNumber",
          "type": "uint256"
        }
      ],
      "name": "getPastVotes",
      "outputs": [
        {
          "internalType": "uint256",
          "name": "",
          "type": "uint256"
        }
      ],
      "stateMutability": "view",
      "type": "function"
    },
    {
      "inputs": [
        {
          "internalType": "address",
          "name": "account",
          "type": "address"
        }
      ],
      "name": "getVotes",
      "outputs": [
        {
          "internalType": "uint256",
          "name": "",
          "type": "uint256"
        }
      ],
      "stateMutability": "view",
      "type": "function"
    },
    {
      "inputs": [
        {
          "internalType": "address",
          "name": "spender",
          "type": "address"
        },
        {
          "internalType": "uint256",
          "name": "addedValue",
          "type": "uint256"
        }
      ],
      "name": "increaseAllowance",
      "outputs": [
        {
          "internalType": "bool",
          "name": "",
          "type": "bool"
        }
      ],
      "stateMutability": "nonpayable",
      "type": "function"
    },
    {
      "inputs": [],
      "name": "name",
      "outputs": [
        {
          "internalType": "string",
          "name": "",
          "type": "string"
        }
      ],
      "stateMutability": "view",
      "type": "function"
    },
    {
      "inputs": [
        {
          "internalType": "address",
          "name": "owner",
          "type": "address"
        }
      ],
      "name": "nonces",
      "outputs": [
        {
          "internalType": "uint256",
          "name": "",
          "type": "uint256"
        }
      ],
      "stateMutability": "view",
      "type": "function"
    },
    {
      "inputs": [
        {
          "internalType": "address",
          "name": "account",
          "type": "address"
        }
      ],
      "name": "numCheckpoints",
      "outputs": [
        {
          "internalType": "uint32",
          "name": "",
          "type": "uint32"
        }
      ],
      "stateMutability": "view",
      "type": "function"
    },
    {
      "inputs": [
        {
          "internalType": "address",
          "name": "owner",
          "type": "address"
        },
        {
          "internalType": "address",
          "name": "spender",
          "type": "address"
        },
        {
          "internalType": "uint256",
          "name": "value",
          "type": "uint256"
        },
        {
          "internalType": "uint256",
          "name": "deadline",
          "type": "uint256"
        },
        {
          "internalType": "uint8",
          "name": "v",
          "type": "uint8"
        },
        {
          "internalType": "bytes32",
          "name": "r",
          "type": "bytes32"
        },
        {
          "internalType": "bytes32",
          "name": "s",
          "type": "bytes32"
        }
      ],
      "name": "permit",
      "outputs": [],
      "stateMutability": "nonpayable",
      "type": "function"
    },
    {
      "inputs": [],
      "name": "s_maxSupply",
      "outputs": [
        {
          "internalType": "uint256",
          "name": "",
          "type": "uint256"
        }
      ],
      "stateMutability": "view",
      "type": "function"
    },
    {
      "inputs": [],
      "name": "symbol",
      "outputs": [
        {
          "internalType": "string",
          "name": "",
          "type": "string"
        }
      ],
      "stateMutability": "view",
      "type": "function"
    },
    {
      "inputs": [],
      "name": "totalSupply",
      "outputs": [
        {
          "internalType": "uint256",
          "name": "",
          "type": "uint256"
        }
      ],
      "stateMutability": "view",
      "type": "function"
    },
    {
      "inputs": [
        {
          "internalType": "address",
          "name": "to",
          "type": "address"
        },
        {
          "internalType": "uint256",
          "name": "amount",
          "type": "uint256"
        }
      ],
      "name": "transfer",
      "outputs": [
        {
          "internalType": "bool",
          "name": "",
          "type": "bool"
        }
      ],
      "stateMutability": "nonpayable",
      "type": "function"
    },
    {
      "inputs": [
        {
          "internalType": "address",
          "name": "from",
          "type": "address"
        },
        {
          "internalType": "address",
          "name": "to",
          "type": "address"
        },
        {
          "internalType": "uint256",
          "name": "amount",
          "type": "uint256"
        }
      ],
      "name": "transferFrom",
      "outputs": [
        {
          "internalType": "bool",
          "name": "",
          "type": "bool"
        }
      ],
      "stateMutability": "nonpayable",
      "type": "function"
    },
    {
      "inputs": [],
      "name": "get",
      "outputs": [
        {
          "internalType": "uint256",
          "name": "",
          "type": "uint256"
        }
      ],
      "stateMutability": "view",
      "type": "function"
    }
  ],
  "bytecode": "0x6101406040526509184e72a000600a553480156200001c57600080fd5b506040518060400160405280600681526020017f5355566f74650000000000000000000000000000000000000000000000000000815250806040518060400160405280600181526020017f31000000000000000000000000000000000000000000000000000000000000008152506040518060400160405280600681526020017f5355566f746500000000000000000000000000000000000000000000000000008152506040518060400160405280600381526020017f5355560000000000000000000000000000000000000000000000000000000000815250816003908162000107919062000df4565b50806004908162000119919062000df4565b50505060008280519060200120905060008280519060200120905060007f8b73c3c69bb8fe3d512ecc4cf759cc79239f7b179b0ffacaa9a75d522b39400f90508260e081815250508161010081815250504660a0818152505062000185818484620001e960201b60201c565b608081815250503073ffffffffffffffffffffffffffffffffffffffff1660c08173ffffffffffffffffffffffffffffffffffffffff1681525050806101208181525050505050505050620001e333600a546200022560201b60201c565b620012e3565b600083838346306040516020016200020695949392919062000f4c565b6040516020818303038152906040528051906020012090509392505050565b6200023c8282620002e360201b62000edd1760201c565b6200024c6200045060201b60201c565b7bffffffffffffffffffffffffffffffffffffffffffffffffffffffff166200027a6200047460201b60201c565b1115620002be576040517f08c379a0000000000000000000000000000000000000000000000000000000008152600401620002b59062001030565b60405180910390fd5b620002dd60096200047e60201b6200103317836200049660201b60201c565b50505050565b600073ffffffffffffffffffffffffffffffffffffffff168273ffffffffffffffffffffffffffffffffffffffff160362000355576040517f08c379a00000000000000000000000000000000000000000000000000000000081526004016200034c90620010a2565b60405180910390fd5b6200036960008383620007a360201b60201c565b80600260008282546200037d9190620010f3565b92505081905550806000808473ffffffffffffffffffffffffffffffffffffffff1673ffffffffffffffffffffffffffffffffffffffff168152602001908152602001600020600082825401925050819055508173ffffffffffffffffffffffffffffffffffffffff16600073ffffffffffffffffffffffffffffffffffffffff167fddf252ad1be2c89b69c2b068fc378daa952ba7f163c4a11628f55a4df523b3ef836040516200043091906200112e565b60405180910390a36200044c60008383620007a860201b60201c565b5050565b60007bffffffffffffffffffffffffffffffffffffffffffffffffffffffff905090565b6000600254905090565b600081836200048e9190620010f3565b905092915050565b60008060008580549050905060008082146200057157620004cc87600184620004c091906200114b565b620007f860201b60201c565b6040518060400160405290816000820160009054906101000a900463ffffffff1663ffffffff1663ffffffff1681526020016000820160049054906101000a90047bffffffffffffffffffffffffffffffffffffffffffffffffffffffff167bffffffffffffffffffffffffffffffffffffffffffffffffffffffff167bffffffffffffffffffffffffffffffffffffffffffffffffffffffff1681525050620005ad565b6040518060400160405280600063ffffffff16815260200160007bffffffffffffffffffffffffffffffffffffffffffffffffffffffff168152505b905080602001517bffffffffffffffffffffffffffffffffffffffffffffffffffffffff169350620005e084868860201c565b9250600082118015620005fc575043816000015163ffffffff16145b156200068f5762000618836200080d60201b620010491760201c565b62000638886001856200062c91906200114b565b620007f860201b60201c565b60000160046101000a8154817bffffffffffffffffffffffffffffffffffffffffffffffffffffffff02191690837bffffffffffffffffffffffffffffffffffffffffffffffffffffffff16021790555062000799565b866040518060400160405280620006b1436200087b60201b620010b41760201c565b63ffffffff168152602001620006d2866200080d60201b620010491760201c565b7bffffffffffffffffffffffffffffffffffffffffffffffffffffffff168152509080600181540180825580915050600190039060005260206000200160009091909190915060008201518160000160006101000a81548163ffffffff021916908363ffffffff16021790555060208201518160000160046101000a8154817bffffffffffffffffffffffffffffffffffffffffffffffffffffffff02191690837bffffffffffffffffffffffffffffffffffffffffffffffffffffffff16021790555050505b5050935093915050565b505050565b620007c0838383620008d160201b620011071760201c565b620007f3620007d584620008d660201b60201c565b620007e684620008d660201b60201c565b836200093f60201b60201c565b505050565b60008260005281602060002001905092915050565b60007bffffffffffffffffffffffffffffffffffffffffffffffffffffffff801682111562000873576040517f08c379a00000000000000000000000000000000000000000000000000000000081526004016200086a90620011fc565b60405180910390fd5b819050919050565b600063ffffffff8016821115620008c9576040517f08c379a0000000000000000000000000000000000000000000000000000000008152600401620008c09062001294565b60405180910390fd5b819050919050565b505050565b6000600760008373ffffffffffffffffffffffffffffffffffffffff1673ffffffffffffffffffffffffffffffffffffffff16815260200190815260200160002060009054906101000a900473ffffffffffffffffffffffffffffffffffffffff169050919050565b8173ffffffffffffffffffffffffffffffffffffffff168373ffffffffffffffffffffffffffffffffffffffff16141580156200097c5750600081115b1562000b5d57600073ffffffffffffffffffffffffffffffffffffffff168373ffffffffffffffffffffffffffffffffffffffff161462000a6f5760008062000a16600860008773ffffffffffffffffffffffffffffffffffffffff1673ffffffffffffffffffffffffffffffffffffffff16815260200190815260200160002062000b6260201b6200110c17856200049660201b60201c565b915091508473ffffffffffffffffffffffffffffffffffffffff167fdec2bacdd2f05b59de34da9b523dff8be42e5e38e818c82fdb0bae774387a724838360405162000a64929190620012b6565b60405180910390a250505b600073ffffffffffffffffffffffffffffffffffffffff168273ffffffffffffffffffffffffffffffffffffffff161462000b5c5760008062000b03600860008673ffffffffffffffffffffffffffffffffffffffff1673ffffffffffffffffffffffffffffffffffffffff1681526020019081526020016000206200047e60201b6200103317856200049660201b60201c565b915091508373ffffffffffffffffffffffffffffffffffffffff167fdec2bacdd2f05b59de34da9b523dff8be42e5e38e818c82fdb0bae774387a724838360405162000b51929190620012b6565b60405180910390a250505b5b505050565b6000818362000b7291906200114b565b905092915050565b600081519050919050565b7f4e487b7100000000000000000000000000000000000000000000000000000000600052604160045260246000fd5b7f4e487b7100000000000000000000000000000000000000000000000000000000600052602260045260246000fd5b6000600282049050600182168062000bfc57607f821691505b60208210810362000c125762000c1162000bb4565b5b50919050565b60008190508160005260206000209050919050565b60006020601f8301049050919050565b600082821b905092915050565b60006008830262000c7c7fffffffffffffffffffffffffffffffffffffffffffffffffffffffffffffffff8262000c3d565b62000c88868362000c3d565b95508019841693508086168417925050509392505050565b6000819050919050565b6000819050919050565b600062000cd562000ccf62000cc98462000ca0565b62000caa565b62000ca0565b9050919050565b6000819050919050565b62000cf18362000cb4565b62000d0962000d008262000cdc565b84845462000c4a565b825550505050565b600090565b62000d2062000d11565b62000d2d81848462000ce6565b505050565b5b8181101562000d555762000d4960008262000d16565b60018101905062000d33565b5050565b601f82111562000da45762000d6e8162000c18565b62000d798462000c2d565b8101602085101562000d89578190505b62000da162000d988562000c2d565b83018262000d32565b50505b505050565b600082821c905092915050565b600062000dc96000198460080262000da9565b1980831691505092915050565b600062000de4838362000db6565b9150826002028217905092915050565b62000dff8262000b7a565b67ffffffffffffffff81111562000e1b5762000e1a62000b85565b5b62000e27825462000be3565b62000e3482828562000d59565b600060209050601f83116001811462000e6c576000841562000e57578287015190505b62000e63858262000dd6565b86555062000ed3565b601f19841662000e7c8662000c18565b60005b8281101562000ea65784890151825560018201915060208501945060208101905062000e7f565b8683101562000ec6578489015162000ec2601f89168262000db6565b8355505b6001600288020188555050505b505050505050565b6000819050919050565b62000ef08162000edb565b82525050565b62000f018162000ca0565b82525050565b600073ffffffffffffffffffffffffffffffffffffffff82169050919050565b600062000f348262000f07565b9050919050565b62000f468162000f27565b82525050565b600060a08201905062000f63600083018862000ee5565b62000f72602083018762000ee5565b62000f81604083018662000ee5565b62000f90606083018562000ef6565b62000f9f608083018462000f3b565b9695505050505050565b600082825260208201905092915050565b7f4552433230566f7465733a20746f74616c20737570706c79207269736b73206f60008201527f766572666c6f77696e6720766f74657300000000000000000000000000000000602082015250565b60006200101860308362000fa9565b9150620010258262000fba565b604082019050919050565b600060208201905081810360008301526200104b8162001009565b9050919050565b7f45524332303a206d696e7420746f20746865207a65726f206164647265737300600082015250565b60006200108a601f8362000fa9565b9150620010978262001052565b602082019050919050565b60006020820190508181036000830152620010bd816200107b565b9050919050565b7f4e487b7100000000000000000000000000000000000000000000000000000000600052601160045260246000fd5b6000620011008262000ca0565b91506200110d8362000ca0565b9250828201905080821115620011285762001127620010c4565b5b92915050565b600060208201905062001145600083018462000ef6565b92915050565b6000620011588262000ca0565b9150620011658362000ca0565b925082820390508181111562001180576200117f620010c4565b5b92915050565b7f53616665436173743a2076616c756520646f65736e27742066697420696e203260008201527f3234206269747300000000000000000000000000000000000000000000000000602082015250565b6000620011e460278362000fa9565b9150620011f18262001186565b604082019050919050565b600060208201905081810360008301526200121781620011d5565b9050919050565b7f53616665436173743a2076616c756520646f65736e27742066697420696e203360008201527f3220626974730000000000000000000000000000000000000000000000000000602082015250565b60006200127c60268362000fa9565b915062001289826200121e565b604082019050919050565b60006020820190508181036000830152620012af816200126d565b9050919050565b6000604082019050620012cd600083018562000ef6565b620012dc602083018462000ef6565b9392505050565b60805160a05160c05160e05161010051610120516137736200133360003960006116a3015260006116e5015260006116c4015260006115f90152600061164f0152600061167801526137736000f3fe608060405234801561001057600080fd5b50600436106101585760003560e01c80636fcfff45116100c3578063a457c2d71161007c578063a457c2d71461042b578063a9059cbb1461045b578063c3cda5201461048b578063d505accf146104a7578063dd62ed3e146104c3578063f1127ed8146104f357610158565b80636fcfff451461031d57806370a082311461034d5780637ecebe001461037d5780638e539e8c146103ad57806395d89b41146103dd5780639ab24eb0146103fb57610158565b8063395093511161011557806339509351146102355780633a46b1a814610265578063587cde1e146102955780635c19a95c146102c55780635d641847146102e15780636d4ce63c146102ff57610158565b806306fdde031461015d578063095ea7b31461017b57806318160ddd146101ab57806323b872dd146101c9578063313ce567146101f95780633644e51514610217575b600080fd5b610165610523565b60405161017291906124ea565b60405180910390f35b610195600480360381019061019091906125a5565b6105b5565b6040516101a29190612600565b60405180910390f35b6101b36105d8565b6040516101c0919061262a565b60405180910390f35b6101e360048036038101906101de9190612645565b6105e2565b6040516101f09190612600565b60405180910390f35b610201610611565b60405161020e91906126b4565b60405180910390f35b61021f61061a565b60405161022c91906126e8565b60405180910390f35b61024f600480360381019061024a91906125a5565b610629565b60405161025c9190612600565b60405180910390f35b61027f600480360381019061027a91906125a5565b610660565b60405161028c919061262a565b60405180910390f35b6102af60048036038101906102aa9190612703565b6106f4565b6040516102bc919061273f565b60405180910390f35b6102df60048036038101906102da9190612703565b61075d565b005b6102e9610771565b6040516102f6919061262a565b60405180910390f35b610307610777565b604051610314919061262a565b60405180910390f35b61033760048036038101906103329190612703565b610781565b6040516103449190612779565b60405180910390f35b61036760048036038101906103629190612703565b6107d5565b604051610374919061262a565b60405180910390f35b61039760048036038101906103929190612703565b61081d565b6040516103a4919061262a565b60405180910390f35b6103c760048036038101906103c29190612794565b61086d565b6040516103d4919061262a565b60405180910390f35b6103e56108c3565b6040516103f291906124ea565b60405180910390f35b61041560048036038101906104109190612703565b610955565b604051610422919061262a565b60405180910390f35b610445600480360381019061044091906125a5565b610a66565b6040516104529190612600565b60405180910390f35b610475600480360381019061047091906125a5565b610add565b6040516104829190612600565b60405180910390f35b6104a560048036038101906104a09190612819565b610b00565b005b6104c160048036038101906104bc91906128a6565b610c04565b005b6104dd60048036038101906104d89190612948565b610d46565b6040516104ea919061262a565b60405180910390f35b61050d600480360381019061050891906129b4565b610dcd565b60405161051a9190612a69565b60405180910390f35b60606003805461053290612ab3565b80601f016020809104026020016040519081016040528092919081815260200182805461055e90612ab3565b80156105ab5780601f10610580576101008083540402835291602001916105ab565b820191906000526020600020905b81548152906001019060200180831161058e57829003601f168201915b5050505050905090565b6000806105c0611122565b90506105cd81858561112a565b600191505092915050565b6000600254905090565b6000806105ed611122565b90506105fa8582856112f3565b61060585858561137f565b60019150509392505050565b60006012905090565b60006106246115f5565b905090565b600080610634611122565b90506106558185856106468589610d46565b6106509190612b13565b61112a565b600191505092915050565b60004382106106a4576040517f08c379a000000000000000000000000000000000000000000000000000000000815260040161069b90612b93565b60405180910390fd5b6106ec600860008573ffffffffffffffffffffffffffffffffffffffff1673ffffffffffffffffffffffffffffffffffffffff1681526020019081526020016000208361170f565b905092915050565b6000600760008373ffffffffffffffffffffffffffffffffffffffff1673ffffffffffffffffffffffffffffffffffffffff16815260200190815260200160002060009054906101000a900473ffffffffffffffffffffffffffffffffffffffff169050919050565b61076e610768611122565b82611860565b50565b600a5481565b6000600a54905090565b60006107ce600860008473ffffffffffffffffffffffffffffffffffffffff1673ffffffffffffffffffffffffffffffffffffffff168152602001908152602001600020805490506110b4565b9050919050565b60008060008373ffffffffffffffffffffffffffffffffffffffff1673ffffffffffffffffffffffffffffffffffffffff168152602001908152602001600020549050919050565b6000610866600560008473ffffffffffffffffffffffffffffffffffffffff1673ffffffffffffffffffffffffffffffffffffffff16815260200190815260200160002061197a565b9050919050565b60004382106108b1576040517f08c379a00000000000000000000000000000000000000000000000000000000081526004016108a890612b93565b60405180910390fd5b6108bc60098361170f565b9050919050565b6060600480546108d290612ab3565b80601f01602080910402602001604051908101604052809291908181526020018280546108fe90612ab3565b801561094b5780601f106109205761010080835404028352916020019161094b565b820191906000526020600020905b81548152906001019060200180831161092e57829003601f168201915b5050505050905090565b600080600860008473ffffffffffffffffffffffffffffffffffffffff1673ffffffffffffffffffffffffffffffffffffffff16815260200190815260200160002080549050905060008114610a3d57600860008473ffffffffffffffffffffffffffffffffffffffff1673ffffffffffffffffffffffffffffffffffffffff1681526020019081526020016000206001826109f19190612bb3565b81548110610a0257610a01612be7565b5b9060005260206000200160000160049054906101000a90047bffffffffffffffffffffffffffffffffffffffffffffffffffffffff16610a40565b60005b7bffffffffffffffffffffffffffffffffffffffffffffffffffffffff16915050919050565b600080610a71611122565b90506000610a7f8286610d46565b905083811015610ac4576040517f08c379a0000000000000000000000000000000000000000000000000000000008152600401610abb90612c88565b60405180910390fd5b610ad1828686840361112a565b60019250505092915050565b600080610ae8611122565b9050610af581858561137f565b600191505092915050565b83421115610b43576040517f08c379a0000000000000000000000000000000000000000000000000000000008152600401610b3a90612cf4565b60405180910390fd5b6000610ba5610b9d7fe48329057bfd03d55e49b547132e39cffd9c1820ad7b9d4c5307691425d15adf898989604051602001610b829493929190612d14565b60405160208183030381529060405280519060200120611988565b8585856119a2565b9050610bb0816119cd565b8614610bf1576040517f08c379a0000000000000000000000000000000000000000000000000000000008152600401610be890612da5565b60405180910390fd5b610bfb8188611860565b50505050505050565b83421115610c47576040517f08c379a0000000000000000000000000000000000000000000000000000000008152600401610c3e90612e11565b60405180910390fd5b60007f6e71edae12b1b97f4d1f60370fef10105fa2faae0126114a169c64845d6126c9888888610c768c6119cd565b89604051602001610c8c96959493929190612e31565b6040516020818303038152906040528051906020012090506000610caf82611988565b90506000610cbf828787876119a2565b90508973ffffffffffffffffffffffffffffffffffffffff168173ffffffffffffffffffffffffffffffffffffffff1614610d2f576040517f08c379a0000000000000000000000000000000000000000000000000000000008152600401610d2690612ede565b60405180910390fd5b610d3a8a8a8a61112a565b50505050505050505050565b6000600160008473ffffffffffffffffffffffffffffffffffffffff1673ffffffffffffffffffffffffffffffffffffffff16815260200190815260200160002060008373ffffffffffffffffffffffffffffffffffffffff1673ffffffffffffffffffffffffffffffffffffffff16815260200190815260200160002054905092915050565b610dd561241c565b600860008473ffffffffffffffffffffffffffffffffffffffff1673ffffffffffffffffffffffffffffffffffffffff1681526020019081526020016000208263ffffffff1681548110610e2c57610e2b612be7565b5b906000526020600020016040518060400160405290816000820160009054906101000a900463ffffffff1663ffffffff1663ffffffff1681526020016000820160049054906101000a90047bffffffffffffffffffffffffffffffffffffffffffffffffffffffff167bffffffffffffffffffffffffffffffffffffffffffffffffffffffff167bffffffffffffffffffffffffffffffffffffffffffffffffffffffff1681525050905092915050565b600073ffffffffffffffffffffffffffffffffffffffff168273ffffffffffffffffffffffffffffffffffffffff1603610f4c576040517f08c379a0000000000000000000000000000000000000000000000000000000008152600401610f4390612f4a565b60405180910390fd5b610f5860008383611a2b565b8060026000828254610f6a9190612b13565b92505081905550806000808473ffffffffffffffffffffffffffffffffffffffff1673ffffffffffffffffffffffffffffffffffffffff168152602001908152602001600020600082825401925050819055508173ffffffffffffffffffffffffffffffffffffffff16600073ffffffffffffffffffffffffffffffffffffffff167fddf252ad1be2c89b69c2b068fc378daa952ba7f163c4a11628f55a4df523b3ef8360405161101b919061262a565b60405180910390a361102f60008383611a30565b5050565b600081836110419190612b13565b905092915050565b60007bffffffffffffffffffffffffffffffffffffffffffffffffffffffff80168211156110ac576040517f08c379a00000000000000000000000000000000000000000000000000000000081526004016110a390612fdc565b60405180910390fd5b819050919050565b600063ffffffff80168211156110ff576040517f08c379a00000000000000000000000000000000000000000000000000000000081526004016110f69061306e565b60405180910390fd5b819050919050565b505050565b6000818361111a9190612bb3565b905092915050565b600033905090565b600073ffffffffffffffffffffffffffffffffffffffff168373ffffffffffffffffffffffffffffffffffffffff1603611199576040517f08c379a000000000000000000000000000000000000000000000000000000000815260040161119090613100565b60405180910390fd5b600073ffffffffffffffffffffffffffffffffffffffff168273ffffffffffffffffffffffffffffffffffffffff1603611208576040517f08c379a00000000000000000000000000000000000000000000000000000000081526004016111ff90613192565b60405180910390fd5b80600160008573ffffffffffffffffffffffffffffffffffffffff1673ffffffffffffffffffffffffffffffffffffffff16815260200190815260200160002060008473ffffffffffffffffffffffffffffffffffffffff1673ffffffffffffffffffffffffffffffffffffffff168152602001908152602001600020819055508173ffffffffffffffffffffffffffffffffffffffff168373ffffffffffffffffffffffffffffffffffffffff167f8c5be1e5ebec7d5bd14f71427d1e84f3dd0314c0f7b2291e5b200ac8c7c3b925836040516112e6919061262a565b60405180910390a3505050565b60006112ff8484610d46565b90507fffffffffffffffffffffffffffffffffffffffffffffffffffffffffffffffff8114611379578181101561136b576040517f08c379a0000000000000000000000000000000000000000000000000000000008152600401611362906131fe565b60405180910390fd5b611378848484840361112a565b5b50505050565b600073ffffffffffffffffffffffffffffffffffffffff168373ffffffffffffffffffffffffffffffffffffffff16036113ee576040517f08c379a00000000000000000000000000000000000000000000000000000000081526004016113e590613290565b60405180910390fd5b600073ffffffffffffffffffffffffffffffffffffffff168273ffffffffffffffffffffffffffffffffffffffff160361145d576040517f08c379a000000000000000000000000000000000000000000000000000000000815260040161145490613322565b60405180910390fd5b611468838383611a2b565b60008060008573ffffffffffffffffffffffffffffffffffffffff1673ffffffffffffffffffffffffffffffffffffffff168152602001908152602001600020549050818110156114ee576040517f08c379a00000000000000000000000000000000000000000000000000000000081526004016114e5906133b4565b60405180910390fd5b8181036000808673ffffffffffffffffffffffffffffffffffffffff1673ffffffffffffffffffffffffffffffffffffffff16815260200190815260200160002081905550816000808573ffffffffffffffffffffffffffffffffffffffff1673ffffffffffffffffffffffffffffffffffffffff168152602001908152602001600020600082825401925050819055508273ffffffffffffffffffffffffffffffffffffffff168473ffffffffffffffffffffffffffffffffffffffff167fddf252ad1be2c89b69c2b068fc378daa952ba7f163c4a11628f55a4df523b3ef846040516115dc919061262a565b60405180910390a36115ef848484611a30565b50505050565b60007f000000000000000000000000000000000000000000000000000000000000000073ffffffffffffffffffffffffffffffffffffffff163073ffffffffffffffffffffffffffffffffffffffff1614801561167157507f000000000000000000000000000000000000000000000000000000000000000046145b1561169e577f0000000000000000000000000000000000000000000000000000000000000000905061170c565b6117097f00000000000000000000000000000000000000000000000000000000000000007f00000000000000000000000000000000000000000000000000000000000000007f0000000000000000000000000000000000000000000000000000000000000000611a5b565b90505b90565b60008083805490509050600080829050600583111561178557600061173384611a95565b8461173e9190612bb3565b90508561174b8883611b8e565b60000160009054906101000a900463ffffffff1663ffffffff16111561177357809150611783565b6001816117809190612b13565b92505b505b5b808210156117e557600061179a8383611ba3565b9050856117a78883611b8e565b60000160009054906101000a900463ffffffff1663ffffffff1611156117cf578091506117df565b6001816117dc9190612b13565b92505b50611786565b6000811461183457611803866001836117fe9190612bb3565b611b8e565b60000160049054906101000a90047bffffffffffffffffffffffffffffffffffffffffffffffffffffffff16611837565b60005b7bffffffffffffffffffffffffffffffffffffffffffffffffffffffff16935050505092915050565b600061186b836106f4565b90506000611878846107d5565b905082600760008673ffffffffffffffffffffffffffffffffffffffff1673ffffffffffffffffffffffffffffffffffffffff16815260200190815260200160002060006101000a81548173ffffffffffffffffffffffffffffffffffffffff021916908373ffffffffffffffffffffffffffffffffffffffff1602179055508273ffffffffffffffffffffffffffffffffffffffff168273ffffffffffffffffffffffffffffffffffffffff168573ffffffffffffffffffffffffffffffffffffffff167f3134e8a2e6d97e929a7e54011ea5485d7d196dd5f0ba4d4ef95803e8e3fc257f60405160405180910390a4611974828483611bc9565b50505050565b600081600001549050919050565b600061199b6119956115f5565b83611dc2565b9050919050565b60008060006119b387878787611df5565b915091506119c081611ed7565b8192505050949350505050565b600080600560008473ffffffffffffffffffffffffffffffffffffffff1673ffffffffffffffffffffffffffffffffffffffff1681526020019081526020016000209050611a1a8161197a565b9150611a258161203d565b50919050565b505050565b611a3b838383611107565b611a56611a47846106f4565b611a50846106f4565b83611bc9565b505050565b60008383834630604051602001611a769594939291906133d4565b6040516020818303038152906040528051906020012090509392505050565b6000808203611aa75760009050611b89565b60006001611ab484612053565b901c6001901b90506001818481611ace57611acd613427565b5b048201901c90506001818481611ae757611ae6613427565b5b048201901c90506001818481611b0057611aff613427565b5b048201901c90506001818481611b1957611b18613427565b5b048201901c90506001818481611b3257611b31613427565b5b048201901c90506001818481611b4b57611b4a613427565b5b048201901c90506001818481611b6457611b63613427565b5b048201901c9050611b8581828581611b7f57611b7e613427565b5b04612134565b9150505b919050565b60008260005281602060002001905092915050565b60006002828418611bb49190613456565b828416611bc19190612b13565b905092915050565b8173ffffffffffffffffffffffffffffffffffffffff168373ffffffffffffffffffffffffffffffffffffffff1614158015611c055750600081115b15611dbd57600073ffffffffffffffffffffffffffffffffffffffff168373ffffffffffffffffffffffffffffffffffffffff1614611ce357600080611c8c600860008773ffffffffffffffffffffffffffffffffffffffff1673ffffffffffffffffffffffffffffffffffffffff16815260200190815260200160002061110c8561214d565b915091508473ffffffffffffffffffffffffffffffffffffffff167fdec2bacdd2f05b59de34da9b523dff8be42e5e38e818c82fdb0bae774387a7248383604051611cd8929190613487565b60405180910390a250505b600073ffffffffffffffffffffffffffffffffffffffff168273ffffffffffffffffffffffffffffffffffffffff1614611dbc57600080611d65600860008673ffffffffffffffffffffffffffffffffffffffff1673ffffffffffffffffffffffffffffffffffffffff1681526020019081526020016000206110338561214d565b915091508373ffffffffffffffffffffffffffffffffffffffff167fdec2bacdd2f05b59de34da9b523dff8be42e5e38e818c82fdb0bae774387a7248383604051611db1929190613487565b60405180910390a250505b5b505050565b60008282604051602001611dd7929190613528565b60405160208183030381529060405280519060200120905092915050565b6000807f7fffffffffffffffffffffffffffffff5d576e7357a4501ddfe92f46681b20a08360001c1115611e30576000600391509150611ece565b600060018787878760405160008152602001604052604051611e55949392919061355f565b6020604051602081039080840390855afa158015611e77573d6000803e3d6000fd5b505050602060405103519050600073ffffffffffffffffffffffffffffffffffffffff168173ffffffffffffffffffffffffffffffffffffffff1603611ec557600060019250925050611ece565b80600092509250505b94509492505050565b60006004811115611eeb57611eea6135a4565b5b816004811115611efe57611efd6135a4565b5b031561203a5760016004811115611f1857611f176135a4565b5b816004811115611f2b57611f2a6135a4565b5b03611f6b576040517f08c379a0000000000000000000000000000000000000000000000000000000008152600401611f629061361f565b60405180910390fd5b60026004811115611f7f57611f7e6135a4565b5b816004811115611f9257611f916135a4565b5b03611fd2576040517f08c379a0000000000000000000000000000000000000000000000000000000008152600401611fc99061368b565b60405180910390fd5b60036004811115611fe657611fe56135a4565b5b816004811115611ff957611ff86135a4565b5b03612039576040517f08c379a00000000000000000000000000000000000000000000000000000000081526004016120309061371d565b60405180910390fd5b5b50565b6001816000016000828254019250508190555050565b600080600090506000608084901c111561207557608083901c92506080810190505b6000604084901c111561209057604083901c92506040810190505b6000602084901c11156120ab57602083901c92506020810190505b6000601084901c11156120c657601083901c92506010810190505b6000600884901c11156120e157600883901c92506008810190505b6000600484901c11156120fc57600483901c92506004810190505b6000600284901c111561211757600283901c92506002810190505b6000600184901c111561212b576001810190505b80915050919050565b60008183106121435781612145565b825b905092915050565b600080600085805490509050600080821461221c57612178876001846121739190612bb3565b611b8e565b6040518060400160405290816000820160009054906101000a900463ffffffff1663ffffffff1663ffffffff1681526020016000820160049054906101000a90047bffffffffffffffffffffffffffffffffffffffffffffffffffffffff167bffffffffffffffffffffffffffffffffffffffffffffffffffffffff167bffffffffffffffffffffffffffffffffffffffffffffffffffffffff1681525050612258565b6040518060400160405280600063ffffffff16815260200160007bffffffffffffffffffffffffffffffffffffffffffffffffffffffff168152505b905080602001517bffffffffffffffffffffffffffffffffffffffffffffffffffffffff16935061228d84868863ffffffff16565b92506000821180156122a8575043816000015163ffffffff16145b15612322576122b683611049565b6122cc886001856122c79190612bb3565b611b8e565b60000160046101000a8154817bffffffffffffffffffffffffffffffffffffffffffffffffffffffff02191690837bffffffffffffffffffffffffffffffffffffffffffffffffffffffff160217905550612412565b866040518060400160405280612337436110b4565b63ffffffff16815260200161234b86611049565b7bffffffffffffffffffffffffffffffffffffffffffffffffffffffff168152509080600181540180825580915050600190039060005260206000200160009091909190915060008201518160000160006101000a81548163ffffffff021916908363ffffffff16021790555060208201518160000160046101000a8154817bffffffffffffffffffffffffffffffffffffffffffffffffffffffff02191690837bffffffffffffffffffffffffffffffffffffffffffffffffffffffff16021790555050505b5050935093915050565b6040518060400160405280600063ffffffff16815260200160007bffffffffffffffffffffffffffffffffffffffffffffffffffffffff1681525090565b600081519050919050565b600082825260208201905092915050565b60005b83811015612494578082015181840152602081019050612479565b60008484015250505050565b6000601f19601f8301169050919050565b60006124bc8261245a565b6124c68185612465565b93506124d6818560208601612476565b6124df816124a0565b840191505092915050565b6000602082019050818103600083015261250481846124b1565b905092915050565b600080fd5b600073ffffffffffffffffffffffffffffffffffffffff82169050919050565b600061253c82612511565b9050919050565b61254c81612531565b811461255757600080fd5b50565b60008135905061256981612543565b92915050565b6000819050919050565b6125828161256f565b811461258d57600080fd5b50565b60008135905061259f81612579565b92915050565b600080604083850312156125bc576125bb61250c565b5b60006125ca8582860161255a565b92505060206125db85828601612590565b9150509250929050565b60008115159050919050565b6125fa816125e5565b82525050565b600060208201905061261560008301846125f1565b92915050565b6126248161256f565b82525050565b600060208201905061263f600083018461261b565b92915050565b60008060006060848603121561265e5761265d61250c565b5b600061266c8682870161255a565b935050602061267d8682870161255a565b925050604061268e86828701612590565b9150509250925092565b600060ff82169050919050565b6126ae81612698565b82525050565b60006020820190506126c960008301846126a5565b92915050565b6000819050919050565b6126e2816126cf565b82525050565b60006020820190506126fd60008301846126d9565b92915050565b6000602082840312156127195761271861250c565b5b60006127278482850161255a565b91505092915050565b61273981612531565b82525050565b60006020820190506127546000830184612730565b92915050565b600063ffffffff82169050919050565b6127738161275a565b82525050565b600060208201905061278e600083018461276a565b92915050565b6000602082840312156127aa576127a961250c565b5b60006127b884828501612590565b91505092915050565b6127ca81612698565b81146127d557600080fd5b50565b6000813590506127e7816127c1565b92915050565b6127f6816126cf565b811461280157600080fd5b50565b600081359050612813816127ed565b92915050565b60008060008060008060c087890312156128365761283561250c565b5b600061284489828a0161255a565b965050602061285589828a01612590565b955050604061286689828a01612590565b945050606061287789828a016127d8565b935050608061288889828a01612804565b92505060a061289989828a01612804565b9150509295509295509295565b600080600080600080600060e0888a0312156128c5576128c461250c565b5b60006128d38a828b0161255a565b97505060206128e48a828b0161255a565b96505060406128f58a828b01612590565b95505060606129068a828b01612590565b94505060806129178a828b016127d8565b93505060a06129288a828b01612804565b92505060c06129398a828b01612804565b91505092959891949750929550565b6000806040838503121561295f5761295e61250c565b5b600061296d8582860161255a565b925050602061297e8582860161255a565b9150509250929050565b6129918161275a565b811461299c57600080fd5b50565b6000813590506129ae81612988565b92915050565b600080604083850312156129cb576129ca61250c565b5b60006129d98582860161255a565b92505060206129ea8582860161299f565b9150509250929050565b6129fd8161275a565b82525050565b60007bffffffffffffffffffffffffffffffffffffffffffffffffffffffff82169050919050565b612a3481612a03565b82525050565b604082016000820151612a5060008501826129f4565b506020820151612a636020850182612a2b565b50505050565b6000604082019050612a7e6000830184612a3a565b92915050565b7f4e487b7100000000000000000000000000000000000000000000000000000000600052602260045260246000fd5b60006002820490506001821680612acb57607f821691505b602082108103612ade57612add612a84565b5b50919050565b7f4e487b7100000000000000000000000000000000000000000000000000000000600052601160045260246000fd5b6000612b1e8261256f565b9150612b298361256f565b9250828201905080821115612b4157612b40612ae4565b5b92915050565b7f4552433230566f7465733a20626c6f636b206e6f7420796574206d696e656400600082015250565b6000612b7d601f83612465565b9150612b8882612b47565b602082019050919050565b60006020820190508181036000830152612bac81612b70565b9050919050565b6000612bbe8261256f565b9150612bc98361256f565b9250828203905081811115612be157612be0612ae4565b5b92915050565b7f4e487b7100000000000000000000000000000000000000000000000000000000600052603260045260246000fd5b7f45524332303a2064656372656173656420616c6c6f77616e63652062656c6f7760008201527f207a65726f000000000000000000000000000000000000000000000000000000602082015250565b6000612c72602583612465565b9150612c7d82612c16565b604082019050919050565b60006020820190508181036000830152612ca181612c65565b9050919050565b7f4552433230566f7465733a207369676e61747572652065787069726564000000600082015250565b6000612cde601d83612465565b9150612ce982612ca8565b602082019050919050565b60006020820190508181036000830152612d0d81612cd1565b9050919050565b6000608082019050612d2960008301876126d9565b612d366020830186612730565b612d43604083018561261b565b612d50606083018461261b565b95945050505050565b7f4552433230566f7465733a20696e76616c6964206e6f6e636500000000000000600082015250565b6000612d8f601983612465565b9150612d9a82612d59565b602082019050919050565b60006020820190508181036000830152612dbe81612d82565b9050919050565b7f45524332305065726d69743a206578706972656420646561646c696e65000000600082015250565b6000612dfb601d83612465565b9150612e0682612dc5565b602082019050919050565b60006020820190508181036000830152612e2a81612dee565b9050919050565b600060c082019050612e4660008301896126d9565b612e536020830188612730565b612e606040830187612730565b612e6d606083018661261b565b612e7a608083018561261b565b612e8760a083018461261b565b979650505050505050565b7f45524332305065726d69743a20696e76616c6964207369676e61747572650000600082015250565b6000612ec8601e83612465565b9150612ed382612e92565b602082019050919050565b60006020820190508181036000830152612ef781612ebb565b9050919050565b7f45524332303a206d696e7420746f20746865207a65726f206164647265737300600082015250565b6000612f34601f83612465565b9150612f3f82612efe565b602082019050919050565b60006020820190508181036000830152612f6381612f27565b9050919050565b7f53616665436173743a2076616c756520646f65736e27742066697420696e203260008201527f3234206269747300000000000000000000000000000000000000000000000000602082015250565b6000612fc6602783612465565b9150612fd182612f6a565b604082019050919050565b60006020820190508181036000830152612ff581612fb9565b9050919050565b7f53616665436173743a2076616c756520646f65736e27742066697420696e203360008201527f3220626974730000000000000000000000000000000000000000000000000000602082015250565b6000613058602683612465565b915061306382612ffc565b604082019050919050565b600060208201905081810360008301526130878161304b565b9050919050565b7f45524332303a20617070726f76652066726f6d20746865207a65726f2061646460008201527f7265737300000000000000000000000000000000000000000000000000000000602082015250565b60006130ea602483612465565b91506130f58261308e565b604082019050919050565b60006020820190508181036000830152613119816130dd565b9050919050565b7f45524332303a20617070726f766520746f20746865207a65726f20616464726560008201527f7373000000000000000000000000000000000000000000000000000000000000602082015250565b600061317c602283612465565b915061318782613120565b604082019050919050565b600060208201905081810360008301526131ab8161316f565b9050919050565b7f45524332303a20696e73756666696369656e7420616c6c6f77616e6365000000600082015250565b60006131e8601d83612465565b91506131f3826131b2565b602082019050919050565b60006020820190508181036000830152613217816131db565b9050919050565b7f45524332303a207472616e736665722066726f6d20746865207a65726f20616460008201527f6472657373000000000000000000000000000000000000000000000000000000602082015250565b600061327a602583612465565b91506132858261321e565b604082019050919050565b600060208201905081810360008301526132a98161326d565b9050919050565b7f45524332303a207472616e7366657220746f20746865207a65726f206164647260008201527f6573730000000000000000000000000000000000000000000000000000000000602082015250565b600061330c602383612465565b9150613317826132b0565b604082019050919050565b6000602082019050818103600083015261333b816132ff565b9050919050565b7f45524332303a207472616e7366657220616d6f756e742065786365656473206260008201527f616c616e63650000000000000000000000000000000000000000000000000000602082015250565b600061339e602683612465565b91506133a982613342565b604082019050919050565b600060208201905081810360008301526133cd81613391565b9050919050565b600060a0820190506133e960008301886126d9565b6133f660208301876126d9565b61340360408301866126d9565b613410606083018561261b565b61341d6080830184612730565b9695505050505050565b7f4e487b7100000000000000000000000000000000000000000000000000000000600052601260045260246000fd5b60006134618261256f565b915061346c8361256f565b92508261347c5761347b613427565b5b828204905092915050565b600060408201905061349c600083018561261b565b6134a9602083018461261b565b9392505050565b600081905092915050565b7f1901000000000000000000000000000000000000000000000000000000000000600082015250565b60006134f16002836134b0565b91506134fc826134bb565b600282019050919050565b6000819050919050565b61352261351d826126cf565b613507565b82525050565b6000613533826134e4565b915061353f8285613511565b60208201915061354f8284613511565b6020820191508190509392505050565b600060808201905061357460008301876126d9565b61358160208301866126a5565b61358e60408301856126d9565b61359b60608301846126d9565b95945050505050565b7f4e487b7100000000000000000000000000000000000000000000000000000000600052602160045260246000fd5b7f45434453413a20696e76616c6964207369676e61747572650000000000000000600082015250565b6000613609601883612465565b9150613614826135d3565b602082019050919050565b60006020820190508181036000830152613638816135fc565b9050919050565b7f45434453413a20696e76616c6964207369676e6174757265206c656e67746800600082015250565b6000613675601f83612465565b91506136808261363f565b602082019050919050565b600060208201905081810360008301526136a481613668565b9050919050565b7f45434453413a20696e76616c6964207369676e6174757265202773272076616c60008201527f7565000000000000000000000000000000000000000000000000000000000000602082015250565b6000613707602283612465565b9150613712826136ab565b604082019050919050565b60006020820190508181036000830152613736816136fa565b905091905056fea2646970667358221220ee4e3f77249997eab6d9e1d612964b387c2ffd29cc2bacc9100bcceb21fd2a2064736f6c63430008110033",
  "immutableReferences": {
    "8369": [
      {
        "length": 32,
        "start": 5752
      }
    ],
    "8371": [
      {
        "length": 32,
        "start": 5711
      }
    ],
    "8373": [
      {
        "length": 32,
        "start": 5625
      }
    ],
    "8375": [
      {
        "length": 32,
        "start": 5828
      }
    ],
    "8377": [
      {
        "length": 32,
        "start": 5861
      }
    ],
    "8379": [
      {
        "length": 32,
        "start": 5795
      }
    ]
  },
  "source": "// contracts/GovernanceToken.sol\n// SPDX-License-Identifier: MIT\npragma solidity ^0.8.0;\n\nimport \"@openzeppelin/contracts/token/ERC20/ERC20.sol\";\nimport \"@openzeppelin/contracts/token/ERC20/extensions/ERC20Votes.sol\";\n\n// implementation of ERC20Votes as votes\ncontract GovernanceToken is ERC20Votes {\n\n    // max supply\n    uint256 public s_maxSupply = 10000000000000;\n\n    // constructor: initializes once contract is deployed \n    constructor() \n    ERC20(\"SUVote\", \"SUV\")\n    ERC20Permit(\"SUVote\")\n    {\n        _mint(msg.sender, s_maxSupply);\n    }\n\n    // functions below are overrides required by solidity\n    function get() public view returns (uint256){\n        return s_maxSupply;\n    }\n\n\n}",
  "sourcePath": "/Users/ykc/Documents/Worksplace/Fall2022/CS48001/Project/SUFriends/contracts/GovernanceToken.sol",
  "compiler": {
    "name": "solc",
    "version": "0.8.17+commit.8df45f5f.Emscripten.clang"
  },
  "schemaVersion": "3.4.10",
  "updatedAt": "2022-12-03T16:59:35.791Z",
  "devdoc": {
    "kind": "dev",
    "methods": {
      "DOMAIN_SEPARATOR()": {
        "details": "See {IERC20Permit-DOMAIN_SEPARATOR}."
      },
      "allowance(address,address)": {
        "details": "See {IERC20-allowance}."
      },
      "approve(address,uint256)": {
        "details": "See {IERC20-approve}. NOTE: If `amount` is the maximum `uint256`, the allowance is not updated on `transferFrom`. This is semantically equivalent to an infinite approval. Requirements: - `spender` cannot be the zero address."
      },
      "balanceOf(address)": {
        "details": "See {IERC20-balanceOf}."
      },
      "checkpoints(address,uint32)": {
        "details": "Get the `pos`-th checkpoint for `account`."
      },
      "decimals()": {
        "details": "Returns the number of decimals used to get its user representation. For example, if `decimals` equals `2`, a balance of `505` tokens should be displayed to a user as `5.05` (`505 / 10 ** 2`). Tokens usually opt for a value of 18, imitating the relationship between Ether and Wei. This is the value {ERC20} uses, unless this function is overridden; NOTE: This information is only used for _display_ purposes: it in no way affects any of the arithmetic of the contract, including {IERC20-balanceOf} and {IERC20-transfer}."
      },
      "decreaseAllowance(address,uint256)": {
        "details": "Atomically decreases the allowance granted to `spender` by the caller. This is an alternative to {approve} that can be used as a mitigation for problems described in {IERC20-approve}. Emits an {Approval} event indicating the updated allowance. Requirements: - `spender` cannot be the zero address. - `spender` must have allowance for the caller of at least `subtractedValue`."
      },
      "delegate(address)": {
        "details": "Delegate votes from the sender to `delegatee`."
      },
      "delegateBySig(address,uint256,uint256,uint8,bytes32,bytes32)": {
        "details": "Delegates votes from signer to `delegatee`"
      },
      "delegates(address)": {
        "details": "Get the address `account` is currently delegating to."
      },
      "getPastTotalSupply(uint256)": {
        "details": "Retrieve the `totalSupply` at the end of `blockNumber`. Note, this value is the sum of all balances. It is but NOT the sum of all the delegated votes! Requirements: - `blockNumber` must have been already mined"
      },
      "getPastVotes(address,uint256)": {
        "details": "Retrieve the number of votes for `account` at the end of `blockNumber`. Requirements: - `blockNumber` must have been already mined"
      },
      "getVotes(address)": {
        "details": "Gets the current votes balance for `account`"
      },
      "increaseAllowance(address,uint256)": {
        "details": "Atomically increases the allowance granted to `spender` by the caller. This is an alternative to {approve} that can be used as a mitigation for problems described in {IERC20-approve}. Emits an {Approval} event indicating the updated allowance. Requirements: - `spender` cannot be the zero address."
      },
      "name()": {
        "details": "Returns the name of the token."
      },
      "nonces(address)": {
        "details": "See {IERC20Permit-nonces}."
      },
      "numCheckpoints(address)": {
        "details": "Get number of checkpoints for `account`."
      },
      "permit(address,address,uint256,uint256,uint8,bytes32,bytes32)": {
        "details": "See {IERC20Permit-permit}."
      },
      "symbol()": {
        "details": "Returns the symbol of the token, usually a shorter version of the name."
      },
      "totalSupply()": {
        "details": "See {IERC20-totalSupply}."
      },
      "transfer(address,uint256)": {
        "details": "See {IERC20-transfer}. Requirements: - `to` cannot be the zero address. - the caller must have a balance of at least `amount`."
      },
      "transferFrom(address,address,uint256)": {
        "details": "See {IERC20-transferFrom}. Emits an {Approval} event indicating the updated allowance. This is not required by the EIP. See the note at the beginning of {ERC20}. NOTE: Does not update the allowance if the current allowance is the maximum `uint256`. Requirements: - `from` and `to` cannot be the zero address. - `from` must have a balance of at least `amount`. - the caller must have allowance for ``from``'s tokens of at least `amount`."
      }
    },
    "version": 1
  },
  "userdoc": {
    "kind": "user",
    "methods": {},
    "version": 1
  }
}