{
  "contractName": "SUFriendVote",
  "abi": [
    {
      "inputs": [],
      "stateMutability": "nonpayable",
      "type": "constructor"
    },
    {
      "anonymous": false,
      "inputs": [
        {
          "indexed": true,
          "internalType": "address",
          "name": "owner",
          "type": "address"
        },
        {
          "indexed": true,
          "internalType": "address",
          "name": "spender",
          "type": "address"
        },
        {
          "indexed": false,
          "internalType": "uint256",
          "name": "value",
          "type": "uint256"
        }
      ],
      "name": "Approval",
      "type": "event"
    },
    {
      "anonymous": false,
      "inputs": [
        {
          "indexed": true,
          "internalType": "address",
          "name": "delegator",
          "type": "address"
        },
        {
          "indexed": true,
          "internalType": "address",
          "name": "fromDelegate",
          "type": "address"
        },
        {
          "indexed": true,
          "internalType": "address",
          "name": "toDelegate",
          "type": "address"
        }
      ],
      "name": "DelegateChanged",
      "type": "event"
    },
    {
      "anonymous": false,
      "inputs": [
        {
          "indexed": true,
          "internalType": "address",
          "name": "delegate",
          "type": "address"
        },
        {
          "indexed": false,
          "internalType": "uint256",
          "name": "previousBalance",
          "type": "uint256"
        },
        {
          "indexed": false,
          "internalType": "uint256",
          "name": "newBalance",
          "type": "uint256"
        }
      ],
      "name": "DelegateVotesChanged",
      "type": "event"
    },
    {
      "anonymous": false,
      "inputs": [
        {
          "indexed": true,
          "internalType": "address",
          "name": "previousOwner",
          "type": "address"
        },
        {
          "indexed": true,
          "internalType": "address",
          "name": "newOwner",
          "type": "address"
        }
      ],
      "name": "OwnershipTransferred",
      "type": "event"
    },
    {
      "anonymous": false,
      "inputs": [
        {
          "indexed": true,
          "internalType": "address",
          "name": "from",
          "type": "address"
        },
        {
          "indexed": true,
          "internalType": "address",
          "name": "to",
          "type": "address"
        },
        {
          "indexed": false,
          "internalType": "uint256",
          "name": "value",
          "type": "uint256"
        }
      ],
      "name": "Transfer",
      "type": "event"
    },
    {
      "inputs": [],
      "name": "DOMAIN_SEPARATOR",
      "outputs": [
        {
          "internalType": "bytes32",
          "name": "",
          "type": "bytes32"
        }
      ],
      "stateMutability": "view",
      "type": "function",
      "constant": true
    },
    {
      "inputs": [
        {
          "internalType": "address",
          "name": "owner",
          "type": "address"
        },
        {
          "internalType": "address",
          "name": "spender",
          "type": "address"
        }
      ],
      "name": "allowance",
      "outputs": [
        {
          "internalType": "uint256",
          "name": "",
          "type": "uint256"
        }
      ],
      "stateMutability": "view",
      "type": "function",
      "constant": true
    },
    {
      "inputs": [
        {
          "internalType": "address",
          "name": "spender",
          "type": "address"
        },
        {
          "internalType": "uint256",
          "name": "amount",
          "type": "uint256"
        }
      ],
      "name": "approve",
      "outputs": [
        {
          "internalType": "bool",
          "name": "",
          "type": "bool"
        }
      ],
      "stateMutability": "nonpayable",
      "type": "function"
    },
    {
      "inputs": [
        {
          "internalType": "address",
          "name": "account",
          "type": "address"
        }
      ],
      "name": "balanceOf",
      "outputs": [
        {
          "internalType": "uint256",
          "name": "",
          "type": "uint256"
        }
      ],
      "stateMutability": "view",
      "type": "function",
      "constant": true
    },
    {
      "inputs": [
        {
          "internalType": "uint256",
          "name": "amount",
          "type": "uint256"
        }
      ],
      "name": "burn",
      "outputs": [],
      "stateMutability": "nonpayable",
      "type": "function"
    },
    {
      "inputs": [
        {
          "internalType": "address",
          "name": "account",
          "type": "address"
        },
        {
          "internalType": "uint256",
          "name": "amount",
          "type": "uint256"
        }
      ],
      "name": "burnFrom",
      "outputs": [],
      "stateMutability": "nonpayable",
      "type": "function"
    },
    {
      "inputs": [
        {
          "internalType": "address",
          "name": "account",
          "type": "address"
        },
        {
          "internalType": "uint32",
          "name": "pos",
          "type": "uint32"
        }
      ],
      "name": "checkpoints",
      "outputs": [
        {
          "components": [
            {
              "internalType": "uint32",
              "name": "fromBlock",
              "type": "uint32"
            },
            {
              "internalType": "uint224",
              "name": "votes",
              "type": "uint224"
            }
          ],
          "internalType": "struct ERC20Votes.Checkpoint",
          "name": "",
          "type": "tuple"
        }
      ],
      "stateMutability": "view",
      "type": "function",
      "constant": true
    },
    {
      "inputs": [],
      "name": "decimals",
      "outputs": [
        {
          "internalType": "uint8",
          "name": "",
          "type": "uint8"
        }
      ],
      "stateMutability": "view",
      "type": "function",
      "constant": true
    },
    {
      "inputs": [
        {
          "internalType": "address",
          "name": "spender",
          "type": "address"
        },
        {
          "internalType": "uint256",
          "name": "subtractedValue",
          "type": "uint256"
        }
      ],
      "name": "decreaseAllowance",
      "outputs": [
        {
          "internalType": "bool",
          "name": "",
          "type": "bool"
        }
      ],
      "stateMutability": "nonpayable",
      "type": "function"
    },
    {
      "inputs": [
        {
          "internalType": "address",
          "name": "delegatee",
          "type": "address"
        }
      ],
      "name": "delegate",
      "outputs": [],
      "stateMutability": "nonpayable",
      "type": "function"
    },
    {
      "inputs": [
        {
          "internalType": "address",
          "name": "delegatee",
          "type": "address"
        },
        {
          "internalType": "uint256",
          "name": "nonce",
          "type": "uint256"
        },
        {
          "internalType": "uint256",
          "name": "expiry",
          "type": "uint256"
        },
        {
          "internalType": "uint8",
          "name": "v",
          "type": "uint8"
        },
        {
          "internalType": "bytes32",
          "name": "r",
          "type": "bytes32"
        },
        {
          "internalType": "bytes32",
          "name": "s",
          "type": "bytes32"
        }
      ],
      "name": "delegateBySig",
      "outputs": [],
      "stateMutability": "nonpayable",
      "type": "function"
    },
    {
      "inputs": [
        {
          "internalType": "address",
          "name": "account",
          "type": "address"
        }
      ],
      "name": "delegates",
      "outputs": [
        {
          "internalType": "address",
          "name": "",
          "type": "address"
        }
      ],
      "stateMutability": "view",
      "type": "function",
      "constant": true
    },
    {
      "inputs": [
        {
          "internalType": "uint256",
          "name": "blockNumber",
          "type": "uint256"
        }
      ],
      "name": "getPastTotalSupply",
      "outputs": [
        {
          "internalType": "uint256",
          "name": "",
          "type": "uint256"
        }
      ],
      "stateMutability": "view",
      "type": "function",
      "constant": true
    },
    {
      "inputs": [
        {
          "internalType": "address",
          "name": "account",
          "type": "address"
        },
        {
          "internalType": "uint256",
          "name": "blockNumber",
          "type": "uint256"
        }
      ],
      "name": "getPastVotes",
      "outputs": [
        {
          "internalType": "uint256",
          "name": "",
          "type": "uint256"
        }
      ],
      "stateMutability": "view",
      "type": "function",
      "constant": true
    },
    {
      "inputs": [
        {
          "internalType": "address",
          "name": "account",
          "type": "address"
        }
      ],
      "name": "getVotes",
      "outputs": [
        {
          "internalType": "uint256",
          "name": "",
          "type": "uint256"
        }
      ],
      "stateMutability": "view",
      "type": "function",
      "constant": true
    },
    {
      "inputs": [
        {
          "internalType": "address",
          "name": "spender",
          "type": "address"
        },
        {
          "internalType": "uint256",
          "name": "addedValue",
          "type": "uint256"
        }
      ],
      "name": "increaseAllowance",
      "outputs": [
        {
          "internalType": "bool",
          "name": "",
          "type": "bool"
        }
      ],
      "stateMutability": "nonpayable",
      "type": "function"
    },
    {
      "inputs": [],
      "name": "name",
      "outputs": [
        {
          "internalType": "string",
          "name": "",
          "type": "string"
        }
      ],
      "stateMutability": "view",
      "type": "function",
      "constant": true
    },
    {
      "inputs": [
        {
          "internalType": "address",
          "name": "owner",
          "type": "address"
        }
      ],
      "name": "nonces",
      "outputs": [
        {
          "internalType": "uint256",
          "name": "",
          "type": "uint256"
        }
      ],
      "stateMutability": "view",
      "type": "function",
      "constant": true
    },
    {
      "inputs": [
        {
          "internalType": "address",
          "name": "account",
          "type": "address"
        }
      ],
      "name": "numCheckpoints",
      "outputs": [
        {
          "internalType": "uint32",
          "name": "",
          "type": "uint32"
        }
      ],
      "stateMutability": "view",
      "type": "function",
      "constant": true
    },
    {
      "inputs": [],
      "name": "owner",
      "outputs": [
        {
          "internalType": "address",
          "name": "",
          "type": "address"
        }
      ],
      "stateMutability": "view",
      "type": "function",
      "constant": true
    },
    {
      "inputs": [
        {
          "internalType": "address",
          "name": "owner",
          "type": "address"
        },
        {
          "internalType": "address",
          "name": "spender",
          "type": "address"
        },
        {
          "internalType": "uint256",
          "name": "value",
          "type": "uint256"
        },
        {
          "internalType": "uint256",
          "name": "deadline",
          "type": "uint256"
        },
        {
          "internalType": "uint8",
          "name": "v",
          "type": "uint8"
        },
        {
          "internalType": "bytes32",
          "name": "r",
          "type": "bytes32"
        },
        {
          "internalType": "bytes32",
          "name": "s",
          "type": "bytes32"
        }
      ],
      "name": "permit",
      "outputs": [],
      "stateMutability": "nonpayable",
      "type": "function"
    },
    {
      "inputs": [],
      "name": "renounceOwnership",
      "outputs": [],
      "stateMutability": "nonpayable",
      "type": "function"
    },
    {
      "inputs": [],
      "name": "symbol",
      "outputs": [
        {
          "internalType": "string",
          "name": "",
          "type": "string"
        }
      ],
      "stateMutability": "view",
      "type": "function",
      "constant": true
    },
    {
      "inputs": [],
      "name": "totalSupply",
      "outputs": [
        {
          "internalType": "uint256",
          "name": "",
          "type": "uint256"
        }
      ],
      "stateMutability": "view",
      "type": "function",
      "constant": true
    },
    {
      "inputs": [
        {
          "internalType": "address",
          "name": "to",
          "type": "address"
        },
        {
          "internalType": "uint256",
          "name": "amount",
          "type": "uint256"
        }
      ],
      "name": "transfer",
      "outputs": [
        {
          "internalType": "bool",
          "name": "",
          "type": "bool"
        }
      ],
      "stateMutability": "nonpayable",
      "type": "function"
    },
    {
      "inputs": [
        {
          "internalType": "address",
          "name": "from",
          "type": "address"
        },
        {
          "internalType": "address",
          "name": "to",
          "type": "address"
        },
        {
          "internalType": "uint256",
          "name": "amount",
          "type": "uint256"
        }
      ],
      "name": "transferFrom",
      "outputs": [
        {
          "internalType": "bool",
          "name": "",
          "type": "bool"
        }
      ],
      "stateMutability": "nonpayable",
      "type": "function"
    },
    {
      "inputs": [
        {
          "internalType": "address",
          "name": "newOwner",
          "type": "address"
        }
      ],
      "name": "transferOwnership",
      "outputs": [],
      "stateMutability": "nonpayable",
      "type": "function"
    },
    {
      "inputs": [
        {
          "internalType": "address",
          "name": "to",
          "type": "address"
        },
        {
          "internalType": "uint256",
          "name": "amount",
          "type": "uint256"
        }
      ],
      "name": "mint",
      "outputs": [],
      "stateMutability": "nonpayable",
      "type": "function"
    }
  ],
  "bytecode": "0x6101406040523480156200001257600080fd5b506040518060400160405280600c81526020016b5355467269656e64566f746560a01b81525080604051806040016040528060018152602001603160f81b8152506040518060400160405280600c81526020016b5355467269656e64566f746560a01b8152506040518060400160405280600481526020016329aaa32b60e11b8152508160039080519060200190620000ad929190620007b0565b508051620000c3906004906020840190620007b0565b505050620000e0620000da6200019c60201b60201c565b620001a0565b815160209283012081519183019190912060e08290526101008190524660a0818152604080517f8b73c3c69bb8fe3d512ecc4cf759cc79239f7b179b0ffacaa9a75d522b39400f818801819052818301969096526060810194909452608080850193909352308483018190528151808603909301835260c09485019091528151919095012090529190915261012052506200019633620001836012600a6200095f565b6200019090606462000970565b620001f2565b62000a04565b3390565b600580546001600160a01b038381166001600160a01b0319831681179093556040519116919082907f8be0079c531659141344cd1fd0a4f28419497f9722a3daafe3b4186f6b6457e090600090a35050565b6200020982826200020d60201b62000bac1760201c565b5050565b620002248282620002c460201b62000c3c1760201c565b6001600160e01b0362000238620003918216565b1115620002a55760405162461bcd60e51b815260206004820152603060248201527f4552433230566f7465733a20746f74616c20737570706c79207269736b73206f60448201526f766572666c6f77696e6720766f74657360801b60648201526084015b60405180910390fd5b620002be600a62000d036200039760201b1783620003ae565b50505050565b6001600160a01b0382166200031c5760405162461bcd60e51b815260206004820152601f60248201527f45524332303a206d696e7420746f20746865207a65726f20616464726573730060448201526064016200029c565b806002600082825462000330919062000992565b90915550506001600160a01b038216600081815260208181526040808320805486019055518481527fddf252ad1be2c89b69c2b068fc378daa952ba7f163c4a11628f55a4df523b3ef910160405180910390a3620002096000838362000545565b60025490565b6000620003a5828462000992565b90505b92915050565b825460009081908181156200040e57620003dd87620003cf600185620009ad565b600091825260209091200190565b60408051808201909152905463ffffffff8116825264010000000090046001600160e01b0316602082015262000423565b60408051808201909152600080825260208201525b905080602001516001600160e01b031693506200044184868860201c565b92506000821180156200045a5750805163ffffffff1643145b15620004b15762000476836200055d60201b62000d0f1760201c565b6200048888620003cf600186620009ad565b80546001600160e01b03929092166401000000000263ffffffff90921691909117905562000536565b866040518060400160405280620004d343620005cc60201b62000d7c1760201c565b63ffffffff168152602001620004f4866200055d60201b62000d0f1760201c565b6001600160e01b0390811690915282546001810184556000938452602093849020835194909301519091166401000000000263ffffffff909316929092179101555b5050935093915050565b505050565b620005408383836200063360201b62000de11760201c565b60006001600160e01b03821115620005c85760405162461bcd60e51b815260206004820152602760248201527f53616665436173743a2076616c756520646f65736e27742066697420696e20326044820152663234206269747360c81b60648201526084016200029c565b5090565b600063ffffffff821115620005c85760405162461bcd60e51b815260206004820152602660248201527f53616665436173743a2076616c756520646f65736e27742066697420696e203360448201526532206269747360d01b60648201526084016200029c565b6200064b8383836200054060201b62000e131760201c565b6001600160a01b0383811660009081526008602052604080822054858416835291205462000540929182169116838183148015906200068a5750600081115b1562000540576001600160a01b0383161562000717576001600160a01b038316600090815260096020908152604082208291620006d49190620007a2901b62000e181785620003ae565b91509150846001600160a01b031660008051602062002abd83398151915283836040516200070c929190918252602082015260400190565b60405180910390a250505b6001600160a01b0382161562000540576001600160a01b0382166000908152600960209081526040822082916200075b919062000397901b62000d031785620003ae565b91509150836001600160a01b031660008051602062002abd833981519152838360405162000793929190918252602082015260400190565b60405180910390a25050505050565b6000620003a58284620009ad565b828054620007be90620009c7565b90600052602060002090601f016020900481019282620007e257600085556200082d565b82601f10620007fd57805160ff19168380011785556200082d565b828001600101855582156200082d579182015b828111156200082d57825182559160200191906001019062000810565b50620005c89291505b80821115620005c8576000815560010162000836565b634e487b7160e01b600052601160045260246000fd5b600181815b80851115620008a35781600019048211156200088757620008876200084c565b808516156200089557918102915b93841c939080029062000867565b509250929050565b600082620008bc57506001620003a8565b81620008cb57506000620003a8565b8160018114620008e45760028114620008ef576200090f565b6001915050620003a8565b60ff8411156200090357620009036200084c565b50506001821b620003a8565b5060208310610133831016604e8410600b841016171562000934575081810a620003a8565b62000940838362000862565b80600019048211156200095757620009576200084c565b029392505050565b6000620003a560ff841683620008ab565b60008160001904831182151516156200098d576200098d6200084c565b500290565b60008219821115620009a857620009a86200084c565b500190565b600082821015620009c257620009c26200084c565b500390565b600181811c90821680620009dc57607f821691505b60208210811415620009fe57634e487b7160e01b600052602260045260246000fd5b50919050565b60805160a05160c05160e051610100516101205161206962000a5460003960006111f00152600061123f0152600061121a015260006111730152600061119d015260006111c701526120696000f3fe608060405234801561001057600080fd5b50600436106101c45760003560e01c8063715018a6116100f9578063a457c2d711610097578063d505accf11610071578063d505accf146103e2578063dd62ed3e146103f5578063f1127ed814610408578063f2fde38b1461044557600080fd5b8063a457c2d7146103a9578063a9059cbb146103bc578063c3cda520146103cf57600080fd5b80638da5cb5b116100d35780638da5cb5b1461036a5780638e539e8c1461037b57806395d89b411461038e5780639ab24eb01461039657600080fd5b8063715018a61461033c57806379cc6790146103445780637ecebe001461035757600080fd5b80633a46b1a811610166578063587cde1e11610140578063587cde1e146102945780635c19a95c146102d85780636fcfff45146102eb57806370a082311461031357600080fd5b80633a46b1a81461025957806340c10f191461026c57806342966c681461028157600080fd5b806323b872dd116101a257806323b872dd1461021c578063313ce5671461022f5780633644e5151461023e578063395093511461024657600080fd5b806306fdde03146101c9578063095ea7b3146101e757806318160ddd1461020a575b600080fd5b6101d1610458565b6040516101de9190611d04565b60405180910390f35b6101fa6101f5366004611d75565b6104ea565b60405190151581526020016101de565b6002545b6040519081526020016101de565b6101fa61022a366004611d9f565b610502565b604051601281526020016101de565b61020e610526565b6101fa610254366004611d75565b610535565b61020e610267366004611d75565b610557565b61027f61027a366004611d75565b6105d6565b005b61027f61028f366004611ddb565b6105ec565b6102c06102a2366004611df4565b6001600160a01b039081166000908152600860205260409020541690565b6040516001600160a01b0390911681526020016101de565b61027f6102e6366004611df4565b6105f9565b6102fe6102f9366004611df4565b610603565b60405163ffffffff90911681526020016101de565b61020e610321366004611df4565b6001600160a01b031660009081526020819052604090205490565b61027f61062b565b61027f610352366004611d75565b61063f565b61020e610365366004611df4565b610654565b6005546001600160a01b03166102c0565b61020e610389366004611ddb565b610672565b6101d16106ce565b61020e6103a4366004611df4565b6106dd565b6101fa6103b7366004611d75565b610764565b6101fa6103ca366004611d75565b6107df565b61027f6103dd366004611e20565b6107ed565b61027f6103f0366004611e78565b610923565b61020e610403366004611ee2565b610a87565b61041b610416366004611f15565b610ab2565b60408051825163ffffffff1681526020928301516001600160e01b031692810192909252016101de565b61027f610453366004611df4565b610b36565b60606003805461046790611f55565b80601f016020809104026020016040519081016040528092919081815260200182805461049390611f55565b80156104e05780601f106104b5576101008083540402835291602001916104e0565b820191906000526020600020905b8154815290600101906020018083116104c357829003601f168201915b5050505050905090565b6000336104f8818585610e24565b5060019392505050565b600033610510858285610f48565b61051b858585610fbc565b506001949350505050565b6000610530611166565b905090565b6000336104f88185856105488383610a87565b6105529190611fa0565b610e24565b60004382106105ad5760405162461bcd60e51b815260206004820152601f60248201527f4552433230566f7465733a20626c6f636b206e6f7420796574206d696e65640060448201526064015b60405180910390fd5b6001600160a01b03831660009081526009602052604090206105cf908361128d565b9392505050565b6105de611384565b6105e882826113de565b5050565b6105f633826113e8565b50565b6105f633826113f2565b6001600160a01b03811660009081526009602052604081205461062590610d7c565b92915050565b610633611384565b61063d600061146b565b565b61064a823383610f48565b6105e882826113e8565b6001600160a01b038116600090815260066020526040812054610625565b60004382106106c35760405162461bcd60e51b815260206004820152601f60248201527f4552433230566f7465733a20626c6f636b206e6f7420796574206d696e65640060448201526064016105a4565b610625600a8361128d565b60606004805461046790611f55565b6001600160a01b0381166000908152600960205260408120548015610751576001600160a01b038316600090815260096020526040902061071f600183611fb8565b8154811061072f5761072f611fcf565b60009182526020909120015464010000000090046001600160e01b0316610754565b60005b6001600160e01b03169392505050565b600033816107728286610a87565b9050838110156107d25760405162461bcd60e51b815260206004820152602560248201527f45524332303a2064656372656173656420616c6c6f77616e63652062656c6f77604482015264207a65726f60d81b60648201526084016105a4565b61051b8286868403610e24565b6000336104f8818585610fbc565b8342111561083d5760405162461bcd60e51b815260206004820152601d60248201527f4552433230566f7465733a207369676e6174757265206578706972656400000060448201526064016105a4565b604080517fe48329057bfd03d55e49b547132e39cffd9c1820ad7b9d4c5307691425d15adf60208201526001600160a01b0388169181019190915260608101869052608081018590526000906108b7906108af9060a001604051602081830303815290604052805190602001206114bd565b85858561150b565b90506108c281611533565b86146109105760405162461bcd60e51b815260206004820152601960248201527f4552433230566f7465733a20696e76616c6964206e6f6e63650000000000000060448201526064016105a4565b61091a81886113f2565b50505050505050565b834211156109735760405162461bcd60e51b815260206004820152601d60248201527f45524332305065726d69743a206578706972656420646561646c696e6500000060448201526064016105a4565b60007f6e71edae12b1b97f4d1f60370fef10105fa2faae0126114a169c64845d6126c98888886109a28c611533565b6040805160208101969096526001600160a01b0394851690860152929091166060840152608083015260a082015260c0810186905260e00160405160208183030381529060405280519060200120905060006109fd826114bd565b90506000610a0d8287878761150b565b9050896001600160a01b0316816001600160a01b031614610a705760405162461bcd60e51b815260206004820152601e60248201527f45524332305065726d69743a20696e76616c6964207369676e6174757265000060448201526064016105a4565b610a7b8a8a8a610e24565b50505050505050505050565b6001600160a01b03918216600090815260016020908152604080832093909416825291909152205490565b60408051808201909152600080825260208201526001600160a01b0383166000908152600960205260409020805463ffffffff8416908110610af657610af6611fcf565b60009182526020918290206040805180820190915291015463ffffffff8116825264010000000090046001600160e01b0316918101919091529392505050565b610b3e611384565b6001600160a01b038116610ba35760405162461bcd60e51b815260206004820152602660248201527f4f776e61626c653a206e6577206f776e657220697320746865207a65726f206160448201526564647265737360d01b60648201526084016105a4565b6105f68161146b565b610bb68282610c3c565b6002546001600160e01b031015610c285760405162461bcd60e51b815260206004820152603060248201527f4552433230566f7465733a20746f74616c20737570706c79207269736b73206f60448201526f766572666c6f77696e6720766f74657360801b60648201526084016105a4565b610c36600a610d038361155b565b50505050565b6001600160a01b038216610c925760405162461bcd60e51b815260206004820152601f60248201527f45524332303a206d696e7420746f20746865207a65726f20616464726573730060448201526064016105a4565b8060026000828254610ca49190611fa0565b90915550506001600160a01b038216600081815260208181526040808320805486019055518481527fddf252ad1be2c89b69c2b068fc378daa952ba7f163c4a11628f55a4df523b3ef910160405180910390a36105e8600083836116af565b60006105cf8284611fa0565b60006001600160e01b03821115610d785760405162461bcd60e51b815260206004820152602760248201527f53616665436173743a2076616c756520646f65736e27742066697420696e20326044820152663234206269747360c81b60648201526084016105a4565b5090565b600063ffffffff821115610d785760405162461bcd60e51b815260206004820152602660248201527f53616665436173743a2076616c756520646f65736e27742066697420696e203360448201526532206269747360d01b60648201526084016105a4565b6001600160a01b03838116600090815260086020526040808220548584168352912054610e13929182169116836116ba565b505050565b60006105cf8284611fb8565b6001600160a01b038316610e865760405162461bcd60e51b8152602060048201526024808201527f45524332303a20617070726f76652066726f6d20746865207a65726f206164646044820152637265737360e01b60648201526084016105a4565b6001600160a01b038216610ee75760405162461bcd60e51b815260206004820152602260248201527f45524332303a20617070726f766520746f20746865207a65726f206164647265604482015261737360f01b60648201526084016105a4565b6001600160a01b0383811660008181526001602090815260408083209487168084529482529182902085905590518481527f8c5be1e5ebec7d5bd14f71427d1e84f3dd0314c0f7b2291e5b200ac8c7c3b925910160405180910390a3505050565b6000610f548484610a87565b90506000198114610c365781811015610faf5760405162461bcd60e51b815260206004820152601d60248201527f45524332303a20696e73756666696369656e7420616c6c6f77616e636500000060448201526064016105a4565b610c368484848403610e24565b6001600160a01b0383166110205760405162461bcd60e51b815260206004820152602560248201527f45524332303a207472616e736665722066726f6d20746865207a65726f206164604482015264647265737360d81b60648201526084016105a4565b6001600160a01b0382166110825760405162461bcd60e51b815260206004820152602360248201527f45524332303a207472616e7366657220746f20746865207a65726f206164647260448201526265737360e81b60648201526084016105a4565b6001600160a01b038316600090815260208190526040902054818110156110fa5760405162461bcd60e51b815260206004820152602660248201527f45524332303a207472616e7366657220616d6f756e7420657863656564732062604482015265616c616e636560d01b60648201526084016105a4565b6001600160a01b03848116600081815260208181526040808320878703905593871680835291849020805487019055925185815290927fddf252ad1be2c89b69c2b068fc378daa952ba7f163c4a11628f55a4df523b3ef910160405180910390a3610c368484846116af565b6000306001600160a01b037f0000000000000000000000000000000000000000000000000000000000000000161480156111bf57507f000000000000000000000000000000000000000000000000000000000000000046145b156111e957507f000000000000000000000000000000000000000000000000000000000000000090565b50604080517f00000000000000000000000000000000000000000000000000000000000000006020808301919091527f0000000000000000000000000000000000000000000000000000000000000000828401527f000000000000000000000000000000000000000000000000000000000000000060608301524660808301523060a0808401919091528351808403909101815260c0909201909252805191012090565b8154600090818160058111156112e75760006112a8846117f7565b6112b29085611fb8565b600088815260209020909150869082015463ffffffff1611156112d7578091506112e5565b6112e2816001611fa0565b92505b505b808210156113345760006112fb83836118dc565b600088815260209020909150869082015463ffffffff1611156113205780915061132e565b61132b816001611fa0565b92505b506112e7565b801561136e5761135786611349600184611fb8565b600091825260209091200190565b5464010000000090046001600160e01b0316611371565b60005b6001600160e01b03169695505050505050565b6005546001600160a01b0316331461063d5760405162461bcd60e51b815260206004820181905260248201527f4f776e61626c653a2063616c6c6572206973206e6f7420746865206f776e657260448201526064016105a4565b6105e88282610bac565b6105e882826118f7565b6001600160a01b038281166000818152600860208181526040808420805485845282862054949093528787166001600160a01b03198416811790915590519190951694919391928592917f3134e8a2e6d97e929a7e54011ea5485d7d196dd5f0ba4d4ef95803e8e3fc257f9190a4610c368284836116ba565b600580546001600160a01b038381166001600160a01b0319831681179093556040519116919082907f8be0079c531659141344cd1fd0a4f28419497f9722a3daafe3b4186f6b6457e090600090a35050565b60006106256114ca611166565b8360405161190160f01b6020820152602281018390526042810182905260009060620160405160208183030381529060405280519060200120905092915050565b600080600061151c8787878761190f565b91509150611529816119d3565b5095945050505050565b6001600160a01b03811660009081526006602052604090208054600181018255905b50919050565b825460009081908181156115a85761157887611349600185611fb8565b60408051808201909152905463ffffffff8116825264010000000090046001600160e01b031660208201526115bd565b60408051808201909152600080825260208201525b905080602001516001600160e01b031693506115dd84868863ffffffff16565b92506000821180156115f55750805163ffffffff1643145b1561163a5761160383610d0f565b61161288611349600186611fb8565b80546001600160e01b03929092166401000000000263ffffffff9092169190911790556116a5565b86604051806040016040528061164f43610d7c565b63ffffffff16815260200161166386610d0f565b6001600160e01b0390811690915282546001810184556000938452602093849020835194909301519091166401000000000263ffffffff909316929092179101555b5050935093915050565b610e13838383610de1565b816001600160a01b0316836001600160a01b0316141580156116dc5750600081115b15610e13576001600160a01b0383161561176a576001600160a01b0383166000908152600960205260408120819061171790610e188561155b565b91509150846001600160a01b03167fdec2bacdd2f05b59de34da9b523dff8be42e5e38e818c82fdb0bae774387a724838360405161175f929190918252602082015260400190565b60405180910390a250505b6001600160a01b03821615610e13576001600160a01b038216600090815260096020526040812081906117a090610d038561155b565b91509150836001600160a01b03167fdec2bacdd2f05b59de34da9b523dff8be42e5e38e818c82fdb0bae774387a72483836040516117e8929190918252602082015260400190565b60405180910390a25050505050565b60008161180657506000919050565b6000600161181384611b21565b901c6001901b9050600181848161182c5761182c611fe5565b048201901c9050600181848161184457611844611fe5565b048201901c9050600181848161185c5761185c611fe5565b048201901c9050600181848161187457611874611fe5565b048201901c9050600181848161188c5761188c611fe5565b048201901c905060018184816118a4576118a4611fe5565b048201901c905060018184816118bc576118bc611fe5565b048201901c90506105cf818285816118d6576118d6611fe5565b04611bb5565b60006118eb6002848418611ffb565b6105cf90848416611fa0565b6119018282611bcb565b610c36600a610e188361155b565b6000807f7fffffffffffffffffffffffffffffff5d576e7357a4501ddfe92f46681b20a083111561194657506000905060036119ca565b6040805160008082526020820180845289905260ff881692820192909252606081018690526080810185905260019060a0016020604051602081039080840390855afa15801561199a573d6000803e3d6000fd5b5050604051601f1901519150506001600160a01b0381166119c3576000600192509250506119ca565b9150600090505b94509492505050565b60008160048111156119e7576119e761201d565b14156119f05750565b6001816004811115611a0457611a0461201d565b1415611a525760405162461bcd60e51b815260206004820152601860248201527f45434453413a20696e76616c6964207369676e6174757265000000000000000060448201526064016105a4565b6002816004811115611a6657611a6661201d565b1415611ab45760405162461bcd60e51b815260206004820152601f60248201527f45434453413a20696e76616c6964207369676e6174757265206c656e6774680060448201526064016105a4565b6003816004811115611ac857611ac861201d565b14156105f65760405162461bcd60e51b815260206004820152602260248201527f45434453413a20696e76616c6964207369676e6174757265202773272076616c604482015261756560f01b60648201526084016105a4565b600080608083901c15611b3657608092831c92015b604083901c15611b4857604092831c92015b602083901c15611b5a57602092831c92015b601083901c15611b6c57601092831c92015b600883901c15611b7e57600892831c92015b600483901c15611b9057600492831c92015b600283901c15611ba257600292831c92015b600183901c156106255760010192915050565b6000818310611bc457816105cf565b5090919050565b6001600160a01b038216611c2b5760405162461bcd60e51b815260206004820152602160248201527f45524332303a206275726e2066726f6d20746865207a65726f206164647265736044820152607360f81b60648201526084016105a4565b6001600160a01b03821660009081526020819052604090205481811015611c9f5760405162461bcd60e51b815260206004820152602260248201527f45524332303a206275726e20616d6f756e7420657863656564732062616c616e604482015261636560f01b60648201526084016105a4565b6001600160a01b0383166000818152602081815260408083208686039055600280548790039055518581529192917fddf252ad1be2c89b69c2b068fc378daa952ba7f163c4a11628f55a4df523b3ef910160405180910390a3610e13836000846116af565b600060208083528351808285015260005b81811015611d3157858101830151858201604001528201611d15565b81811115611d43576000604083870101525b50601f01601f1916929092016040019392505050565b80356001600160a01b0381168114611d7057600080fd5b919050565b60008060408385031215611d8857600080fd5b611d9183611d59565b946020939093013593505050565b600080600060608486031215611db457600080fd5b611dbd84611d59565b9250611dcb60208501611d59565b9150604084013590509250925092565b600060208284031215611ded57600080fd5b5035919050565b600060208284031215611e0657600080fd5b6105cf82611d59565b803560ff81168114611d7057600080fd5b60008060008060008060c08789031215611e3957600080fd5b611e4287611d59565b95506020870135945060408701359350611e5e60608801611e0f565b92506080870135915060a087013590509295509295509295565b600080600080600080600060e0888a031215611e9357600080fd5b611e9c88611d59565b9650611eaa60208901611d59565b95506040880135945060608801359350611ec660808901611e0f565b925060a0880135915060c0880135905092959891949750929550565b60008060408385031215611ef557600080fd5b611efe83611d59565b9150611f0c60208401611d59565b90509250929050565b60008060408385031215611f2857600080fd5b611f3183611d59565b9150602083013563ffffffff81168114611f4a57600080fd5b809150509250929050565b600181811c90821680611f6957607f821691505b6020821081141561155557634e487b7160e01b600052602260045260246000fd5b634e487b7160e01b600052601160045260246000fd5b60008219821115611fb357611fb3611f8a565b500190565b600082821015611fca57611fca611f8a565b500390565b634e487b7160e01b600052603260045260246000fd5b634e487b7160e01b600052601260045260246000fd5b60008261201857634e487b7160e01b600052601260045260246000fd5b500490565b634e487b7160e01b600052602160045260246000fdfea26469706673582212206f9df1b0026c84408eb0dcc02089f0d4639c70efc4fe15966edfe1b2e6aa4f9864736f6c63430008090033dec2bacdd2f05b59de34da9b523dff8be42e5e38e818c82fdb0bae774387a724",
  "immutableReferences": {
    "8417": [
      {
        "length": 32,
        "start": 4551
      }
    ],
    "8419": [
      {
        "length": 32,
        "start": 4509
      }
    ],
    "8421": [
      {
        "length": 32,
        "start": 4467
      }
    ],
    "8423": [
      {
        "length": 32,
        "start": 4634
      }
    ],
    "8425": [
      {
        "length": 32,
        "start": 4671
      }
    ],
    "8427": [
      {
        "length": 32,
        "start": 4592
      }
    ]
  },
  "source": "// SPDX-License-Identifier: MIT\npragma solidity ^0.8.9;\n\nimport \"@openzeppelin/contracts/token/ERC20/ERC20.sol\";\nimport \"@openzeppelin/contracts/token/ERC20/extensions/ERC20Burnable.sol\";\nimport \"@openzeppelin/contracts/access/Ownable.sol\";\nimport \"@openzeppelin/contracts/token/ERC20/extensions/draft-ERC20Permit.sol\";\nimport \"@openzeppelin/contracts/token/ERC20/extensions/ERC20Votes.sol\";\n\ncontract SUFriendVote is ERC20, ERC20Burnable, Ownable, ERC20Permit, ERC20Votes {\n    constructor() ERC20(\"SUFriendVote\", \"SUFV\") ERC20Permit(\"SUFriendVote\") {\n        _mint(msg.sender, 100 * 10 ** decimals());\n    }\n\n    function mint(address to, uint256 amount) public onlyOwner {\n        _mint(to, amount);\n    }\n\n    // The following functions are overrides required by Solidity.\n\n    function _afterTokenTransfer(address from, address to, uint256 amount)\n        internal\n        override(ERC20, ERC20Votes)\n    {\n        super._afterTokenTransfer(from, to, amount);\n    }\n\n    function _mint(address to, uint256 amount)\n        internal\n        override(ERC20, ERC20Votes)\n    {\n        super._mint(to, amount);\n    }\n\n    function _burn(address account, uint256 amount)\n        internal\n        override(ERC20, ERC20Votes)\n    {\n        super._burn(account, amount);\n    }\n}\n",
  "sourcePath": "/Users/ykc/Documents/Worksplace/Fall2022/CS48001/Project/SUFriends/contracts/SUFriendVote.sol",
  "compiler": {
    "name": "solc",
    "version": "0.8.9+commit.e5eed63a.Emscripten.clang"
  },
  "schemaVersion": "3.4.10",
  "updatedAt": "2023-01-17T20:23:45.941Z",
  "networkType": "ethereum",
  "devdoc": {
    "kind": "dev",
    "methods": {
      "DOMAIN_SEPARATOR()": {
        "details": "See {IERC20Permit-DOMAIN_SEPARATOR}."
      },
      "allowance(address,address)": {
        "details": "See {IERC20-allowance}."
      },
      "approve(address,uint256)": {
        "details": "See {IERC20-approve}. NOTE: If `amount` is the maximum `uint256`, the allowance is not updated on `transferFrom`. This is semantically equivalent to an infinite approval. Requirements: - `spender` cannot be the zero address."
      },
      "balanceOf(address)": {
        "details": "See {IERC20-balanceOf}."
      },
      "burn(uint256)": {
        "details": "Destroys `amount` tokens from the caller. See {ERC20-_burn}."
      },
      "burnFrom(address,uint256)": {
        "details": "Destroys `amount` tokens from `account`, deducting from the caller's allowance. See {ERC20-_burn} and {ERC20-allowance}. Requirements: - the caller must have allowance for ``accounts``'s tokens of at least `amount`."
      },
      "checkpoints(address,uint32)": {
        "details": "Get the `pos`-th checkpoint for `account`."
      },
      "decimals()": {
        "details": "Returns the number of decimals used to get its user representation. For example, if `decimals` equals `2`, a balance of `505` tokens should be displayed to a user as `5.05` (`505 / 10 ** 2`). Tokens usually opt for a value of 18, imitating the relationship between Ether and Wei. This is the value {ERC20} uses, unless this function is overridden; NOTE: This information is only used for _display_ purposes: it in no way affects any of the arithmetic of the contract, including {IERC20-balanceOf} and {IERC20-transfer}."
      },
      "decreaseAllowance(address,uint256)": {
        "details": "Atomically decreases the allowance granted to `spender` by the caller. This is an alternative to {approve} that can be used as a mitigation for problems described in {IERC20-approve}. Emits an {Approval} event indicating the updated allowance. Requirements: - `spender` cannot be the zero address. - `spender` must have allowance for the caller of at least `subtractedValue`."
      },
      "delegate(address)": {
        "details": "Delegate votes from the sender to `delegatee`."
      },
      "delegateBySig(address,uint256,uint256,uint8,bytes32,bytes32)": {
        "details": "Delegates votes from signer to `delegatee`"
      },
      "delegates(address)": {
        "details": "Get the address `account` is currently delegating to."
      },
      "getPastTotalSupply(uint256)": {
        "details": "Retrieve the `totalSupply` at the end of `blockNumber`. Note, this value is the sum of all balances. It is but NOT the sum of all the delegated votes! Requirements: - `blockNumber` must have been already mined"
      },
      "getPastVotes(address,uint256)": {
        "details": "Retrieve the number of votes for `account` at the end of `blockNumber`. Requirements: - `blockNumber` must have been already mined"
      },
      "getVotes(address)": {
        "details": "Gets the current votes balance for `account`"
      },
      "increaseAllowance(address,uint256)": {
        "details": "Atomically increases the allowance granted to `spender` by the caller. This is an alternative to {approve} that can be used as a mitigation for problems described in {IERC20-approve}. Emits an {Approval} event indicating the updated allowance. Requirements: - `spender` cannot be the zero address."
      },
      "name()": {
        "details": "Returns the name of the token."
      },
      "nonces(address)": {
        "details": "See {IERC20Permit-nonces}."
      },
      "numCheckpoints(address)": {
        "details": "Get number of checkpoints for `account`."
      },
      "owner()": {
        "details": "Returns the address of the current owner."
      },
      "permit(address,address,uint256,uint256,uint8,bytes32,bytes32)": {
        "details": "See {IERC20Permit-permit}."
      },
      "renounceOwnership()": {
        "details": "Leaves the contract without owner. It will not be possible to call `onlyOwner` functions anymore. Can only be called by the current owner. NOTE: Renouncing ownership will leave the contract without an owner, thereby removing any functionality that is only available to the owner."
      },
      "symbol()": {
        "details": "Returns the symbol of the token, usually a shorter version of the name."
      },
      "totalSupply()": {
        "details": "See {IERC20-totalSupply}."
      },
      "transfer(address,uint256)": {
        "details": "See {IERC20-transfer}. Requirements: - `to` cannot be the zero address. - the caller must have a balance of at least `amount`."
      },
      "transferFrom(address,address,uint256)": {
        "details": "See {IERC20-transferFrom}. Emits an {Approval} event indicating the updated allowance. This is not required by the EIP. See the note at the beginning of {ERC20}. NOTE: Does not update the allowance if the current allowance is the maximum `uint256`. Requirements: - `from` and `to` cannot be the zero address. - `from` must have a balance of at least `amount`. - the caller must have allowance for ``from``'s tokens of at least `amount`."
      },
      "transferOwnership(address)": {
        "details": "Transfers ownership of the contract to a new account (`newOwner`). Can only be called by the current owner."
      }
    },
    "version": 1
  },
  "userdoc": {
    "kind": "user",
    "methods": {},
    "version": 1
  }
}