{
  "contractName": "SUFriendGovernor",
  "abi": [
    {
      "inputs": [
        {
          "internalType": "contract IVotes",
          "name": "_token",
          "type": "address"
        },
        {
          "internalType": "contract TimelockController",
          "name": "_timelock",
          "type": "address"
        }
      ],
      "stateMutability": "nonpayable",
      "type": "constructor"
    },
    {
      "inputs": [],
      "name": "Empty",
      "type": "error"
    },
    {
      "anonymous": false,
      "inputs": [
        {
          "indexed": false,
          "internalType": "uint256",
          "name": "proposalId",
          "type": "uint256"
        }
      ],
      "name": "ProposalCanceled",
      "type": "event"
    },
    {
      "anonymous": false,
      "inputs": [
        {
          "indexed": false,
          "internalType": "uint256",
          "name": "proposalId",
          "type": "uint256"
        },
        {
          "indexed": false,
          "internalType": "address",
          "name": "proposer",
          "type": "address"
        },
        {
          "indexed": false,
          "internalType": "address[]",
          "name": "targets",
          "type": "address[]"
        },
        {
          "indexed": false,
          "internalType": "uint256[]",
          "name": "values",
          "type": "uint256[]"
        },
        {
          "indexed": false,
          "internalType": "string[]",
          "name": "signatures",
          "type": "string[]"
        },
        {
          "indexed": false,
          "internalType": "bytes[]",
          "name": "calldatas",
          "type": "bytes[]"
        },
        {
          "indexed": false,
          "internalType": "uint256",
          "name": "startBlock",
          "type": "uint256"
        },
        {
          "indexed": false,
          "internalType": "uint256",
          "name": "endBlock",
          "type": "uint256"
        },
        {
          "indexed": false,
          "internalType": "string",
          "name": "description",
          "type": "string"
        }
      ],
      "name": "ProposalCreated",
      "type": "event"
    },
    {
      "anonymous": false,
      "inputs": [
        {
          "indexed": false,
          "internalType": "uint256",
          "name": "proposalId",
          "type": "uint256"
        }
      ],
      "name": "ProposalExecuted",
      "type": "event"
    },
    {
      "anonymous": false,
      "inputs": [
        {
          "indexed": false,
          "internalType": "uint256",
          "name": "proposalId",
          "type": "uint256"
        },
        {
          "indexed": false,
          "internalType": "uint256",
          "name": "eta",
          "type": "uint256"
        }
      ],
      "name": "ProposalQueued",
      "type": "event"
    },
    {
      "anonymous": false,
      "inputs": [
        {
          "indexed": false,
          "internalType": "uint256",
          "name": "oldProposalThreshold",
          "type": "uint256"
        },
        {
          "indexed": false,
          "internalType": "uint256",
          "name": "newProposalThreshold",
          "type": "uint256"
        }
      ],
      "name": "ProposalThresholdSet",
      "type": "event"
    },
    {
      "anonymous": false,
      "inputs": [
        {
          "indexed": false,
          "internalType": "uint256",
          "name": "oldQuorumNumerator",
          "type": "uint256"
        },
        {
          "indexed": false,
          "internalType": "uint256",
          "name": "newQuorumNumerator",
          "type": "uint256"
        }
      ],
      "name": "QuorumNumeratorUpdated",
      "type": "event"
    },
    {
      "anonymous": false,
      "inputs": [
        {
          "indexed": false,
          "internalType": "address",
          "name": "oldTimelock",
          "type": "address"
        },
        {
          "indexed": false,
          "internalType": "address",
          "name": "newTimelock",
          "type": "address"
        }
      ],
      "name": "TimelockChange",
      "type": "event"
    },
    {
      "anonymous": false,
      "inputs": [
        {
          "indexed": true,
          "internalType": "address",
          "name": "voter",
          "type": "address"
        },
        {
          "indexed": false,
          "internalType": "uint256",
          "name": "proposalId",
          "type": "uint256"
        },
        {
          "indexed": false,
          "internalType": "uint8",
          "name": "support",
          "type": "uint8"
        },
        {
          "indexed": false,
          "internalType": "uint256",
          "name": "weight",
          "type": "uint256"
        },
        {
          "indexed": false,
          "internalType": "string",
          "name": "reason",
          "type": "string"
        }
      ],
      "name": "VoteCast",
      "type": "event"
    },
    {
      "anonymous": false,
      "inputs": [
        {
          "indexed": true,
          "internalType": "address",
          "name": "voter",
          "type": "address"
        },
        {
          "indexed": false,
          "internalType": "uint256",
          "name": "proposalId",
          "type": "uint256"
        },
        {
          "indexed": false,
          "internalType": "uint8",
          "name": "support",
          "type": "uint8"
        },
        {
          "indexed": false,
          "internalType": "uint256",
          "name": "weight",
          "type": "uint256"
        },
        {
          "indexed": false,
          "internalType": "string",
          "name": "reason",
          "type": "string"
        },
        {
          "indexed": false,
          "internalType": "bytes",
          "name": "params",
          "type": "bytes"
        }
      ],
      "name": "VoteCastWithParams",
      "type": "event"
    },
    {
      "anonymous": false,
      "inputs": [
        {
          "indexed": false,
          "internalType": "uint256",
          "name": "oldVotingDelay",
          "type": "uint256"
        },
        {
          "indexed": false,
          "internalType": "uint256",
          "name": "newVotingDelay",
          "type": "uint256"
        }
      ],
      "name": "VotingDelaySet",
      "type": "event"
    },
    {
      "anonymous": false,
      "inputs": [
        {
          "indexed": false,
          "internalType": "uint256",
          "name": "oldVotingPeriod",
          "type": "uint256"
        },
        {
          "indexed": false,
          "internalType": "uint256",
          "name": "newVotingPeriod",
          "type": "uint256"
        }
      ],
      "name": "VotingPeriodSet",
      "type": "event"
    },
    {
      "inputs": [],
      "name": "BALLOT_TYPEHASH",
      "outputs": [
        {
          "internalType": "bytes32",
          "name": "",
          "type": "bytes32"
        }
      ],
      "stateMutability": "view",
      "type": "function",
      "constant": true
    },
    {
      "inputs": [],
      "name": "COUNTING_MODE",
      "outputs": [
        {
          "internalType": "string",
          "name": "",
          "type": "string"
        }
      ],
      "stateMutability": "pure",
      "type": "function",
      "constant": true
    },
    {
      "inputs": [],
      "name": "EXTENDED_BALLOT_TYPEHASH",
      "outputs": [
        {
          "internalType": "bytes32",
          "name": "",
          "type": "bytes32"
        }
      ],
      "stateMutability": "view",
      "type": "function",
      "constant": true
    },
    {
      "inputs": [
        {
          "internalType": "uint256",
          "name": "proposalId",
          "type": "uint256"
        },
        {
          "internalType": "uint8",
          "name": "support",
          "type": "uint8"
        }
      ],
      "name": "castVote",
      "outputs": [
        {
          "internalType": "uint256",
          "name": "",
          "type": "uint256"
        }
      ],
      "stateMutability": "nonpayable",
      "type": "function"
    },
    {
      "inputs": [
        {
          "internalType": "uint256",
          "name": "proposalId",
          "type": "uint256"
        },
        {
          "internalType": "uint8",
          "name": "support",
          "type": "uint8"
        },
        {
          "internalType": "uint8",
          "name": "v",
          "type": "uint8"
        },
        {
          "internalType": "bytes32",
          "name": "r",
          "type": "bytes32"
        },
        {
          "internalType": "bytes32",
          "name": "s",
          "type": "bytes32"
        }
      ],
      "name": "castVoteBySig",
      "outputs": [
        {
          "internalType": "uint256",
          "name": "",
          "type": "uint256"
        }
      ],
      "stateMutability": "nonpayable",
      "type": "function"
    },
    {
      "inputs": [
        {
          "internalType": "uint256",
          "name": "proposalId",
          "type": "uint256"
        },
        {
          "internalType": "uint8",
          "name": "support",
          "type": "uint8"
        },
        {
          "internalType": "string",
          "name": "reason",
          "type": "string"
        }
      ],
      "name": "castVoteWithReason",
      "outputs": [
        {
          "internalType": "uint256",
          "name": "",
          "type": "uint256"
        }
      ],
      "stateMutability": "nonpayable",
      "type": "function"
    },
    {
      "inputs": [
        {
          "internalType": "uint256",
          "name": "proposalId",
          "type": "uint256"
        },
        {
          "internalType": "uint8",
          "name": "support",
          "type": "uint8"
        },
        {
          "internalType": "string",
          "name": "reason",
          "type": "string"
        },
        {
          "internalType": "bytes",
          "name": "params",
          "type": "bytes"
        }
      ],
      "name": "castVoteWithReasonAndParams",
      "outputs": [
        {
          "internalType": "uint256",
          "name": "",
          "type": "uint256"
        }
      ],
      "stateMutability": "nonpayable",
      "type": "function"
    },
    {
      "inputs": [
        {
          "internalType": "uint256",
          "name": "proposalId",
          "type": "uint256"
        },
        {
          "internalType": "uint8",
          "name": "support",
          "type": "uint8"
        },
        {
          "internalType": "string",
          "name": "reason",
          "type": "string"
        },
        {
          "internalType": "bytes",
          "name": "params",
          "type": "bytes"
        },
        {
          "internalType": "uint8",
          "name": "v",
          "type": "uint8"
        },
        {
          "internalType": "bytes32",
          "name": "r",
          "type": "bytes32"
        },
        {
          "internalType": "bytes32",
          "name": "s",
          "type": "bytes32"
        }
      ],
      "name": "castVoteWithReasonAndParamsBySig",
      "outputs": [
        {
          "internalType": "uint256",
          "name": "",
          "type": "uint256"
        }
      ],
      "stateMutability": "nonpayable",
      "type": "function"
    },
    {
      "inputs": [
        {
          "internalType": "address[]",
          "name": "targets",
          "type": "address[]"
        },
        {
          "internalType": "uint256[]",
          "name": "values",
          "type": "uint256[]"
        },
        {
          "internalType": "bytes[]",
          "name": "calldatas",
          "type": "bytes[]"
        },
        {
          "internalType": "bytes32",
          "name": "descriptionHash",
          "type": "bytes32"
        }
      ],
      "name": "execute",
      "outputs": [
        {
          "internalType": "uint256",
          "name": "",
          "type": "uint256"
        }
      ],
      "stateMutability": "payable",
      "type": "function",
      "payable": true
    },
    {
      "inputs": [
        {
          "internalType": "address",
          "name": "account",
          "type": "address"
        },
        {
          "internalType": "uint256",
          "name": "blockNumber",
          "type": "uint256"
        }
      ],
      "name": "getVotes",
      "outputs": [
        {
          "internalType": "uint256",
          "name": "",
          "type": "uint256"
        }
      ],
      "stateMutability": "view",
      "type": "function",
      "constant": true
    },
    {
      "inputs": [
        {
          "internalType": "address",
          "name": "account",
          "type": "address"
        },
        {
          "internalType": "uint256",
          "name": "blockNumber",
          "type": "uint256"
        },
        {
          "internalType": "bytes",
          "name": "params",
          "type": "bytes"
        }
      ],
      "name": "getVotesWithParams",
      "outputs": [
        {
          "internalType": "uint256",
          "name": "",
          "type": "uint256"
        }
      ],
      "stateMutability": "view",
      "type": "function",
      "constant": true
    },
    {
      "inputs": [
        {
          "internalType": "uint256",
          "name": "proposalId",
          "type": "uint256"
        },
        {
          "internalType": "address",
          "name": "account",
          "type": "address"
        }
      ],
      "name": "hasVoted",
      "outputs": [
        {
          "internalType": "bool",
          "name": "",
          "type": "bool"
        }
      ],
      "stateMutability": "view",
      "type": "function",
      "constant": true
    },
    {
      "inputs": [
        {
          "internalType": "address[]",
          "name": "targets",
          "type": "address[]"
        },
        {
          "internalType": "uint256[]",
          "name": "values",
          "type": "uint256[]"
        },
        {
          "internalType": "bytes[]",
          "name": "calldatas",
          "type": "bytes[]"
        },
        {
          "internalType": "bytes32",
          "name": "descriptionHash",
          "type": "bytes32"
        }
      ],
      "name": "hashProposal",
      "outputs": [
        {
          "internalType": "uint256",
          "name": "",
          "type": "uint256"
        }
      ],
      "stateMutability": "pure",
      "type": "function",
      "constant": true
    },
    {
      "inputs": [],
      "name": "name",
      "outputs": [
        {
          "internalType": "string",
          "name": "",
          "type": "string"
        }
      ],
      "stateMutability": "view",
      "type": "function",
      "constant": true
    },
    {
      "inputs": [
        {
          "internalType": "address",
          "name": "",
          "type": "address"
        },
        {
          "internalType": "address",
          "name": "",
          "type": "address"
        },
        {
          "internalType": "uint256[]",
          "name": "",
          "type": "uint256[]"
        },
        {
          "internalType": "uint256[]",
          "name": "",
          "type": "uint256[]"
        },
        {
          "internalType": "bytes",
          "name": "",
          "type": "bytes"
        }
      ],
      "name": "onERC1155BatchReceived",
      "outputs": [
        {
          "internalType": "bytes4",
          "name": "",
          "type": "bytes4"
        }
      ],
      "stateMutability": "nonpayable",
      "type": "function"
    },
    {
      "inputs": [
        {
          "internalType": "address",
          "name": "",
          "type": "address"
        },
        {
          "internalType": "address",
          "name": "",
          "type": "address"
        },
        {
          "internalType": "uint256",
          "name": "",
          "type": "uint256"
        },
        {
          "internalType": "uint256",
          "name": "",
          "type": "uint256"
        },
        {
          "internalType": "bytes",
          "name": "",
          "type": "bytes"
        }
      ],
      "name": "onERC1155Received",
      "outputs": [
        {
          "internalType": "bytes4",
          "name": "",
          "type": "bytes4"
        }
      ],
      "stateMutability": "nonpayable",
      "type": "function"
    },
    {
      "inputs": [
        {
          "internalType": "address",
          "name": "",
          "type": "address"
        },
        {
          "internalType": "address",
          "name": "",
          "type": "address"
        },
        {
          "internalType": "uint256",
          "name": "",
          "type": "uint256"
        },
        {
          "internalType": "bytes",
          "name": "",
          "type": "bytes"
        }
      ],
      "name": "onERC721Received",
      "outputs": [
        {
          "internalType": "bytes4",
          "name": "",
          "type": "bytes4"
        }
      ],
      "stateMutability": "nonpayable",
      "type": "function"
    },
    {
      "inputs": [
        {
          "internalType": "uint256",
          "name": "proposalId",
          "type": "uint256"
        }
      ],
      "name": "proposalDeadline",
      "outputs": [
        {
          "internalType": "uint256",
          "name": "",
          "type": "uint256"
        }
      ],
      "stateMutability": "view",
      "type": "function",
      "constant": true
    },
    {
      "inputs": [
        {
          "internalType": "uint256",
          "name": "proposalId",
          "type": "uint256"
        }
      ],
      "name": "proposalEta",
      "outputs": [
        {
          "internalType": "uint256",
          "name": "",
          "type": "uint256"
        }
      ],
      "stateMutability": "view",
      "type": "function",
      "constant": true
    },
    {
      "inputs": [
        {
          "internalType": "uint256",
          "name": "proposalId",
          "type": "uint256"
        }
      ],
      "name": "proposalSnapshot",
      "outputs": [
        {
          "internalType": "uint256",
          "name": "",
          "type": "uint256"
        }
      ],
      "stateMutability": "view",
      "type": "function",
      "constant": true
    },
    {
      "inputs": [
        {
          "internalType": "uint256",
          "name": "proposalId",
          "type": "uint256"
        }
      ],
      "name": "proposalVotes",
      "outputs": [
        {
          "internalType": "uint256",
          "name": "againstVotes",
          "type": "uint256"
        },
        {
          "internalType": "uint256",
          "name": "forVotes",
          "type": "uint256"
        },
        {
          "internalType": "uint256",
          "name": "abstainVotes",
          "type": "uint256"
        }
      ],
      "stateMutability": "view",
      "type": "function",
      "constant": true
    },
    {
      "inputs": [
        {
          "internalType": "address[]",
          "name": "targets",
          "type": "address[]"
        },
        {
          "internalType": "uint256[]",
          "name": "values",
          "type": "uint256[]"
        },
        {
          "internalType": "bytes[]",
          "name": "calldatas",
          "type": "bytes[]"
        },
        {
          "internalType": "bytes32",
          "name": "descriptionHash",
          "type": "bytes32"
        }
      ],
      "name": "queue",
      "outputs": [
        {
          "internalType": "uint256",
          "name": "",
          "type": "uint256"
        }
      ],
      "stateMutability": "nonpayable",
      "type": "function"
    },
    {
      "inputs": [],
      "name": "quorumDenominator",
      "outputs": [
        {
          "internalType": "uint256",
          "name": "",
          "type": "uint256"
        }
      ],
      "stateMutability": "view",
      "type": "function",
      "constant": true
    },
    {
      "inputs": [
        {
          "internalType": "uint256",
          "name": "blockNumber",
          "type": "uint256"
        }
      ],
      "name": "quorumNumerator",
      "outputs": [
        {
          "internalType": "uint256",
          "name": "",
          "type": "uint256"
        }
      ],
      "stateMutability": "view",
      "type": "function",
      "constant": true
    },
    {
      "inputs": [],
      "name": "quorumNumerator",
      "outputs": [
        {
          "internalType": "uint256",
          "name": "",
          "type": "uint256"
        }
      ],
      "stateMutability": "view",
      "type": "function",
      "constant": true
    },
    {
      "inputs": [
        {
          "internalType": "address",
          "name": "target",
          "type": "address"
        },
        {
          "internalType": "uint256",
          "name": "value",
          "type": "uint256"
        },
        {
          "internalType": "bytes",
          "name": "data",
          "type": "bytes"
        }
      ],
      "name": "relay",
      "outputs": [],
      "stateMutability": "payable",
      "type": "function",
      "payable": true
    },
    {
      "inputs": [
        {
          "internalType": "uint256",
          "name": "newProposalThreshold",
          "type": "uint256"
        }
      ],
      "name": "setProposalThreshold",
      "outputs": [],
      "stateMutability": "nonpayable",
      "type": "function"
    },
    {
      "inputs": [
        {
          "internalType": "uint256",
          "name": "newVotingDelay",
          "type": "uint256"
        }
      ],
      "name": "setVotingDelay",
      "outputs": [],
      "stateMutability": "nonpayable",
      "type": "function"
    },
    {
      "inputs": [
        {
          "internalType": "uint256",
          "name": "newVotingPeriod",
          "type": "uint256"
        }
      ],
      "name": "setVotingPeriod",
      "outputs": [],
      "stateMutability": "nonpayable",
      "type": "function"
    },
    {
      "inputs": [],
      "name": "timelock",
      "outputs": [
        {
          "internalType": "address",
          "name": "",
          "type": "address"
        }
      ],
      "stateMutability": "view",
      "type": "function",
      "constant": true
    },
    {
      "inputs": [],
      "name": "token",
      "outputs": [
        {
          "internalType": "contract IVotes",
          "name": "",
          "type": "address"
        }
      ],
      "stateMutability": "view",
      "type": "function",
      "constant": true
    },
    {
      "inputs": [
        {
          "internalType": "uint256",
          "name": "newQuorumNumerator",
          "type": "uint256"
        }
      ],
      "name": "updateQuorumNumerator",
      "outputs": [],
      "stateMutability": "nonpayable",
      "type": "function"
    },
    {
      "inputs": [
        {
          "internalType": "contract TimelockController",
          "name": "newTimelock",
          "type": "address"
        }
      ],
      "name": "updateTimelock",
      "outputs": [],
      "stateMutability": "nonpayable",
      "type": "function"
    },
    {
      "inputs": [],
      "name": "version",
      "outputs": [
        {
          "internalType": "string",
          "name": "",
          "type": "string"
        }
      ],
      "stateMutability": "view",
      "type": "function",
      "constant": true
    },
    {
      "stateMutability": "payable",
      "type": "receive",
      "payable": true
    },
    {
      "inputs": [],
      "name": "votingDelay",
      "outputs": [
        {
          "internalType": "uint256",
          "name": "",
          "type": "uint256"
        }
      ],
      "stateMutability": "view",
      "type": "function",
      "constant": true
    },
    {
      "inputs": [],
      "name": "votingPeriod",
      "outputs": [
        {
          "internalType": "uint256",
          "name": "",
          "type": "uint256"
        }
      ],
      "stateMutability": "view",
      "type": "function",
      "constant": true
    },
    {
      "inputs": [
        {
          "internalType": "uint256",
          "name": "blockNumber",
          "type": "uint256"
        }
      ],
      "name": "quorum",
      "outputs": [
        {
          "internalType": "uint256",
          "name": "",
          "type": "uint256"
        }
      ],
      "stateMutability": "view",
      "type": "function",
      "constant": true
    },
    {
      "inputs": [
        {
          "internalType": "uint256",
          "name": "proposalId",
          "type": "uint256"
        }
      ],
      "name": "state",
      "outputs": [
        {
          "internalType": "enum IGovernor.ProposalState",
          "name": "",
          "type": "uint8"
        }
      ],
      "stateMutability": "view",
      "type": "function",
      "constant": true
    },
    {
      "inputs": [
        {
          "internalType": "address[]",
          "name": "targets",
          "type": "address[]"
        },
        {
          "internalType": "uint256[]",
          "name": "values",
          "type": "uint256[]"
        },
        {
          "internalType": "bytes[]",
          "name": "calldatas",
          "type": "bytes[]"
        },
        {
          "internalType": "string",
          "name": "description",
          "type": "string"
        }
      ],
      "name": "propose",
      "outputs": [
        {
          "internalType": "uint256",
          "name": "",
          "type": "uint256"
        }
      ],
      "stateMutability": "nonpayable",
      "type": "function"
    },
    {
      "inputs": [],
      "name": "proposalThreshold",
      "outputs": [
        {
          "internalType": "uint256",
          "name": "",
          "type": "uint256"
        }
      ],
      "stateMutability": "view",
      "type": "function",
      "constant": true
    },
    {
      "inputs": [
        {
          "internalType": "bytes4",
          "name": "interfaceId",
          "type": "bytes4"
        }
      ],
      "name": "supportsInterface",
      "outputs": [
        {
          "internalType": "bool",
          "name": "",
          "type": "bool"
        }
      ],
      "stateMutability": "view",
      "type": "function",
      "constant": true
    }
  ],
  "bytecode": "0x6101606040523480156200001257600080fd5b506040516200453c3803806200453c8339810160408190526200003591620008bd565b806004836000600a670de0b6b3a76400006040518060400160405280601081526020016f29aaa33934b2b73223b7bb32b93737b960811b81525080620000806200017a60201b60201c565b815160208084019190912082518383012060e08290526101008190524660a0818152604080517f8b73c3c69bb8fe3d512ecc4cf759cc79239f7b179b0ffacaa9a75d522b39400f81880181905281830187905260608201869052608082019490945230818401528151808203909301835260c00190528051940193909320919290916080523060c052610120525050825162000126925060009150602084019062000808565b506200013490508362000195565b6200013f82620001d6565b6200014a816200027d565b5050506001600160a01b0316610140526200016581620002be565b50620001718162000436565b5050506200095f565b6040805180820190915260018152603160f81b602082015290565b60045460408051918252602082018390527fc565b045403dc03c2eea82b81a0465edad9e2e7fc4d97e11421c209da93d7a93910160405180910390a1600455565b600081116200023c5760405162461bcd60e51b815260206004820152602760248201527f476f7665726e6f7253657474696e67733a20766f74696e6720706572696f6420604482015266746f6f206c6f7760c81b60648201526084015b60405180910390fd5b60055460408051918252602082018390527f7e3f7f0708a84de9203036abaa450dccc85ad5ff52f78c170f3edb55cf5e8828910160405180910390a1600555565b60065460408051918252602082018390527fccb45da8d5717e6c4544694297c4ba5cf151d455c9bb0ed4fc7a38411bc05461910160405180910390a1600655565b6064811115620003435760405162461bcd60e51b815260206004820152604360248201527f476f7665726e6f72566f74657351756f72756d4672616374696f6e3a2071756f60448201527f72756d4e756d657261746f72206f7665722071756f72756d44656e6f6d696e616064820152623a37b960e91b608482015260a40162000233565b60006200034f6200049f565b90508015801590620003615750600954155b15620003dc5760096000016040518060400160405280600063ffffffff1681526020016200039a84620004d760201b620014ef1760201c565b6001600160e01b0390811690915282546001810184556000938452602093849020835194909301519091166401000000000263ffffffff909316929092179101555b620003f78260096200054660201b6200155c1790919060201c565b505060408051828152602081018490527f0553476bf02ef2726e8ce5ced78d63e26e602e4a2257b1f559418e24b4633997910160405180910390a15050565b600a54604080516001600160a01b03928316815291831660208301527f08f74ea46ef7894f65eabfb5e6e695de773a000b47c529ab559178069b226401910160405180910390a1600a80546001600160a01b0319166001600160a01b0392909216919091179055565b60095460009015620004d057620004c260096200059960201b620015921760201c565b6001600160e01b0316905090565b5060085490565b60006001600160e01b03821115620005425760405162461bcd60e51b815260206004820152602760248201527f53616665436173743a2076616c756520646f65736e27742066697420696e20326044820152663234206269747360c81b606482015260840162000233565b5090565b60008062000583846000016200056743620005e760201b620015d01760201c565b6200057d86620004d760201b620014ef1760201c565b6200064e565b6001600160e01b03918216969116945092505050565b80546000908015620005dd57620005c583620005b7600184620008fc565b600091825260209091200190565b5464010000000090046001600160e01b0316620005e0565b60005b9392505050565b600063ffffffff821115620005425760405162461bcd60e51b815260206004820152602660248201527f53616665436173743a2076616c756520646f65736e27742066697420696e203360448201526532206269747360d01b606482015260840162000233565b825460009081908015620007aa5760006200067087620005b7600185620008fc565b60408051808201909152905463ffffffff8082168084526401000000009092046001600160e01b031660208401529192509087161015620006f45760405162461bcd60e51b815260206004820152601760248201527f436865636b706f696e743a20696e76616c6964206b6579000000000000000000604482015260640162000233565b8563ffffffff16816000015163ffffffff1614156200074957846200072088620005b7600186620008fc565b80546001600160e01b03929092166401000000000263ffffffff90921691909117905562000799565b6040805180820190915263ffffffff80881682526001600160e01b0380881660208085019182528b54600181018d5560008d81529190912094519151909216640100000000029216919091179101555b602001519250839150620008009050565b50506040805180820190915263ffffffff80851682526001600160e01b0380851660208085019182528854600181018a5560008a8152918220955192519093166401000000000291909316179201919091559050815b935093915050565b828054620008169062000922565b90600052602060002090601f0160209004810192826200083a576000855562000885565b82601f106200085557805160ff191683800117855562000885565b8280016001018555821562000885579182015b828111156200088557825182559160200191906001019062000868565b50620005429291505b808211156200054257600081556001016200088e565b6001600160a01b0381168114620008ba57600080fd5b50565b60008060408385031215620008d157600080fd5b8251620008de81620008a4565b6020840151909250620008f181620008a4565b809150509250929050565b6000828210156200091d57634e487b7160e01b600052601160045260246000fd5b500390565b600181811c908216806200093757607f821691505b602082108114156200095957634e487b7160e01b600052602260045260246000fd5b50919050565b60805160a05160c05160e051610100516101205161014051613b74620009c8600039600081816108690152818161204601526122490152600061257e015260006125cd015260006125a8015260006125010152600061252b015260006125550152613b746000f3fe60806040526004361061024a5760003560e01c80637b3c71d311610139578063c28bc2fa116100b6578063ea0217cf1161007a578063ea0217cf146107ab578063eb9019d4146107cb578063ece40cc1146107eb578063f23a6e611461080b578063f8ce560a14610837578063fc0c546a1461085757600080fd5b8063c28bc2fa146106cc578063c59057e4146106df578063d33219b4146106ff578063dd4e2ba514610731578063deaaa7cc1461077757600080fd5b8063a890c910116100fd578063a890c9101461062b578063ab58fb8e1461064b578063b58131b01461066b578063bc197c8114610680578063c01f9e37146106ac57600080fd5b80637b3c71d3146105a25780637d5e81e2146105c257806397c3d334146105e25780639a802a6d146105f6578063a7713a701461061657600080fd5b80633932abb1116101c757806354fd4d501161018b57806354fd4d50146104f857806356781388146105225780635f398a141461054257806360c4247f1461056257806370b0f6601461058257600080fd5b80633932abb1146103f75780633bccf4fd1461040c5780633e4f49e61461042c5780634385963214610459578063544ffc9c146104a357600080fd5b8063150b7a021161020e578063150b7a021461032c578063160cbed7146103705780632656227d146103905780632d63f693146103a35780632fe3e261146103c357600080fd5b806301ffc9a71461027257806302a251a3146102a757806303420181146102ca57806306f3f9e6146102ea57806306fdde031461030a57600080fd5b3661026d573061025861088b565b6001600160a01b03161461026b57600080fd5b005b600080fd5b34801561027e57600080fd5b5061029261028d366004612caa565b6108a4565b60405190151581526020015b60405180910390f35b3480156102b357600080fd5b506102bc6108b5565b60405190815260200161029e565b3480156102d657600080fd5b506102bc6102e5366004612de8565b6108c0565b3480156102f657600080fd5b5061026b610305366004612e8e565b6109b8565b34801561031657600080fd5b5061031f610a50565b60405161029e9190612ef4565b34801561033857600080fd5b50610357610347366004612f1c565b630a85bd0160e11b949350505050565b6040516001600160e01b0319909116815260200161029e565b34801561037c57600080fd5b506102bc61038b3660046130f8565b610ae2565b6102bc61039e3660046130f8565b610d00565b3480156103af57600080fd5b506102bc6103be366004612e8e565b610ded565b3480156103cf57600080fd5b506102bc7fb3b3f3b703cd84ce352197dcff232b1b5d3cfb2025ce47cf04742d0651f1af8881565b34801561040357600080fd5b506102bc610e24565b34801561041857600080fd5b506102bc610427366004613187565b610e2f565b34801561043857600080fd5b5061044c610447366004612e8e565b610ea5565b60405161029e91906131eb565b34801561046557600080fd5b50610292610474366004613213565b60008281526007602090815260408083206001600160a01b038516845260030190915290205460ff1692915050565b3480156104af57600080fd5b506104dd6104be366004612e8e565b6000908152600760205260409020805460018201546002909201549092565b6040805193845260208401929092529082015260600161029e565b34801561050457600080fd5b506040805180820190915260018152603160f81b602082015261031f565b34801561052e57600080fd5b506102bc61053d366004613243565b610eb0565b34801561054e57600080fd5b506102bc61055d36600461326f565b610ed9565b34801561056e57600080fd5b506102bc61057d366004612e8e565b610f23565b34801561058e57600080fd5b5061026b61059d366004612e8e565b610fb8565b3480156105ae57600080fd5b506102bc6105bd3660046132f2565b611044565b3480156105ce57600080fd5b506102bc6105dd36600461334b565b611096565b3480156105ee57600080fd5b5060646102bc565b34801561060257600080fd5b506102bc6106113660046133ff565b6110ad565b34801561062257600080fd5b506102bc6110c4565b34801561063757600080fd5b5061026b610646366004613457565b6110ee565b34801561065757600080fd5b506102bc610666366004612e8e565b61117a565b34801561067757600080fd5b506102bc611223565b34801561068c57600080fd5b5061035761069b366004613474565b63bc197c8160e01b95945050505050565b3480156106b857600080fd5b506102bc6106c7366004612e8e565b61122e565b61026b6106da366004613507565b61125d565b3480156106eb57600080fd5b506102bc6106fa3660046130f8565b611371565b34801561070b57600080fd5b50600a546001600160a01b03165b6040516001600160a01b03909116815260200161029e565b34801561073d57600080fd5b506040805180820190915260208082527f737570706f72743d627261766f2671756f72756d3d666f722c6162737461696e9082015261031f565b34801561078357600080fd5b506102bc7f150214d74d59b7d1e90c73fc22ef3d991dd0a76b046543d4d80ab92d2a50328f81565b3480156107b757600080fd5b5061026b6107c6366004612e8e565b6113ab565b3480156107d757600080fd5b506102bc6107e636600461354a565b611437565b3480156107f757600080fd5b5061026b610806366004612e8e565b611458565b34801561081757600080fd5b50610357610826366004613576565b63f23a6e6160e01b95945050505050565b34801561084357600080fd5b506102bc610852366004612e8e565b6114e4565b34801561086357600080fd5b506107197f000000000000000000000000000000000000000000000000000000000000000081565b600061089f600a546001600160a01b031690565b905090565b60006108af82611635565b92915050565b600061089f60055490565b60008061096461095c7fb3b3f3b703cd84ce352197dcff232b1b5d3cfb2025ce47cf04742d0651f1af888c8c8c8c6040516108fc9291906135de565b60405180910390208b80519060200120604051602001610941959493929190948552602085019390935260ff9190911660408401526060830152608082015260a00190565b6040516020818303038152906040528051906020012061165a565b8686866116a8565b90506109aa8a828b8b8b8080601f0160208091040260200160405190810160405280939291908181526020018383808284376000920191909152508d92506116c6915050565b9a9950505050505050505050565b6109c061088b565b6001600160a01b0316336001600160a01b0316146109f95760405162461bcd60e51b81526004016109f0906135ee565b60405180910390fd5b30610a0261088b565b6001600160a01b031614610a445760008036604051610a229291906135de565b604051809103902090505b80610a386002611828565b14610a4257610a2d565b505b610a4d816118a7565b50565b606060008054610a5f90613625565b80601f0160208091040260200160405190810160405280929190818152602001828054610a8b90613625565b8015610ad85780601f10610aad57610100808354040283529160200191610ad8565b820191906000526020600020905b815481529060010190602001808311610abb57829003601f168201915b5050505050905090565b600080610af186868686611371565b90506004610afe82610ea5565b6007811115610b0f57610b0f6131d5565b14610b2c5760405162461bcd60e51b81526004016109f090613660565b600a546040805163793d064960e11b815290516000926001600160a01b03169163f27a0c92916004808301926020929190829003018186803b158015610b7157600080fd5b505afa158015610b85573d6000803e3d6000fd5b505050506040513d601f19601f82011682018060405250810190610ba991906136a1565b600a5460405163b1c5f42760e01b81529192506001600160a01b03169063b1c5f42790610be3908a908a908a906000908b90600401613783565b60206040518083038186803b158015610bfb57600080fd5b505afa158015610c0f573d6000803e3d6000fd5b505050506040513d601f19601f82011682018060405250810190610c3391906136a1565b6000838152600b602052604080822092909255600a5491516308f2a0bb60e41b81526001600160a01b0390921691638f2a0bb091610c7e918b918b918b91908b9089906004016137d1565b600060405180830381600087803b158015610c9857600080fd5b505af1158015610cac573d6000803e3d6000fd5b505050507f9a2e42fd6722813d69113e7d0079d3d940171428df7373df9c7f7617cfda2892828242610cde919061383f565b6040805192835260208301919091520160405180910390a15095945050505050565b600080610d0f86868686611371565b90506000610d1c82610ea5565b90506004816007811115610d3257610d326131d5565b1480610d4f57506005816007811115610d4d57610d4d6131d5565b145b610d6b5760405162461bcd60e51b81526004016109f090613660565b600082815260016020818152604092839020600201805460ff191690921790915590518381527f712ae1383f79ac853f8d882153778e0260ef8f03b504e2866e0593e04d2b291f910160405180910390a1610dc982888888886119f3565b610dd68288888888611a96565b610de38288888888611aa3565b5095945050505050565b60008181526001602090815260408083208151928301909152546001600160401b0316908190525b6001600160401b031692915050565b600061089f60045490565b604080517f150214d74d59b7d1e90c73fc22ef3d991dd0a76b046543d4d80ab92d2a50328f602082015290810186905260ff851660608201526000908190610e7d9061095c90608001610941565b9050610e9a87828860405180602001604052806000815250611adc565b979650505050505050565b60006108af82611aff565b600080339050610ed184828560405180602001604052806000815250611adc565b949350505050565b600080339050610e9a87828888888080601f0160208091040260200160405190810160405280939291908181526020018383808284376000920191909152508a92506116c6915050565b60095460009080610f38575050600854919050565b60006009610f47600184613857565b81548110610f5757610f5761386e565b60009182526020918290206040805180820190915291015463ffffffff8116808352600160201b9091046001600160e01b03169282019290925291508410610fad57602001516001600160e01b03169392505050565b610ed1600985611c67565b610fc061088b565b6001600160a01b0316336001600160a01b031614610ff05760405162461bcd60e51b81526004016109f0906135ee565b30610ff961088b565b6001600160a01b03161461103b57600080366040516110199291906135de565b604051809103902090505b8061102f6002611828565b1461103957611024565b505b610a4d81611d19565b60008033905061108c86828787878080601f016020809104026020016040519081016040528093929190818152602001838380828437600092019190915250611adc92505050565b9695505050505050565b60006110a485858585611d5a565b95945050505050565b60006110ba84848461201d565b90505b9392505050565b600954600090156110e7576110d96009611592565b6001600160e01b0316905090565b5060085490565b6110f661088b565b6001600160a01b0316336001600160a01b0316146111265760405162461bcd60e51b81526004016109f0906135ee565b3061112f61088b565b6001600160a01b031614611171576000803660405161114f9291906135de565b604051809103902090505b806111656002611828565b1461116f5761115a565b505b610a4d816120c2565b600a546000828152600b602052604080822054905163d45c443560e01b81526004810191909152909182916001600160a01b039091169063d45c44359060240160206040518083038186803b1580156111d257600080fd5b505afa1580156111e6573d6000803e3d6000fd5b505050506040513d601f19601f8201168201806040525081019061120a91906136a1565b90508060011461121a57806110bd565b60009392505050565b600061089f60065490565b60008181526001602081815260408084208151928301909152909101546001600160401b031690819052610e15565b61126561088b565b6001600160a01b0316336001600160a01b0316146112955760405162461bcd60e51b81526004016109f0906135ee565b3061129e61088b565b6001600160a01b0316146112e057600080366040516112be9291906135de565b604051809103902090505b806112d46002611828565b146112de576112c9565b505b600080856001600160a01b03168585856040516112fe9291906135de565b60006040518083038185875af1925050503d806000811461133b576040519150601f19603f3d011682016040523d82523d6000602084013e611340565b606091505b50915091506113688282604051806060016040528060288152602001613b176028913961212b565b50505050505050565b60008484848460405160200161138a9493929190613884565b60408051601f19818403018152919052805160209091012095945050505050565b6113b361088b565b6001600160a01b0316336001600160a01b0316146113e35760405162461bcd60e51b81526004016109f0906135ee565b306113ec61088b565b6001600160a01b03161461142e576000803660405161140c9291906135de565b604051809103902090505b806114226002611828565b1461142c57611417565b505b610a4d81612144565b60006110bd838361145360408051602081019091526000815290565b61201d565b61146061088b565b6001600160a01b0316336001600160a01b0316146114905760405162461bcd60e51b81526004016109f0906135ee565b3061149961088b565b6001600160a01b0316146114db57600080366040516114b99291906135de565b604051809103902090505b806114cf6002611828565b146114d9576114c4565b505b610a4d816121e5565b60006108af82612226565b60006001600160e01b038211156115585760405162461bcd60e51b815260206004820152602760248201527f53616665436173743a2076616c756520646f65736e27742066697420696e20326044820152663234206269747360c81b60648201526084016109f0565b5090565b60008061157a8461156c436115d0565b611575866114ef565b6122df565b6001600160e01b0391821693501690505b9250929050565b8054600090801561121a576115ba836115ac600184613857565b600091825260209091200190565b54600160201b90046001600160e01b03166110bd565b600063ffffffff8211156115585760405162461bcd60e51b815260206004820152602660248201527f53616665436173743a2076616c756520646f65736e27742066697420696e203360448201526532206269747360d01b60648201526084016109f0565b60006001600160e01b03198216636e665ced60e01b14806108af57506108af82612489565b60006108af6116676124f4565b8360405161190160f01b6020820152602281018390526042810182905260009060620160405160208183030381529060405280519060200120905092915050565b60008060006116b98787878761261b565b91509150610de3816126df565b60008581526001602081905260408220906116e088610ea5565b60078111156116f1576116f16131d5565b1461174a5760405162461bcd60e51b815260206004820152602360248201527f476f7665726e6f723a20766f7465206e6f742063757272656e746c792061637460448201526269766560e81b60648201526084016109f0565b604080516020810190915281546001600160401b0316908190526000906117739088908661201d565b9050611782888888848861282d565b83516117d457866001600160a01b03167fb8e138887d0aa13bab447e82de9d5c1777041ecd21ca36ba824ff1e6c07ddda4898884896040516117c794939291906138cf565b60405180910390a2610e9a565b866001600160a01b03167fe2babfbac5889a709b63bb7f598b324e08bc5a4fb9ec647fb3cbc9ec07eb871289888489896040516118159594939291906138f7565b60405180910390a2979650505050505050565b60006118438254600f81810b600160801b909204900b131590565b1561186157604051631ed9509560e11b815260040160405180910390fd5b508054600f0b6000818152600180840160205260408220805492905583546fffffffffffffffffffffffffffffffff191692016001600160801b03169190911790915590565b606481111561192a5760405162461bcd60e51b815260206004820152604360248201527f476f7665726e6f72566f74657351756f72756d4672616374696f6e3a2071756f60448201527f72756d4e756d657261746f72206f7665722071756f72756d44656e6f6d696e616064820152623a37b960e91b608482015260a4016109f0565b60006119346110c4565b905080158015906119455750600954155b156119a957604080518082019091526000815260099060208101611968846114ef565b6001600160e01b039081169091528254600181018455600093845260209384902083519490930151909116600160201b0263ffffffff909316929092179101555b6119b460098361155c565b505060408051828152602081018490527f0553476bf02ef2726e8ce5ced78d63e26e602e4a2257b1f559418e24b4633997910160405180910390a15050565b306119fc61088b565b6001600160a01b031614611a8f5760005b8451811015611a8d57306001600160a01b0316858281518110611a3257611a3261386e565b60200260200101516001600160a01b03161415611a7d57611a7d838281518110611a5e57611a5e61386e565b60200260200101518051906020012060026129ac90919063ffffffff16565b611a868161393d565b9050611a0d565b505b5050505050565b611a8f85858585856129e8565b30611aac61088b565b6001600160a01b031614611a8f57600254600f81810b600160801b909204900b1315611a8f576000600255611a8f565b60006110a485858585611afa60408051602081019091526000815290565b6116c6565b600080611b0b83612a5c565b90506004816007811115611b2157611b216131d5565b14611b2c5792915050565b6000838152600b602052604090205480611b47575092915050565b600a54604051632ab0f52960e01b8152600481018390526001600160a01b0390911690632ab0f5299060240160206040518083038186803b158015611b8b57600080fd5b505afa158015611b9f573d6000803e3d6000fd5b505050506040513d601f19601f82011682018060405250810190611bc39190613958565b15611bd2575060079392505050565b600a54604051632c258a9f60e11b8152600481018390526001600160a01b039091169063584b153e9060240160206040518083038186803b158015611c1657600080fd5b505afa158015611c2a573d6000803e3d6000fd5b505050506040513d601f19601f82011682018060405250810190611c4e9190613958565b15611c5d575060059392505050565b5060029392505050565b6000438210611cb85760405162461bcd60e51b815260206004820181905260248201527f436865636b706f696e74733a20626c6f636b206e6f7420796574206d696e656460448201526064016109f0565b6000611cc3836115d0565b84549091506000611cd686848385612b68565b90508015611d0357611ced866115ac600184613857565b54600160201b90046001600160e01b0316611d06565b60005b6001600160e01b03169695505050505050565b60045460408051918252602082018390527fc565b045403dc03c2eea82b81a0465edad9e2e7fc4d97e11421c209da93d7a93910160405180910390a1600455565b6000611d64611223565b611d73336107e6600143613857565b1015611ddb5760405162461bcd60e51b815260206004820152603160248201527f476f7665726e6f723a2070726f706f73657220766f7465732062656c6f7720706044820152701c9bdc1bdcd85b081d1a1c995cda1bdb19607a1b60648201526084016109f0565b6000611df08686868680519060200120611371565b90508451865114611e135760405162461bcd60e51b81526004016109f09061397a565b8351865114611e345760405162461bcd60e51b81526004016109f09061397a565b6000865111611e855760405162461bcd60e51b815260206004820152601860248201527f476f7665726e6f723a20656d7074792070726f706f73616c000000000000000060448201526064016109f0565b600081815260016020908152604091829020825191820190925281546001600160401b03169081905215611f055760405162461bcd60e51b815260206004820152602160248201527f476f7665726e6f723a2070726f706f73616c20616c72656164792065786973746044820152607360f81b60648201526084016109f0565b6000611f17611f12610e24565b612bc6565b611f2043612bc6565b611f2a91906139bb565b90506000611f39611f126108b5565b611f4390836139bb565b835467ffffffffffffffff19166001600160401b038416178455905060018301805467ffffffffffffffff19166001600160401b0383161790557f7d84a6263ae0d98d3329bd7b46bb4e8d6f98cd35a7adb45c274c8b7fd5ebd5e084338b8b8d516001600160401b03811115611fbb57611fbb612d2b565b604051908082528060200260200182016040528015611fee57816020015b6060815260200190600190039081611fd95790505b508c88888e604051612008999897969594939291906139e6565b60405180910390a15091979650505050505050565b604051630748d63560e31b81526001600160a01b038481166004830152602482018490526000917f000000000000000000000000000000000000000000000000000000000000000090911690633a46b1a89060440160206040518083038186803b15801561208a57600080fd5b505afa15801561209e573d6000803e3d6000fd5b505050506040513d601f19601f820116820180604052508101906110ba91906136a1565b600a54604080516001600160a01b03928316815291831660208301527f08f74ea46ef7894f65eabfb5e6e695de773a000b47c529ab559178069b226401910160405180910390a1600a80546001600160a01b0319166001600160a01b0392909216919091179055565b6060831561213a5750816110bd565b6110bd8383612c2e565b600081116121a45760405162461bcd60e51b815260206004820152602760248201527f476f7665726e6f7253657474696e67733a20766f74696e6720706572696f6420604482015266746f6f206c6f7760c81b60648201526084016109f0565b60055460408051918252602082018390527f7e3f7f0708a84de9203036abaa450dccc85ad5ff52f78c170f3edb55cf5e8828910160405180910390a1600555565b60065460408051918252602082018390527fccb45da8d5717e6c4544694297c4ba5cf151d455c9bb0ed4fc7a38411bc05461910160405180910390a1600655565b6000606461223383610f23565b604051632394e7a360e21b8152600481018590527f00000000000000000000000000000000000000000000000000000000000000006001600160a01b031690638e539e8c9060240160206040518083038186803b15801561229357600080fd5b505afa1580156122a7573d6000803e3d6000fd5b505050506040513d601f19601f820116820180604052508101906122cb91906136a1565b6122d59190613ad5565b6108af9190613af4565b82546000908190801561242c5760006122fd876115ac600185613857565b60408051808201909152905463ffffffff808216808452600160201b9092046001600160e01b03166020840152919250908716101561237e5760405162461bcd60e51b815260206004820152601760248201527f436865636b706f696e743a20696e76616c6964206b657900000000000000000060448201526064016109f0565b8563ffffffff16816000015163ffffffff1614156123cd57846123a6886115ac600186613857565b80546001600160e01b0392909216600160201b0263ffffffff90921691909117905561241c565b6040805180820190915263ffffffff80881682526001600160e01b0380881660208085019182528b54600181018d5560008d81529190912094519151909216600160201b029216919091179101555b6020015192508391506124819050565b50506040805180820190915263ffffffff80851682526001600160e01b0380851660208085019182528854600181018a5560008a815291822095519251909316600160201b0291909316179201919091559050815b935093915050565b60006001600160e01b0319821663bf26d89760e01b14806124ba57506001600160e01b031982166379dd796f60e01b145b806124d557506001600160e01b03198216630271189760e51b145b806108af57506301ffc9a760e01b6001600160e01b03198316146108af565b6000306001600160a01b037f00000000000000000000000000000000000000000000000000000000000000001614801561254d57507f000000000000000000000000000000000000000000000000000000000000000046145b1561257757507f000000000000000000000000000000000000000000000000000000000000000090565b50604080517f00000000000000000000000000000000000000000000000000000000000000006020808301919091527f0000000000000000000000000000000000000000000000000000000000000000828401527f000000000000000000000000000000000000000000000000000000000000000060608301524660808301523060a0808401919091528351808403909101815260c0909201909252805191012090565b6000807f7fffffffffffffffffffffffffffffff5d576e7357a4501ddfe92f46681b20a083111561265257506000905060036126d6565b6040805160008082526020820180845289905260ff881692820192909252606081018690526080810185905260019060a0016020604051602081039080840390855afa1580156126a6573d6000803e3d6000fd5b5050604051601f1901519150506001600160a01b0381166126cf576000600192509250506126d6565b9150600090505b94509492505050565b60008160048111156126f3576126f36131d5565b14156126fc5750565b6001816004811115612710576127106131d5565b141561275e5760405162461bcd60e51b815260206004820152601860248201527f45434453413a20696e76616c6964207369676e6174757265000000000000000060448201526064016109f0565b6002816004811115612772576127726131d5565b14156127c05760405162461bcd60e51b815260206004820152601f60248201527f45434453413a20696e76616c6964207369676e6174757265206c656e6774680060448201526064016109f0565b60038160048111156127d4576127d46131d5565b1415610a4d5760405162461bcd60e51b815260206004820152602260248201527f45434453413a20696e76616c6964207369676e6174757265202773272076616c604482015261756560f01b60648201526084016109f0565b60008581526007602090815260408083206001600160a01b0388168452600381019092529091205460ff16156128b55760405162461bcd60e51b815260206004820152602760248201527f476f7665726e6f72566f74696e6753696d706c653a20766f746520616c726561604482015266191e4818d85cdd60ca1b60648201526084016109f0565b6001600160a01b03851660009081526003820160205260408120805460ff1916600117905560ff168460ff16141561290657828160000160008282546128fb919061383f565b90915550611a8d9050565b60ff84166001141561292657828160010160008282546128fb919061383f565b60ff84166002141561294657828160020160008282546128fb919061383f565b60405162461bcd60e51b815260206004820152603560248201527f476f7665726e6f72566f74696e6753696d706c653a20696e76616c69642076616044820152746c756520666f7220656e756d20566f74655479706560581b60648201526084016109f0565b8154600160801b90819004600f0b6000818152600180860160205260409091209390935583546001600160801b03908116939091011602179055565b600a5460405163e38335e560e01b81526001600160a01b039091169063e38335e5903490612a23908890889088906000908990600401613783565b6000604051808303818588803b158015612a3c57600080fd5b505af1158015612a50573d6000803e3d6000fd5b50505050505050505050565b6000818152600160205260408120600281015460ff1615612a805750600792915050565b6002810154610100900460ff1615612a9b5750600292915050565b6000612aa684610ded565b905080612af55760405162461bcd60e51b815260206004820152601d60248201527f476f7665726e6f723a20756e6b6e6f776e2070726f706f73616c20696400000060448201526064016109f0565b438110612b06575060009392505050565b6000612b118561122e565b9050438110612b2557506001949350505050565b612b2e85612c58565b8015612b4d575060008581526007602052604090208054600190910154115b15612b5d57506004949350505050565b506003949350505050565b60005b81831015612bbe576000612b7f8484612c8f565b60008781526020902090915063ffffffff86169082015463ffffffff161115612baa57809250612bb8565b612bb581600161383f565b93505b50612b6b565b509392505050565b60006001600160401b038211156115585760405162461bcd60e51b815260206004820152602660248201527f53616665436173743a2076616c756520646f65736e27742066697420696e203660448201526534206269747360d01b60648201526084016109f0565b815115612c3e5781518083602001fd5b8060405162461bcd60e51b81526004016109f09190612ef4565b600081815260076020526040812060028101546001820154612c7a919061383f565b612c8661085285610ded565b11159392505050565b6000612c9e6002848418613af4565b6110bd9084841661383f565b600060208284031215612cbc57600080fd5b81356001600160e01b0319811681146110bd57600080fd5b803560ff81168114612ce557600080fd5b919050565b60008083601f840112612cfc57600080fd5b5081356001600160401b03811115612d1357600080fd5b60208301915083602082850101111561158b57600080fd5b634e487b7160e01b600052604160045260246000fd5b604051601f8201601f191681016001600160401b0381118282101715612d6957612d69612d2b565b604052919050565b60006001600160401b03831115612d8a57612d8a612d2b565b612d9d601f8401601f1916602001612d41565b9050828152838383011115612db157600080fd5b828260208301376000602084830101529392505050565b600082601f830112612dd957600080fd5b6110bd83833560208501612d71565b60008060008060008060008060e0898b031215612e0457600080fd5b88359750612e1460208a01612cd4565b965060408901356001600160401b0380821115612e3057600080fd5b612e3c8c838d01612cea565b909850965060608b0135915080821115612e5557600080fd5b50612e628b828c01612dc8565b945050612e7160808a01612cd4565b925060a0890135915060c089013590509295985092959890939650565b600060208284031215612ea057600080fd5b5035919050565b6000815180845260005b81811015612ecd57602081850181015186830182015201612eb1565b81811115612edf576000602083870101525b50601f01601f19169290920160200192915050565b6020815260006110bd6020830184612ea7565b6001600160a01b0381168114610a4d57600080fd5b60008060008060808587031215612f3257600080fd5b8435612f3d81612f07565b93506020850135612f4d81612f07565b92506040850135915060608501356001600160401b03811115612f6f57600080fd5b612f7b87828801612dc8565b91505092959194509250565b60006001600160401b03821115612fa057612fa0612d2b565b5060051b60200190565b600082601f830112612fbb57600080fd5b81356020612fd0612fcb83612f87565b612d41565b82815260059290921b84018101918181019086841115612fef57600080fd5b8286015b8481101561301357803561300681612f07565b8352918301918301612ff3565b509695505050505050565b600082601f83011261302f57600080fd5b8135602061303f612fcb83612f87565b82815260059290921b8401810191818101908684111561305e57600080fd5b8286015b848110156130135780358352918301918301613062565b600082601f83011261308a57600080fd5b8135602061309a612fcb83612f87565b82815260059290921b840181019181810190868411156130b957600080fd5b8286015b848110156130135780356001600160401b038111156130dc5760008081fd5b6130ea8986838b0101612dc8565b8452509183019183016130bd565b6000806000806080858703121561310e57600080fd5b84356001600160401b038082111561312557600080fd5b61313188838901612faa565b9550602087013591508082111561314757600080fd5b6131538883890161301e565b9450604087013591508082111561316957600080fd5b5061317687828801613079565b949793965093946060013593505050565b600080600080600060a0868803121561319f57600080fd5b853594506131af60208701612cd4565b93506131bd60408701612cd4565b94979396509394606081013594506080013592915050565b634e487b7160e01b600052602160045260246000fd5b602081016008831061320d57634e487b7160e01b600052602160045260246000fd5b91905290565b6000806040838503121561322657600080fd5b82359150602083013561323881612f07565b809150509250929050565b6000806040838503121561325657600080fd5b8235915061326660208401612cd4565b90509250929050565b60008060008060006080868803121561328757600080fd5b8535945061329760208701612cd4565b935060408601356001600160401b03808211156132b357600080fd5b6132bf89838a01612cea565b909550935060608801359150808211156132d857600080fd5b506132e588828901612dc8565b9150509295509295909350565b6000806000806060858703121561330857600080fd5b8435935061331860208601612cd4565b925060408501356001600160401b0381111561333357600080fd5b61333f87828801612cea565b95989497509550505050565b6000806000806080858703121561336157600080fd5b84356001600160401b038082111561337857600080fd5b61338488838901612faa565b9550602087013591508082111561339a57600080fd5b6133a68883890161301e565b945060408701359150808211156133bc57600080fd5b6133c888838901613079565b935060608701359150808211156133de57600080fd5b508501601f810187136133f057600080fd5b612f7b87823560208401612d71565b60008060006060848603121561341457600080fd5b833561341f81612f07565b92506020840135915060408401356001600160401b0381111561344157600080fd5b61344d86828701612dc8565b9150509250925092565b60006020828403121561346957600080fd5b81356110bd81612f07565b600080600080600060a0868803121561348c57600080fd5b853561349781612f07565b945060208601356134a781612f07565b935060408601356001600160401b03808211156134c357600080fd5b6134cf89838a0161301e565b945060608801359150808211156134e557600080fd5b6134f189838a0161301e565b935060808801359150808211156132d857600080fd5b6000806000806060858703121561351d57600080fd5b843561352881612f07565b93506020850135925060408501356001600160401b0381111561333357600080fd5b6000806040838503121561355d57600080fd5b823561356881612f07565b946020939093013593505050565b600080600080600060a0868803121561358e57600080fd5b853561359981612f07565b945060208601356135a981612f07565b9350604086013592506060860135915060808601356001600160401b038111156135d257600080fd5b6132e588828901612dc8565b8183823760009101908152919050565b60208082526018908201527f476f7665726e6f723a206f6e6c79476f7665726e616e63650000000000000000604082015260600190565b600181811c9082168061363957607f821691505b6020821081141561365a57634e487b7160e01b600052602260045260246000fd5b50919050565b60208082526021908201527f476f7665726e6f723a2070726f706f73616c206e6f74207375636365737366756040820152601b60fa1b606082015260800190565b6000602082840312156136b357600080fd5b5051919050565b600081518084526020808501945080840160005b838110156136f35781516001600160a01b0316875295820195908201906001016136ce565b509495945050505050565b600081518084526020808501945080840160005b838110156136f357815187529582019590820190600101613712565b600081518084526020808501808196508360051b8101915082860160005b85811015613776578284038952613764848351612ea7565b9885019893509084019060010161374c565b5091979650505050505050565b60a08152600061379660a08301886136ba565b82810360208401526137a881886136fe565b905082810360408401526137bc818761372e565b60608401959095525050608001529392505050565b60c0815260006137e460c08301896136ba565b82810360208401526137f681896136fe565b9050828103604084015261380a818861372e565b60608401969096525050608081019290925260a0909101529392505050565b634e487b7160e01b600052601160045260246000fd5b6000821982111561385257613852613829565b500190565b60008282101561386957613869613829565b500390565b634e487b7160e01b600052603260045260246000fd5b60808152600061389760808301876136ba565b82810360208401526138a981876136fe565b905082810360408401526138bd818661372e565b91505082606083015295945050505050565b84815260ff8416602082015282604082015260806060820152600061108c6080830184612ea7565b85815260ff8516602082015283604082015260a06060820152600061391f60a0830185612ea7565b82810360808401526139318185612ea7565b98975050505050505050565b600060001982141561395157613951613829565b5060010190565b60006020828403121561396a57600080fd5b815180151581146110bd57600080fd5b60208082526021908201527f476f7665726e6f723a20696e76616c69642070726f706f73616c206c656e67746040820152600d60fb1b606082015260800190565b60006001600160401b038083168185168083038211156139dd576139dd613829565b01949350505050565b60006101208b8352602060018060a01b038c1681850152816040850152613a0f8285018c6136ba565b91508382036060850152613a23828b6136fe565b915083820360808501528189518084528284019150828160051b850101838c0160005b83811015613a7457601f19878403018552613a62838351612ea7565b94860194925090850190600101613a46565b505086810360a0880152613a88818c61372e565b945050505050613aa360c08401876001600160401b03169052565b6001600160401b03851660e0840152828103610100840152613ac58185612ea7565b9c9b505050505050505050505050565b6000816000190483118215151615613aef57613aef613829565b500290565b600082613b1157634e487b7160e01b600052601260045260246000fd5b50049056fe476f7665726e6f723a2072656c617920726576657274656420776974686f7574206d657373616765a2646970667358221220de3115d0e704e9464ba2c7b2b3f9bde9aae15f5baa6a23ef893e96a979fe6a2b64736f6c63430008090033",
  "immutableReferences": {
    "3698": [
      {
        "length": 32,
        "start": 2153
      },
      {
        "length": 32,
        "start": 8262
      },
      {
        "length": 32,
        "start": 8777
      }
    ],
    "6590": [
      {
        "length": 32,
        "start": 9557
      }
    ],
    "6592": [
      {
        "length": 32,
        "start": 9515
      }
    ],
    "6594": [
      {
        "length": 32,
        "start": 9473
      }
    ],
    "6596": [
      {
        "length": 32,
        "start": 9640
      }
    ],
    "6598": [
      {
        "length": 32,
        "start": 9677
      }
    ],
    "6600": [
      {
        "length": 32,
        "start": 9598
      }
    ]
  },
  "source": "// SPDX-License-Identifier: MIT\npragma solidity ^0.8.9;\n\nimport \"@openzeppelin/contracts/governance/Governor.sol\";\nimport \"@openzeppelin/contracts/governance/extensions/GovernorSettings.sol\";\nimport \"@openzeppelin/contracts/governance/extensions/GovernorCountingSimple.sol\";\nimport \"@openzeppelin/contracts/governance/extensions/GovernorVotes.sol\";\nimport \"@openzeppelin/contracts/governance/extensions/GovernorVotesQuorumFraction.sol\";\nimport \"@openzeppelin/contracts/governance/extensions/GovernorTimelockControl.sol\";\n\ncontract SUFriendGovernor is Governor, GovernorSettings, GovernorCountingSimple, GovernorVotes, GovernorVotesQuorumFraction, GovernorTimelockControl {\n    constructor(IVotes _token, TimelockController _timelock)\n        Governor(\"SUFriendGovernor\")\n        GovernorSettings(\n            0 /* votingDelay: 1 block */, \n            10 /* votingPeriod: 1 block */,\n            1e18 /* proposalThreshold */\n        )\n        GovernorVotes(_token)\n        GovernorVotesQuorumFraction(4)\n        GovernorTimelockControl(_timelock)\n    {}\n\n    // The following functions are overrides required by Solidity.\n\n    function votingDelay()\n        public\n        view\n        override(IGovernor, GovernorSettings)\n        returns (uint256)\n    {\n        return super.votingDelay();\n    }\n\n    function votingPeriod()\n        public\n        view\n        override(IGovernor, GovernorSettings)\n        returns (uint256)\n    {\n        return super.votingPeriod();\n    }\n\n    function quorum(uint256 blockNumber)\n        public\n        view\n        override(IGovernor, GovernorVotesQuorumFraction)\n        returns (uint256)\n    {\n        return super.quorum(blockNumber);\n    }\n\n    function state(uint256 proposalId)\n        public\n        view\n        override(Governor, GovernorTimelockControl)\n        returns (ProposalState)\n    {\n        return super.state(proposalId);\n    }\n\n    function propose(address[] memory targets, uint256[] memory values, bytes[] memory calldatas, string memory description)\n        public\n        override(Governor, IGovernor)\n        returns (uint256)\n    {\n        return super.propose(targets, values, calldatas, description);\n    }\n\n    function proposalThreshold()\n        public\n        view\n        override(Governor, GovernorSettings)\n        returns (uint256)\n    {\n        return super.proposalThreshold();\n    }\n\n    function _execute(uint256 proposalId, address[] memory targets, uint256[] memory values, bytes[] memory calldatas, bytes32 descriptionHash)\n        internal\n        override(Governor, GovernorTimelockControl)\n    {\n        super._execute(proposalId, targets, values, calldatas, descriptionHash);\n    }\n\n    function _cancel(address[] memory targets, uint256[] memory values, bytes[] memory calldatas, bytes32 descriptionHash)\n        internal\n        override(Governor, GovernorTimelockControl)\n        returns (uint256)\n    {\n        return super._cancel(targets, values, calldatas, descriptionHash);\n    }\n\n    function _executor()\n        internal\n        view\n        override(Governor, GovernorTimelockControl)\n        returns (address)\n    {\n        return super._executor();\n    }\n\n    function supportsInterface(bytes4 interfaceId)\n        public\n        view\n        override(Governor, GovernorTimelockControl)\n        returns (bool)\n    {\n        return super.supportsInterface(interfaceId);\n    }\n}\n",
  "sourcePath": "/Users/ykc/Documents/Worksplace/Fall2022/CS48001/Project/SUFriends/contracts/SUFriendGovernor.sol",
  "compiler": {
    "name": "solc",
    "version": "0.8.9+commit.e5eed63a.Emscripten.clang"
  },
  "schemaVersion": "3.4.10",
  "updatedAt": "2023-01-17T20:23:45.957Z",
  "networkType": "ethereum",
  "devdoc": {
    "errors": {
      "Empty()": [
        {
          "details": "An operation (e.g. {front}) couldn't be completed due to the queue being empty."
        }
      ]
    },
    "kind": "dev",
    "methods": {
      "COUNTING_MODE()": {
        "details": "See {IGovernor-COUNTING_MODE}."
      },
      "castVote(uint256,uint8)": {
        "details": "See {IGovernor-castVote}."
      },
      "castVoteBySig(uint256,uint8,uint8,bytes32,bytes32)": {
        "details": "See {IGovernor-castVoteBySig}."
      },
      "castVoteWithReason(uint256,uint8,string)": {
        "details": "See {IGovernor-castVoteWithReason}."
      },
      "castVoteWithReasonAndParams(uint256,uint8,string,bytes)": {
        "details": "See {IGovernor-castVoteWithReasonAndParams}."
      },
      "castVoteWithReasonAndParamsBySig(uint256,uint8,string,bytes,uint8,bytes32,bytes32)": {
        "details": "See {IGovernor-castVoteWithReasonAndParamsBySig}."
      },
      "execute(address[],uint256[],bytes[],bytes32)": {
        "details": "See {IGovernor-execute}."
      },
      "getVotes(address,uint256)": {
        "details": "See {IGovernor-getVotes}."
      },
      "getVotesWithParams(address,uint256,bytes)": {
        "details": "See {IGovernor-getVotesWithParams}."
      },
      "hasVoted(uint256,address)": {
        "details": "See {IGovernor-hasVoted}."
      },
      "hashProposal(address[],uint256[],bytes[],bytes32)": {
        "details": "See {IGovernor-hashProposal}. The proposal id is produced by hashing the ABI encoded `targets` array, the `values` array, the `calldatas` array and the descriptionHash (bytes32 which itself is the keccak256 hash of the description string). This proposal id can be produced from the proposal data which is part of the {ProposalCreated} event. It can even be computed in advance, before the proposal is submitted. Note that the chainId and the governor address are not part of the proposal id computation. Consequently, the same proposal (with same operation and same description) will have the same id if submitted on multiple governors across multiple networks. This also means that in order to execute the same operation twice (on the same governor) the proposer will have to change the description in order to avoid proposal id conflicts."
      },
      "name()": {
        "details": "See {IGovernor-name}."
      },
      "onERC1155BatchReceived(address,address,uint256[],uint256[],bytes)": {
        "details": "See {IERC1155Receiver-onERC1155BatchReceived}."
      },
      "onERC1155Received(address,address,uint256,uint256,bytes)": {
        "details": "See {IERC1155Receiver-onERC1155Received}."
      },
      "onERC721Received(address,address,uint256,bytes)": {
        "details": "See {IERC721Receiver-onERC721Received}."
      },
      "proposalDeadline(uint256)": {
        "details": "See {IGovernor-proposalDeadline}."
      },
      "proposalEta(uint256)": {
        "details": "Public accessor to check the eta of a queued proposal"
      },
      "proposalSnapshot(uint256)": {
        "details": "See {IGovernor-proposalSnapshot}."
      },
      "proposalVotes(uint256)": {
        "details": "Accessor to the internal vote counts."
      },
      "queue(address[],uint256[],bytes[],bytes32)": {
        "details": "Function to queue a proposal to the timelock."
      },
      "quorumDenominator()": {
        "details": "Returns the quorum denominator. Defaults to 100, but may be overridden."
      },
      "quorumNumerator()": {
        "details": "Returns the current quorum numerator. See {quorumDenominator}."
      },
      "quorumNumerator(uint256)": {
        "details": "Returns the quorum numerator at a specific block number. See {quorumDenominator}."
      },
      "relay(address,uint256,bytes)": {
        "details": "Relays a transaction or function call to an arbitrary target. In cases where the governance executor is some contract other than the governor itself, like when using a timelock, this function can be invoked in a governance proposal to recover tokens or Ether that was sent to the governor contract by mistake. Note that if the executor is simply the governor itself, use of `relay` is redundant."
      },
      "setProposalThreshold(uint256)": {
        "details": "Update the proposal threshold. This operation can only be performed through a governance proposal. Emits a {ProposalThresholdSet} event."
      },
      "setVotingDelay(uint256)": {
        "details": "Update the voting delay. This operation can only be performed through a governance proposal. Emits a {VotingDelaySet} event."
      },
      "setVotingPeriod(uint256)": {
        "details": "Update the voting period. This operation can only be performed through a governance proposal. Emits a {VotingPeriodSet} event."
      },
      "timelock()": {
        "details": "Public accessor to check the address of the timelock"
      },
      "updateQuorumNumerator(uint256)": {
        "details": "Changes the quorum numerator. Emits a {QuorumNumeratorUpdated} event. Requirements: - Must be called through a governance proposal. - New numerator must be smaller or equal to the denominator."
      },
      "updateTimelock(address)": {
        "details": "Public endpoint to update the underlying timelock instance. Restricted to the timelock itself, so updates must be proposed, scheduled, and executed through governance proposals. CAUTION: It is not recommended to change the timelock while there are other queued governance proposals."
      },
      "version()": {
        "details": "See {IGovernor-version}."
      }
    },
    "version": 1
  },
  "userdoc": {
    "kind": "user",
    "methods": {},
    "version": 1
  }
}