{
  "contractName": "Treasury",
  "abi": [
    {
      "inputs": [],
      "stateMutability": "payable",
      "type": "constructor"
    },
    {
      "anonymous": false,
      "inputs": [
        {
          "indexed": true,
          "internalType": "address",
          "name": "previousOwner",
          "type": "address"
        },
        {
          "indexed": true,
          "internalType": "address",
          "name": "newOwner",
          "type": "address"
        }
      ],
      "name": "OwnershipTransferred",
      "type": "event"
    },
    {
      "anonymous": false,
      "inputs": [
        {
          "indexed": false,
          "internalType": "address",
          "name": "",
          "type": "address"
        },
        {
          "indexed": false,
          "internalType": "uint256",
          "name": "",
          "type": "uint256"
        }
      ],
      "name": "Received",
      "type": "event"
    },
    {
      "inputs": [],
      "name": "owner",
      "outputs": [
        {
          "internalType": "address",
          "name": "",
          "type": "address"
        }
      ],
      "stateMutability": "view",
      "type": "function"
    },
    {
      "inputs": [],
      "name": "renounceOwnership",
      "outputs": [],
      "stateMutability": "nonpayable",
      "type": "function"
    },
    {
      "inputs": [],
      "name": "totalFunds",
      "outputs": [
        {
          "internalType": "uint256",
          "name": "",
          "type": "uint256"
        }
      ],
      "stateMutability": "view",
      "type": "function"
    },
    {
      "inputs": [
        {
          "internalType": "address",
          "name": "newOwner",
          "type": "address"
        }
      ],
      "name": "transferOwnership",
      "outputs": [],
      "stateMutability": "nonpayable",
      "type": "function"
    },
    {
      "stateMutability": "payable",
      "type": "receive"
    },
    {
      "inputs": [
        {
          "internalType": "address",
          "name": "payee",
          "type": "address"
        },
        {
          "internalType": "uint256",
          "name": "amount",
          "type": "uint256"
        }
      ],
      "name": "releaseFunds",
      "outputs": [],
      "stateMutability": "nonpayable",
      "type": "function"
    }
  ],
  "bytecode": "0x608060405261000d33610016565b34600155610066565b600080546001600160a01b038381166001600160a01b0319831681178455604051919092169283917f8be0079c531659141344cd1fd0a4f28419497f9722a3daafe3b4186f6b6457e09190a35050565b6103ca806100756000396000f3fe60806040526004361061004e5760003560e01c8063715018a6146100a95780638da5cb5b146100c0578063968ed600146100ed578063d6e982e514610111578063f2fde38b1461013157600080fd5b366100a457346001600082825461006591906102fd565b9091555050604080513381523460208201527f88a5966d370b9919b20f3e2c13ff65706f196a4e32cc2c12bf57088f88525874910160405180910390a1005b600080fd5b3480156100b557600080fd5b506100be610151565b005b3480156100cc57600080fd5b506000546040516001600160a01b0390911681526020015b60405180910390f35b3480156100f957600080fd5b5061010360015481565b6040519081526020016100e4565b34801561011d57600080fd5b506100be61012c366004610331565b610165565b34801561013d57600080fd5b506100be61014c36600461035b565b6101bf565b61015961023d565b6101636000610297565b565b61016d61023d565b806001600082825461017f919061037d565b90915550506040516001600160a01b0383169082156108fc029083906000818181858888f193505050501580156101ba573d6000803e3d6000fd5b505050565b6101c761023d565b6001600160a01b0381166102315760405162461bcd60e51b815260206004820152602660248201527f4f776e61626c653a206e6577206f776e657220697320746865207a65726f206160448201526564647265737360d01b60648201526084015b60405180910390fd5b61023a81610297565b50565b6000546001600160a01b031633146101635760405162461bcd60e51b815260206004820181905260248201527f4f776e61626c653a2063616c6c6572206973206e6f7420746865206f776e65726044820152606401610228565b600080546001600160a01b038381166001600160a01b0319831681178455604051919092169283917f8be0079c531659141344cd1fd0a4f28419497f9722a3daafe3b4186f6b6457e09190a35050565b634e487b7160e01b600052601160045260246000fd5b60008219821115610310576103106102e7565b500190565b80356001600160a01b038116811461032c57600080fd5b919050565b6000806040838503121561034457600080fd5b61034d83610315565b946020939093013593505050565b60006020828403121561036d57600080fd5b61037682610315565b9392505050565b60008282101561038f5761038f6102e7565b50039056fea264697066735822122069e0c7cb0bfdd9f12161e70ca150e5218daabad03a5d5c998027810e904a613f64736f6c63430008090033",
  "immutableReferences": {},
  "source": "// SPDX-License-Identifier: MIT\npragma solidity ^0.8.9;\n\nimport \"@openzeppelin/contracts/access/Ownable.sol\";\n\ncontract Treasury is Ownable {\n    uint256 public totalFunds;\n\n    constructor() payable {\n        totalFunds = msg.value;\n    }\n\n    function releaseFunds(address payee, uint256 amount) public onlyOwner {\n        totalFunds -= amount;\n        payable(payee).transfer(amount);\n    }\n\n    event Received(address, uint);\n    receive() external payable {\n        totalFunds += msg.value;\n        emit Received(msg.sender, msg.value);\n    }\n}",
  "sourcePath": "/Users/ykc/Documents/Worksplace/Fall2022/CS48001/Project/SUFriends/contracts/Treasury.sol",
  "compiler": {
    "name": "solc",
    "version": "0.8.9+commit.e5eed63a.Emscripten.clang"
  },
  "schemaVersion": "3.4.10",
  "updatedAt": "2023-01-17T14:02:35.250Z",
  "devdoc": {
    "kind": "dev",
    "methods": {
      "owner()": {
        "details": "Returns the address of the current owner."
      },
      "renounceOwnership()": {
        "details": "Leaves the contract without owner. It will not be possible to call `onlyOwner` functions anymore. Can only be called by the current owner. NOTE: Renouncing ownership will leave the contract without an owner, thereby removing any functionality that is only available to the owner."
      },
      "transferOwnership(address)": {
        "details": "Transfers ownership of the contract to a new account (`newOwner`). Can only be called by the current owner."
      }
    },
    "version": 1
  },
  "userdoc": {
    "kind": "user",
    "methods": {},
    "version": 1
  }
}