{
  "contractName": "TreasuryOZ",
  "abi": [
    {
      "inputs": [
        {
          "internalType": "address",
          "name": "_payee",
          "type": "address"
        }
      ],
      "stateMutability": "payable",
      "type": "constructor"
    },
    {
      "anonymous": false,
      "inputs": [
        {
          "indexed": true,
          "internalType": "address",
          "name": "previousOwner",
          "type": "address"
        },
        {
          "indexed": true,
          "internalType": "address",
          "name": "newOwner",
          "type": "address"
        }
      ],
      "name": "OwnershipTransferred",
      "type": "event"
    },
    {
      "inputs": [],
      "name": "isReleased",
      "outputs": [
        {
          "internalType": "bool",
          "name": "",
          "type": "bool"
        }
      ],
      "stateMutability": "view",
      "type": "function"
    },
    {
      "inputs": [],
      "name": "owner",
      "outputs": [
        {
          "internalType": "address",
          "name": "",
          "type": "address"
        }
      ],
      "stateMutability": "view",
      "type": "function"
    },
    {
      "inputs": [],
      "name": "payee",
      "outputs": [
        {
          "internalType": "address",
          "name": "",
          "type": "address"
        }
      ],
      "stateMutability": "view",
      "type": "function"
    },
    {
      "inputs": [],
      "name": "renounceOwnership",
      "outputs": [],
      "stateMutability": "nonpayable",
      "type": "function"
    },
    {
      "inputs": [],
      "name": "totalFunds",
      "outputs": [
        {
          "internalType": "uint256",
          "name": "",
          "type": "uint256"
        }
      ],
      "stateMutability": "view",
      "type": "function"
    },
    {
      "inputs": [
        {
          "internalType": "address",
          "name": "newOwner",
          "type": "address"
        }
      ],
      "name": "transferOwnership",
      "outputs": [],
      "stateMutability": "nonpayable",
      "type": "function"
    },
    {
      "inputs": [],
      "name": "releaseFunds",
      "outputs": [],
      "stateMutability": "nonpayable",
      "type": "function"
    }
  ],
  "bytecode": "0x6080604052604051610882380380610882833981810160405281019061002591906101d9565b6100416100366100aa60201b60201c565b6100b260201b60201c565b3460018190555080600260006101000a81548173ffffffffffffffffffffffffffffffffffffffff021916908373ffffffffffffffffffffffffffffffffffffffff1602179055506000600260146101000a81548160ff02191690831515021790555050610206565b600033905090565b60008060009054906101000a900473ffffffffffffffffffffffffffffffffffffffff169050816000806101000a81548173ffffffffffffffffffffffffffffffffffffffff021916908373ffffffffffffffffffffffffffffffffffffffff1602179055508173ffffffffffffffffffffffffffffffffffffffff168173ffffffffffffffffffffffffffffffffffffffff167f8be0079c531659141344cd1fd0a4f28419497f9722a3daafe3b4186f6b6457e060405160405180910390a35050565b600080fd5b600073ffffffffffffffffffffffffffffffffffffffff82169050919050565b60006101a68261017b565b9050919050565b6101b68161019b565b81146101c157600080fd5b50565b6000815190506101d3816101ad565b92915050565b6000602082840312156101ef576101ee610176565b5b60006101fd848285016101c4565b91505092915050565b61066d806102156000396000f3fe608060405234801561001057600080fd5b506004361061007d5760003560e01c8063968ed6001161005b578063968ed600146100b4578063ae90b213146100d2578063f2fde38b146100f0578063fa2a89971461010c5761007d565b806369d8957514610082578063715018a61461008c5780638da5cb5b14610096575b600080fd5b61008a61012a565b005b6100946101ba565b005b61009e6101ce565b6040516100ab9190610445565b60405180910390f35b6100bc6101f7565b6040516100c99190610479565b60405180910390f35b6100da6101fd565b6040516100e79190610445565b60405180910390f35b61010a600480360381019061010591906104c5565b610223565b005b6101146102a7565b604051610121919061050d565b60405180910390f35b6101326102ba565b6001600260146101000a81548160ff021916908315150217905550600260009054906101000a900473ffffffffffffffffffffffffffffffffffffffff1673ffffffffffffffffffffffffffffffffffffffff166108fc6001549081150290604051600060405180830381858888f193505050501580156101b7573d6000803e3d6000fd5b50565b6101c26102ba565b6101cc6000610338565b565b60008060009054906101000a900473ffffffffffffffffffffffffffffffffffffffff16905090565b60015481565b600260009054906101000a900473ffffffffffffffffffffffffffffffffffffffff1681565b61022b6102ba565b600073ffffffffffffffffffffffffffffffffffffffff168173ffffffffffffffffffffffffffffffffffffffff16141561029b576040517f08c379a0000000000000000000000000000000000000000000000000000000008152600401610292906105ab565b60405180910390fd5b6102a481610338565b50565b600260149054906101000a900460ff1681565b6102c26103fc565b73ffffffffffffffffffffffffffffffffffffffff166102e06101ce565b73ffffffffffffffffffffffffffffffffffffffff1614610336576040517f08c379a000000000000000000000000000000000000000000000000000000000815260040161032d90610617565b60405180910390fd5b565b60008060009054906101000a900473ffffffffffffffffffffffffffffffffffffffff169050816000806101000a81548173ffffffffffffffffffffffffffffffffffffffff021916908373ffffffffffffffffffffffffffffffffffffffff1602179055508173ffffffffffffffffffffffffffffffffffffffff168173ffffffffffffffffffffffffffffffffffffffff167f8be0079c531659141344cd1fd0a4f28419497f9722a3daafe3b4186f6b6457e060405160405180910390a35050565b600033905090565b600073ffffffffffffffffffffffffffffffffffffffff82169050919050565b600061042f82610404565b9050919050565b61043f81610424565b82525050565b600060208201905061045a6000830184610436565b92915050565b6000819050919050565b61047381610460565b82525050565b600060208201905061048e600083018461046a565b92915050565b600080fd5b6104a281610424565b81146104ad57600080fd5b50565b6000813590506104bf81610499565b92915050565b6000602082840312156104db576104da610494565b5b60006104e9848285016104b0565b91505092915050565b60008115159050919050565b610507816104f2565b82525050565b600060208201905061052260008301846104fe565b92915050565b600082825260208201905092915050565b7f4f776e61626c653a206e6577206f776e657220697320746865207a65726f206160008201527f6464726573730000000000000000000000000000000000000000000000000000602082015250565b6000610595602683610528565b91506105a082610539565b604082019050919050565b600060208201905081810360008301526105c481610588565b9050919050565b7f4f776e61626c653a2063616c6c6572206973206e6f7420746865206f776e6572600082015250565b6000610601602083610528565b915061060c826105cb565b602082019050919050565b60006020820190508181036000830152610630816105f4565b905091905056fea2646970667358221220f5ef813b00fcee7c381de0d95ecbe5c5978bf980c48e77a9ed43b762a4e6da9564736f6c63430008090033",
  "immutableReferences": {},
  "source": "// SPDX-License-Identifier: MIT\npragma solidity ^0.8.0;\n\nimport \"@openzeppelin/contracts/access/Ownable.sol\";\n\ncontract TreasuryOZ is Ownable {\n    uint256 public totalFunds;\n    address public payee;\n    bool public isReleased;\n\n    constructor(address _payee) payable {\n        totalFunds = msg.value;\n        payee = _payee;\n        isReleased = false;\n    }\n\n    function releaseFunds() public onlyOwner {\n        isReleased = true;\n        payable(payee).transfer(totalFunds);\n    }\n}",
  "sourcePath": "/Users/ykc/Documents/Worksplace/Fall2022/CS48001/Project/SUFriends/contracts/TreasuryOZ.sol",
  "compiler": {
    "name": "solc",
    "version": "0.8.9+commit.e5eed63a.Emscripten.clang"
  },
  "schemaVersion": "3.4.10",
  "updatedAt": "2022-12-15T20:36:30.234Z",
  "networkType": "ethereum",
  "devdoc": {
    "kind": "dev",
    "methods": {
      "owner()": {
        "details": "Returns the address of the current owner."
      },
      "renounceOwnership()": {
        "details": "Leaves the contract without owner. It will not be possible to call `onlyOwner` functions anymore. Can only be called by the current owner. NOTE: Renouncing ownership will leave the contract without an owner, thereby removing any functionality that is only available to the owner."
      },
      "transferOwnership(address)": {
        "details": "Transfers ownership of the contract to a new account (`newOwner`). Can only be called by the current owner."
      }
    },
    "version": 1
  },
  "userdoc": {
    "kind": "user",
    "methods": {},
    "version": 1
  }
}